{
  "contractName": "ArtToken",
  "abi": [
    {
      "inputs": [
        {
          "internalType": "string",
          "name": "_name",
          "type": "string"
        },
        {
          "internalType": "string",
          "name": "_symbol",
          "type": "string"
        },
        {
          "internalType": "string",
          "name": "_baseUri",
          "type": "string"
        }
      ],
      "stateMutability": "nonpayable",
      "type": "constructor"
    },
    {
      "anonymous": false,
      "inputs": [
        {
          "indexed": true,
          "internalType": "address",
          "name": "owner",
          "type": "address"
        },
        {
          "indexed": true,
          "internalType": "address",
          "name": "approved",
          "type": "address"
        },
        {
          "indexed": true,
          "internalType": "uint256",
          "name": "tokenId",
          "type": "uint256"
        }
      ],
      "name": "Approval",
      "type": "event"
    },
    {
      "anonymous": false,
      "inputs": [
        {
          "indexed": true,
          "internalType": "address",
          "name": "owner",
          "type": "address"
        },
        {
          "indexed": true,
          "internalType": "address",
          "name": "operator",
          "type": "address"
        },
        {
          "indexed": false,
          "internalType": "bool",
          "name": "approved",
          "type": "bool"
        }
      ],
      "name": "ApprovalForAll",
      "type": "event"
    },
    {
      "anonymous": false,
      "inputs": [
        {
          "indexed": false,
          "internalType": "string",
          "name": "baseURI",
          "type": "string"
        }
      ],
      "name": "BaseURIChange",
      "type": "event"
    },
    {
      "anonymous": false,
      "inputs": [
        {
          "indexed": true,
          "internalType": "address",
          "name": "owner",
          "type": "address"
        },
        {
          "indexed": true,
          "internalType": "uint256",
          "name": "tokenId",
          "type": "uint256"
        }
      ],
      "name": "ItemCreated",
      "type": "event"
    },
    {
      "anonymous": false,
      "inputs": [
        {
          "indexed": true,
          "internalType": "address",
          "name": "previousOwner",
          "type": "address"
        },
        {
          "indexed": true,
          "internalType": "address",
          "name": "newOwner",
          "type": "address"
        }
      ],
      "name": "OwnershipTransferred",
      "type": "event"
    },
    {
      "anonymous": false,
      "inputs": [
        {
          "indexed": true,
          "internalType": "address",
          "name": "from",
          "type": "address"
        },
        {
          "indexed": true,
          "internalType": "address",
          "name": "to",
          "type": "address"
        },
        {
          "indexed": true,
          "internalType": "uint256",
          "name": "tokenId",
          "type": "uint256"
        }
      ],
      "name": "Transfer",
      "type": "event"
    },
    {
      "inputs": [],
      "name": "_INTERFACE_ID_ERC721_VERIFY_FINGERPRINT",
      "outputs": [
        {
          "internalType": "bytes4",
          "name": "",
          "type": "bytes4"
        }
      ],
      "stateMutability": "view",
      "type": "function"
    },
    {
      "inputs": [
        {
          "internalType": "address",
          "name": "to",
          "type": "address"
        },
        {
          "internalType": "uint256",
          "name": "tokenId",
          "type": "uint256"
        }
      ],
      "name": "approve",
      "outputs": [],
      "stateMutability": "nonpayable",
      "type": "function"
    },
    {
      "inputs": [
        {
          "internalType": "address",
          "name": "owner",
          "type": "address"
        }
      ],
      "name": "balanceOf",
      "outputs": [
        {
          "internalType": "uint256",
          "name": "",
          "type": "uint256"
        }
      ],
      "stateMutability": "view",
      "type": "function"
    },
    {
      "inputs": [],
      "name": "baseURI",
      "outputs": [
        {
          "internalType": "string",
          "name": "",
          "type": "string"
        }
      ],
      "stateMutability": "view",
      "type": "function"
    },
    {
      "inputs": [
        {
          "internalType": "uint256",
          "name": "",
          "type": "uint256"
        }
      ],
      "name": "extraInfoMap",
      "outputs": [
        {
          "internalType": "string",
          "name": "metaDataURI",
          "type": "string"
        },
        {
          "internalType": "bytes32",
          "name": "metaDataHash",
          "type": "bytes32"
        }
      ],
      "stateMutability": "view",
      "type": "function"
    },
    {
      "inputs": [
        {
          "internalType": "uint256",
          "name": "tokenId",
          "type": "uint256"
        }
      ],
      "name": "getApproved",
      "outputs": [
        {
          "internalType": "address",
          "name": "",
          "type": "address"
        }
      ],
      "stateMutability": "view",
      "type": "function"
    },
    {
      "inputs": [
        {
          "internalType": "address",
          "name": "owner",
          "type": "address"
        },
        {
          "internalType": "address",
          "name": "operator",
          "type": "address"
        }
      ],
      "name": "isApprovedForAll",
      "outputs": [
        {
          "internalType": "bool",
          "name": "",
          "type": "bool"
        }
      ],
      "stateMutability": "view",
      "type": "function"
    },
    {
      "inputs": [],
      "name": "name",
      "outputs": [
        {
          "internalType": "string",
          "name": "",
          "type": "string"
        }
      ],
      "stateMutability": "view",
      "type": "function"
    },
    {
      "inputs": [],
      "name": "owner",
      "outputs": [
        {
          "internalType": "address",
          "name": "",
          "type": "address"
        }
      ],
      "stateMutability": "view",
      "type": "function"
    },
    {
      "inputs": [
        {
          "internalType": "uint256",
          "name": "tokenId",
          "type": "uint256"
        }
      ],
      "name": "ownerOf",
      "outputs": [
        {
          "internalType": "address",
          "name": "",
          "type": "address"
        }
      ],
      "stateMutability": "view",
      "type": "function"
    },
    {
      "inputs": [],
      "name": "renounceOwnership",
      "outputs": [],
      "stateMutability": "nonpayable",
      "type": "function"
    },
    {
      "inputs": [
        {
          "internalType": "address",
          "name": "from",
          "type": "address"
        },
        {
          "internalType": "address",
          "name": "to",
          "type": "address"
        },
        {
          "internalType": "uint256",
          "name": "tokenId",
          "type": "uint256"
        }
      ],
      "name": "safeTransferFrom",
      "outputs": [],
      "stateMutability": "nonpayable",
      "type": "function"
    },
    {
      "inputs": [
        {
          "internalType": "address",
          "name": "from",
          "type": "address"
        },
        {
          "internalType": "address",
          "name": "to",
          "type": "address"
        },
        {
          "internalType": "uint256",
          "name": "tokenId",
          "type": "uint256"
        },
        {
          "internalType": "bytes",
          "name": "_data",
          "type": "bytes"
        }
      ],
      "name": "safeTransferFrom",
      "outputs": [],
      "stateMutability": "nonpayable",
      "type": "function"
    },
    {
      "inputs": [
        {
          "internalType": "address",
          "name": "operator",
          "type": "address"
        },
        {
          "internalType": "bool",
          "name": "approved",
          "type": "bool"
        }
      ],
      "name": "setApprovalForAll",
      "outputs": [],
      "stateMutability": "nonpayable",
      "type": "function"
    },
    {
      "inputs": [
        {
          "internalType": "bytes4",
          "name": "interfaceId",
          "type": "bytes4"
        }
      ],
      "name": "supportsInterface",
      "outputs": [
        {
          "internalType": "bool",
          "name": "",
          "type": "bool"
        }
      ],
      "stateMutability": "view",
      "type": "function"
    },
    {
      "inputs": [],
      "name": "symbol",
      "outputs": [
        {
          "internalType": "string",
          "name": "",
          "type": "string"
        }
      ],
      "stateMutability": "view",
      "type": "function"
    },
    {
      "inputs": [
        {
          "internalType": "uint256",
          "name": "index",
          "type": "uint256"
        }
      ],
      "name": "tokenByIndex",
      "outputs": [
        {
          "internalType": "uint256",
          "name": "",
          "type": "uint256"
        }
      ],
      "stateMutability": "view",
      "type": "function"
    },
    {
      "inputs": [
        {
          "internalType": "address",
          "name": "owner",
          "type": "address"
        },
        {
          "internalType": "uint256",
          "name": "index",
          "type": "uint256"
        }
      ],
      "name": "tokenOfOwnerByIndex",
      "outputs": [
        {
          "internalType": "uint256",
          "name": "",
          "type": "uint256"
        }
      ],
      "stateMutability": "view",
      "type": "function"
    },
    {
      "inputs": [
        {
          "internalType": "uint256",
          "name": "tokenId",
          "type": "uint256"
        }
      ],
      "name": "tokenURI",
      "outputs": [
        {
          "internalType": "string",
          "name": "",
          "type": "string"
        }
      ],
      "stateMutability": "view",
      "type": "function"
    },
    {
      "inputs": [],
      "name": "totalSupply",
      "outputs": [
        {
          "internalType": "uint256",
          "name": "",
          "type": "uint256"
        }
      ],
      "stateMutability": "view",
      "type": "function"
    },
    {
      "inputs": [
        {
          "internalType": "address",
          "name": "from",
          "type": "address"
        },
        {
          "internalType": "address",
          "name": "to",
          "type": "address"
        },
        {
          "internalType": "uint256",
          "name": "tokenId",
          "type": "uint256"
        }
      ],
      "name": "transferFrom",
      "outputs": [],
      "stateMutability": "nonpayable",
      "type": "function"
    },
    {
      "inputs": [
        {
          "internalType": "address",
          "name": "newOwner",
          "type": "address"
        }
      ],
      "name": "transferOwnership",
      "outputs": [],
      "stateMutability": "nonpayable",
      "type": "function"
    },
    {
      "inputs": [
        {
          "internalType": "string",
          "name": "_baseUri",
          "type": "string"
        }
      ],
      "name": "setBaseURI",
      "outputs": [],
      "stateMutability": "nonpayable",
      "type": "function"
    },
    {
      "inputs": [
        {
          "internalType": "string",
          "name": "_metaDataURI",
          "type": "string"
        },
        {
          "internalType": "string",
          "name": "_metaData",
          "type": "string"
        }
      ],
      "name": "create",
      "outputs": [],
      "stateMutability": "nonpayable",
      "type": "function"
    },
    {
      "inputs": [
        {
          "internalType": "string",
          "name": "_metaDataURI",
          "type": "string"
        },
        {
          "internalType": "string",
          "name": "_metaData",
          "type": "string"
        },
        {
          "internalType": "address",
          "name": "_marketplace",
          "type": "address"
        },
        {
          "internalType": "bytes",
          "name": "_encodedCallData",
          "type": "bytes"
        }
      ],
      "name": "createPub",
      "outputs": [],
      "stateMutability": "nonpayable",
      "type": "function"
    },
    {
      "inputs": [
        {
          "internalType": "string",
          "name": "_metaData",
          "type": "string"
        }
      ],
      "name": "getMetaDataHash",
      "outputs": [
        {
          "internalType": "bytes32",
          "name": "",
          "type": "bytes32"
        }
      ],
      "stateMutability": "pure",
      "type": "function"
    },
    {
      "inputs": [
        {
          "internalType": "uint256",
          "name": "_tokenId",
          "type": "uint256"
        },
        {
          "internalType": "bytes32",
          "name": "_fingerprint",
          "type": "bytes32"
        }
      ],
      "name": "verifyFingerprint",
      "outputs": [
        {
          "internalType": "bool",
          "name": "",
          "type": "bool"
        }
      ],
      "stateMutability": "view",
      "type": "function"
    }
  ],
  "bytecode": "0x60806040523480156200001157600080fd5b506040516200430738038062004307833981810160405260608110156200003757600080fd5b81019080805160405193929190846401000000008211156200005857600080fd5b838201915060208201858111156200006f57600080fd5b82518660018202830111640100000000821117156200008d57600080fd5b8083526020830192505050908051906020019080838360005b83811015620000c3578082015181840152602081019050620000a6565b50505050905090810190601f168015620000f15780820380516001836020036101000a031916815260200191505b50604052602001805160405193929190846401000000008211156200011557600080fd5b838201915060208201858111156200012c57600080fd5b82518660018202830111640100000000821117156200014a57600080fd5b8083526020830192505050908051906020019080838360005b838110156200018057808201518184015260208101905062000163565b50505050905090810190601f168015620001ae5780820380516001836020036101000a031916815260200191505b5060405260200180516040519392919084640100000000821115620001d257600080fd5b83820191506020820185811115620001e957600080fd5b82518660018202830111640100000000821117156200020757600080fd5b8083526020830192505050908051906020019080838360005b838110156200023d57808201518184015260208101905062000220565b50505050905090810190601f1680156200026b5780820380516001836020036101000a031916815260200191505b506040525050508282600062000286620003fc60201b60201c565b9050806000806101000a81548173ffffffffffffffffffffffffffffffffffffffff021916908373ffffffffffffffffffffffffffffffffffffffff1602179055508073ffffffffffffffffffffffffffffffffffffffff16600073ffffffffffffffffffffffffffffffffffffffff167f8be0079c531659141344cd1fd0a4f28419497f9722a3daafe3b4186f6b6457e060405160405180910390a3506200033c6301ffc9a760e01b6200040460201b60201c565b816007908051906020019062000354929190620006c5565b5080600890805190602001906200036d929190620006c5565b50620003866380ac58cd60e01b6200040460201b60201c565b6200039e635b5e139f60e01b6200040460201b60201c565b620003b663780e9d6360e01b6200040460201b60201c565b5050620003c9816200050d60201b60201c565b620003f36040518080620042e560229139602201905060405180910390206200040460201b60201c565b50505062000774565b600033905090565b63ffffffff60e01b817bffffffffffffffffffffffffffffffffffffffffffffffffffffffff19161415620004a1576040517f08c379a000000000000000000000000000000000000000000000000000000000815260040180806020018281038252601c8152602001807f4552433136353a20696e76616c696420696e746572666163652069640000000081525060200191505060405180910390fd5b6001806000837bffffffffffffffffffffffffffffffffffffffffffffffffffffffff19167bffffffffffffffffffffffffffffffffffffffffffffffffffffffff1916815260200190815260200160002060006101000a81548160ff02191690831515021790555050565b6200051d620003fc60201b60201c565b73ffffffffffffffffffffffffffffffffffffffff16620005436200068060201b60201c565b73ffffffffffffffffffffffffffffffffffffffff1614620005cd576040517f08c379a00000000000000000000000000000000000000000000000000000000081526004018080602001828103825260208152602001807f4f776e61626c653a2063616c6c6572206973206e6f7420746865206f776e657281525060200191505060405180910390fd5b620005de81620006a960201b60201c565b7fa1e4fe82e2a65657cfd59fd66da1338be7d996f649643c161b7c24b1de80fca9816040518080602001828103825283818151815260200191508051906020019080838360005b838110156200064257808201518184015260208101905062000625565b50505050905090810190601f168015620006705780820380516001836020036101000a031916815260200191505b509250505060405180910390a150565b60008060009054906101000a900473ffffffffffffffffffffffffffffffffffffffff16905090565b80600a9080519060200190620006c1929190620006c5565b5050565b828054600181600116156101000203166002900490600052602060002090601f016020900481019282601f106200070857805160ff191683800117855562000739565b8280016001018555821562000739579182015b82811115620007385782518255916020019190600101906200071b565b5b5090506200074891906200074c565b5090565b6200077191905b808211156200076d57600081600090555060010162000753565b5090565b90565b613b6180620007846000396000f3fe608060405234801561001057600080fd5b50600436106101a95760003560e01c806355f804b3116100f95780638da5cb5b11610097578063b88d4fde11610071578063b88d4fde14610c55578063c87b56dd14610d5a578063e985e9c514610e01578063f2fde38b14610e7d576101a9565b80638da5cb5b14610b3857806395d89b4114610b82578063a22cb46514610c05576101a9565b80636e1d4485116100d35780636e1d44851461094357806370a0823114610a86578063715018a614610ade5780638cb5b56b14610ae8576101a9565b806355f804b3146107975780636352211e146108525780636c0360eb146108c0576101a9565b8063198e2b8a1161016657806342842e0e1161014057806342842e0e1461056a5780634f64f049146105d85780634f6ccce7146106a757806353ed8765146106e9576101a9565b8063198e2b8a146103cc57806323b872dd1461049a5780632f745c5914610508576101a9565b806301ffc9a7146101ae57806306fdde0314610213578063081812fc14610296578063095ea7b31461030457806316606e4b1461035257806318160ddd146103ae575b600080fd5b6101f9600480360360208110156101c457600080fd5b8101908080357bffffffffffffffffffffffffffffffffffffffffffffffffffffffff19169060200190929190505050610ec1565b604051808215151515815260200191505060405180910390f35b61021b610f29565b6040518080602001828103825283818151815260200191508051906020019080838360005b8381101561025b578082015181840152602081019050610240565b50505050905090810190601f1680156102885780820380516001836020036101000a031916815260200191505b509250505060405180910390f35b6102c2600480360360208110156102ac57600080fd5b8101908080359060200190929190505050610fcb565b604051808273ffffffffffffffffffffffffffffffffffffffff1673ffffffffffffffffffffffffffffffffffffffff16815260200191505060405180910390f35b6103506004803603604081101561031a57600080fd5b81019080803573ffffffffffffffffffffffffffffffffffffffff16906020019092919080359060200190929190505050611066565b005b61035a6111aa565b60405180827bffffffffffffffffffffffffffffffffffffffffffffffffffffffff19167bffffffffffffffffffffffffffffffffffffffffffffffffffffffff1916815260200191505060405180910390f35b6103b66111c6565b6040518082815260200191505060405180910390f35b610498600480360360408110156103e257600080fd5b81019080803590602001906401000000008111156103ff57600080fd5b82018360208201111561041157600080fd5b8035906020019184600183028401116401000000008311171561043357600080fd5b90919293919293908035906020019064010000000081111561045457600080fd5b82018360208201111561046657600080fd5b8035906020019184600183028401116401000000008311171561048857600080fd5b90919293919293905050506111d7565b005b610506600480360360608110156104b057600080fd5b81019080803573ffffffffffffffffffffffffffffffffffffffff169060200190929190803573ffffffffffffffffffffffffffffffffffffffff169060200190929190803590602001909291905050506111eb565b005b6105546004803603604081101561051e57600080fd5b81019080803573ffffffffffffffffffffffffffffffffffffffff16906020019092919080359060200190929190505050611261565b6040518082815260200191505060405180910390f35b6105d66004803603606081101561058057600080fd5b81019080803573ffffffffffffffffffffffffffffffffffffffff169060200190929190803573ffffffffffffffffffffffffffffffffffffffff169060200190929190803590602001909291905050506112bc565b005b610691600480360360208110156105ee57600080fd5b810190808035906020019064010000000081111561060b57600080fd5b82018360208201111561061d57600080fd5b8035906020019184600183028401116401000000008311171561063f57600080fd5b91908080601f016020809104026020016040519081016040528093929190818152602001838380828437600081840152601f19601f8201169050808301925050505050505091929192905050506112dc565b6040518082815260200191505060405180910390f35b6106d3600480360360208110156106bd57600080fd5b81019080803590602001909291905050506113aa565b6040518082815260200191505060405180910390f35b610715600480360360208110156106ff57600080fd5b81019080803590602001909291905050506113cd565b6040518080602001838152602001828103825284818151815260200191508051906020019080838360005b8381101561075b578082015181840152602081019050610740565b50505050905090810190601f1680156107885780820380516001836020036101000a031916815260200191505b50935050505060405180910390f35b610850600480360360208110156107ad57600080fd5b81019080803590602001906401000000008111156107ca57600080fd5b8201836020820111156107dc57600080fd5b803590602001918460018302840111640100000000831117156107fe57600080fd5b91908080601f016020809104026020016040519081016040528093929190818152602001838380828437600081840152601f19601f820116905080830192505050505050509192919290505050611489565b005b61087e6004803603602081101561086857600080fd5b81019080803590602001909291905050506115e0565b604051808273ffffffffffffffffffffffffffffffffffffffff1673ffffffffffffffffffffffffffffffffffffffff16815260200191505060405180910390f35b6108c8611617565b6040518080602001828103825283818151815260200191508051906020019080838360005b838110156109085780820151818401526020810190506108ed565b50505050905090810190601f1680156109355780820380516001836020036101000a031916815260200191505b509250505060405180910390f35b610a846004803603608081101561095957600080fd5b810190808035906020019064010000000081111561097657600080fd5b82018360208201111561098857600080fd5b803590602001918460018302840111640100000000831117156109aa57600080fd5b9091929391929390803590602001906401000000008111156109cb57600080fd5b8201836020820111156109dd57600080fd5b803590602001918460018302840111640100000000831117156109ff57600080fd5b9091929391929390803573ffffffffffffffffffffffffffffffffffffffff16906020019092919080359060200190640100000000811115610a4057600080fd5b820183602082011115610a5257600080fd5b80359060200191846001830284011164010000000083111715610a7457600080fd5b90919293919293905050506116b9565b005b610ac860048036036020811015610a9c57600080fd5b81019080803573ffffffffffffffffffffffffffffffffffffffff16906020019092919050505061183a565b6040518082815260200191505060405180910390f35b610ae661190f565b005b610b1e60048036036040811015610afe57600080fd5b810190808035906020019092919080359060200190929190505050611a7d565b604051808215151515815260200191505060405180910390f35b610b40611aa0565b604051808273ffffffffffffffffffffffffffffffffffffffff1673ffffffffffffffffffffffffffffffffffffffff16815260200191505060405180910390f35b610b8a611ac9565b6040518080602001828103825283818151815260200191508051906020019080838360005b83811015610bca578082015181840152602081019050610baf565b50505050905090810190601f168015610bf75780820380516001836020036101000a031916815260200191505b509250505060405180910390f35b610c5360048036036040811015610c1b57600080fd5b81019080803573ffffffffffffffffffffffffffffffffffffffff169060200190929190803515159060200190929190505050611b6b565b005b610d5860048036036080811015610c6b57600080fd5b81019080803573ffffffffffffffffffffffffffffffffffffffff169060200190929190803573ffffffffffffffffffffffffffffffffffffffff1690602001909291908035906020019092919080359060200190640100000000811115610cd257600080fd5b820183602082011115610ce457600080fd5b80359060200191846001830284011164010000000083111715610d0657600080fd5b91908080601f016020809104026020016040519081016040528093929190818152602001838380828437600081840152601f19601f820116905080830192505050505050509192919290505050611d23565b005b610d8660048036036020811015610d7057600080fd5b8101908080359060200190929190505050611d9b565b6040518080602001828103825283818151815260200191508051906020019080838360005b83811015610dc6578082015181840152602081019050610dab565b50505050905090810190601f168015610df35780820380516001836020036101000a031916815260200191505b509250505060405180910390f35b610e6360048036036040811015610e1757600080fd5b81019080803573ffffffffffffffffffffffffffffffffffffffff169060200190929190803573ffffffffffffffffffffffffffffffffffffffff16906020019092919050505061206c565b604051808215151515815260200191505060405180910390f35b610ebf60048036036020811015610e9357600080fd5b81019080803573ffffffffffffffffffffffffffffffffffffffff169060200190929190505050612100565b005b600060016000837bffffffffffffffffffffffffffffffffffffffffffffffffffffffff19167bffffffffffffffffffffffffffffffffffffffffffffffffffffffff1916815260200190815260200160002060009054906101000a900460ff169050919050565b606060078054600181600116156101000203166002900480601f016020809104026020016040519081016040528092919081815260200182805460018160011615610100020316600290048015610fc15780601f10610f9657610100808354040283529160200191610fc1565b820191906000526020600020905b815481529060010190602001808311610fa457829003601f168201915b5050505050905090565b6000610fd6826122f3565b61102b576040517f08c379a000000000000000000000000000000000000000000000000000000000815260040180806020018281038252602c8152602001806139fe602c913960400191505060405180910390fd5b6005600083815260200190815260200160002060009054906101000a900473ffffffffffffffffffffffffffffffffffffffff169050919050565b6000611071826115e0565b90508073ffffffffffffffffffffffffffffffffffffffff168373ffffffffffffffffffffffffffffffffffffffff1614156110f8576040517f08c379a0000000000000000000000000000000000000000000000000000000008152600401808060200182810382526021815260200180613aae6021913960400191505060405180910390fd5b8073ffffffffffffffffffffffffffffffffffffffff16611117612310565b73ffffffffffffffffffffffffffffffffffffffff161480611146575061114581611140612310565b61206c565b5b61119b576040517f08c379a000000000000000000000000000000000000000000000000000000000815260040180806020018281038252603881526020018061392f6038913960400191505060405180910390fd5b6111a58383612318565b505050565b60405180806139dc602291396022019050604051809103902081565b60006111d260036123d1565b905090565b6111e433858585856123e6565b5050505050565b6111fc6111f6612310565b82612579565b611251576040517f08c379a0000000000000000000000000000000000000000000000000000000008152600401808060200182810382526031815260200180613acf6031913960400191505060405180910390fd5b61125c83838361266d565b505050565b60006112b482600260008673ffffffffffffffffffffffffffffffffffffffff1673ffffffffffffffffffffffffffffffffffffffff1681526020019081526020016000206128b090919063ffffffff16565b905092915050565b6112d783838360405180602001604052806000815250611d23565b505050565b600080826040516020018082805190602001908083835b6020831061131657805182526020820191506020810190506020830392506112f3565b6001836020036101000a0380198251168184511680821785525050505050509050019150506040516020818303038152906040528051906020012090508060405160200180807f19457468657265756d205369676e6564204d6573736167653a0a333200000000815250601c0182815260200191505060405160208183030381529060405280519060200120915050919050565b6000806113c18360036128ca90919063ffffffff16565b50905080915050919050565b600b602052806000526040600020600091509050806000018054600181600116156101000203166002900480601f0160208091040260200160405190810160405280929190818152602001828054600181600116156101000203166002900480156114795780601f1061144e57610100808354040283529160200191611479565b820191906000526020600020905b81548152906001019060200180831161145c57829003601f168201915b5050505050908060010154905082565b611491612310565b73ffffffffffffffffffffffffffffffffffffffff166114af611aa0565b73ffffffffffffffffffffffffffffffffffffffff1614611538576040517f08c379a00000000000000000000000000000000000000000000000000000000081526004018080602001828103825260208152602001807f4f776e61626c653a2063616c6c6572206973206e6f7420746865206f776e657281525060200191505060405180910390fd5b611541816128f9565b7fa1e4fe82e2a65657cfd59fd66da1338be7d996f649643c161b7c24b1de80fca9816040518080602001828103825283818151815260200191508051906020019080838360005b838110156115a3578082015181840152602081019050611588565b50505050905090810190601f1680156115d05780820380516001836020036101000a031916815260200191505b509250505060405180910390a150565b6000611610826040518060600160405280602981526020016139916029913960036129139092919063ffffffff16565b9050919050565b6060600a8054600181600116156101000203166002900480601f0160208091040260200160405190810160405280929190818152602001828054600181600116156101000203166002900480156116af5780601f10611684576101008083540402835291602001916116af565b820191906000526020600020905b81548152906001019060200180831161169257829003601f168201915b5050505050905090565b3073ffffffffffffffffffffffffffffffffffffffff1663095ea7b3846116e3308b8b8b8b6123e6565b6040518363ffffffff1660e01b8152600401808373ffffffffffffffffffffffffffffffffffffffff1673ffffffffffffffffffffffffffffffffffffffff16815260200182815260200192505050600060405180830381600087803b15801561174c57600080fd5b505af1158015611760573d6000803e3d6000fd5b5050505060008373ffffffffffffffffffffffffffffffffffffffff1683836040518083838082843780830192505050925050506000604051808303816000865af19150503d80600081146117d1576040519150601f19603f3d011682016040523d82523d6000602084013e6117d6565b606091505b5050905080611830576040517f08c379a000000000000000000000000000000000000000000000000000000000815260040180806020018281038252602c815260200180613b00602c913960400191505060405180910390fd5b5050505050505050565b60008073ffffffffffffffffffffffffffffffffffffffff168273ffffffffffffffffffffffffffffffffffffffff1614156118c1576040517f08c379a000000000000000000000000000000000000000000000000000000000815260040180806020018281038252602a815260200180613967602a913960400191505060405180910390fd5b611908600260008473ffffffffffffffffffffffffffffffffffffffff1673ffffffffffffffffffffffffffffffffffffffff168152602001908152602001600020612932565b9050919050565b611917612310565b73ffffffffffffffffffffffffffffffffffffffff16611935611aa0565b73ffffffffffffffffffffffffffffffffffffffff16146119be576040517f08c379a00000000000000000000000000000000000000000000000000000000081526004018080602001828103825260208152602001807f4f776e61626c653a2063616c6c6572206973206e6f7420746865206f776e657281525060200191505060405180910390fd5b600073ffffffffffffffffffffffffffffffffffffffff166000809054906101000a900473ffffffffffffffffffffffffffffffffffffffff1673ffffffffffffffffffffffffffffffffffffffff167f8be0079c531659141344cd1fd0a4f28419497f9722a3daafe3b4186f6b6457e060405160405180910390a360008060006101000a81548173ffffffffffffffffffffffffffffffffffffffff021916908373ffffffffffffffffffffffffffffffffffffffff160217905550565b600081600b60008581526020019081526020016000206001015414905092915050565b60008060009054906101000a900473ffffffffffffffffffffffffffffffffffffffff16905090565b606060088054600181600116156101000203166002900480601f016020809104026020016040519081016040528092919081815260200182805460018160011615610100020316600290048015611b615780601f10611b3657610100808354040283529160200191611b61565b820191906000526020600020905b815481529060010190602001808311611b4457829003601f168201915b5050505050905090565b611b73612310565b73ffffffffffffffffffffffffffffffffffffffff168273ffffffffffffffffffffffffffffffffffffffff161415611c14576040517f08c379a00000000000000000000000000000000000000000000000000000000081526004018080602001828103825260198152602001807f4552433732313a20617070726f766520746f2063616c6c65720000000000000081525060200191505060405180910390fd5b8060066000611c21612310565b73ffffffffffffffffffffffffffffffffffffffff1673ffffffffffffffffffffffffffffffffffffffff16815260200190815260200160002060008473ffffffffffffffffffffffffffffffffffffffff1673ffffffffffffffffffffffffffffffffffffffff16815260200190815260200160002060006101000a81548160ff0219169083151502179055508173ffffffffffffffffffffffffffffffffffffffff16611cce612310565b73ffffffffffffffffffffffffffffffffffffffff167f17307eab39ab6107e8899845ad3d59bd9653f200f220920489ca2b5937696c3183604051808215151515815260200191505060405180910390a35050565b611d34611d2e612310565b83612579565b611d89576040517f08c379a0000000000000000000000000000000000000000000000000000000008152600401808060200182810382526031815260200180613acf6031913960400191505060405180910390fd5b611d9584848484612947565b50505050565b6060611da6826122f3565b611dfb576040517f08c379a000000000000000000000000000000000000000000000000000000000815260040180806020018281038252602f815260200180613a7f602f913960400191505060405180910390fd5b6060600960008481526020019081526020016000208054600181600116156101000203166002900480601f016020809104026020016040519081016040528092919081815260200182805460018160011615610100020316600290048015611ea45780601f10611e7957610100808354040283529160200191611ea4565b820191906000526020600020905b815481529060010190602001808311611e8757829003601f168201915b505050505090506060611eb5611617565b9050600081511415611ecb578192505050612067565b600082511115611f9c5780826040516020018083805190602001908083835b60208310611f0d5780518252602082019150602081019050602083039250611eea565b6001836020036101000a03801982511681845116808217855250505050505090500182805190602001908083835b60208310611f5e5780518252602082019150602081019050602083039250611f3b565b6001836020036101000a0380198251168184511680821785525050505050509050019250505060405160208183030381529060405292505050612067565b80611fa6856129b9565b6040516020018083805190602001908083835b60208310611fdc5780518252602082019150602081019050602083039250611fb9565b6001836020036101000a03801982511681845116808217855250505050505090500182805190602001908083835b6020831061202d578051825260208201915060208101905060208303925061200a565b6001836020036101000a03801982511681845116808217855250505050505090500192505050604051602081830303815290604052925050505b919050565b6000600660008473ffffffffffffffffffffffffffffffffffffffff1673ffffffffffffffffffffffffffffffffffffffff16815260200190815260200160002060008373ffffffffffffffffffffffffffffffffffffffff1673ffffffffffffffffffffffffffffffffffffffff16815260200190815260200160002060009054906101000a900460ff16905092915050565b612108612310565b73ffffffffffffffffffffffffffffffffffffffff16612126611aa0565b73ffffffffffffffffffffffffffffffffffffffff16146121af576040517f08c379a00000000000000000000000000000000000000000000000000000000081526004018080602001828103825260208152602001807f4f776e61626c653a2063616c6c6572206973206e6f7420746865206f776e657281525060200191505060405180910390fd5b600073ffffffffffffffffffffffffffffffffffffffff168173ffffffffffffffffffffffffffffffffffffffff161415612235576040517f08c379a00000000000000000000000000000000000000000000000000000000081526004018080602001828103825260268152602001806138936026913960400191505060405180910390fd5b8073ffffffffffffffffffffffffffffffffffffffff166000809054906101000a900473ffffffffffffffffffffffffffffffffffffffff1673ffffffffffffffffffffffffffffffffffffffff167f8be0079c531659141344cd1fd0a4f28419497f9722a3daafe3b4186f6b6457e060405160405180910390a3806000806101000a81548173ffffffffffffffffffffffffffffffffffffffff021916908373ffffffffffffffffffffffffffffffffffffffff16021790555050565b6000612309826003612b0090919063ffffffff16565b9050919050565b600033905090565b816005600083815260200190815260200160002060006101000a81548173ffffffffffffffffffffffffffffffffffffffff021916908373ffffffffffffffffffffffffffffffffffffffff160217905550808273ffffffffffffffffffffffffffffffffffffffff1661238b836115e0565b73ffffffffffffffffffffffffffffffffffffffff167f8c5be1e5ebec7d5bd14f71427d1e84f3dd0314c0f7b2291e5b200ac8c7c3b92560405160405180910390a45050565b60006123df82600001612b1a565b9050919050565b60006123f06111c6565b9050604051806040016040528086868080601f016020809104026020016040519081016040528093929190818152602001838380828437600081840152601f19601f82011690508083019250505050505050815260200161249485858080601f016020809104026020016040519081016040528093929190818152602001838380828437600081840152601f19601f820116905080830192505050505050506112dc565b815250600b600083815260200190815260200160002060008201518160000190805190602001906124c6929190613799565b50602082015181600101559050506124de8682612b2b565b61252c8186868080601f016020809104026020016040519081016040528093929190818152602001838380828437600081840152601f19601f82011690508083019250505050505050612d1f565b808673ffffffffffffffffffffffffffffffffffffffff167fa9a8fc8429e9d4b8fe54b38fd34cb56aaa1a9bf6eb605f45b223b08b58b9761860405160405180910390a395945050505050565b6000612584826122f3565b6125d9576040517f08c379a000000000000000000000000000000000000000000000000000000000815260040180806020018281038252602c815260200180613903602c913960400191505060405180910390fd5b60006125e4836115e0565b90508073ffffffffffffffffffffffffffffffffffffffff168473ffffffffffffffffffffffffffffffffffffffff16148061265357508373ffffffffffffffffffffffffffffffffffffffff1661263b84610fcb565b73ffffffffffffffffffffffffffffffffffffffff16145b806126645750612663818561206c565b5b91505092915050565b8273ffffffffffffffffffffffffffffffffffffffff1661268d826115e0565b73ffffffffffffffffffffffffffffffffffffffff16146126f9576040517f08c379a0000000000000000000000000000000000000000000000000000000008152600401808060200182810382526029815260200180613a566029913960400191505060405180910390fd5b600073ffffffffffffffffffffffffffffffffffffffff168273ffffffffffffffffffffffffffffffffffffffff16141561277f576040517f08c379a00000000000000000000000000000000000000000000000000000000081526004018080602001828103825260248152602001806138b96024913960400191505060405180910390fd5b61278a838383612da9565b612795600082612318565b6127e681600260008673ffffffffffffffffffffffffffffffffffffffff1673ffffffffffffffffffffffffffffffffffffffff168152602001908152602001600020612dae90919063ffffffff16565b5061283881600260008573ffffffffffffffffffffffffffffffffffffffff1673ffffffffffffffffffffffffffffffffffffffff168152602001908152602001600020612dc890919063ffffffff16565b5061284f81836003612de29092919063ffffffff16565b50808273ffffffffffffffffffffffffffffffffffffffff168473ffffffffffffffffffffffffffffffffffffffff167fddf252ad1be2c89b69c2b068fc378daa952ba7f163c4a11628f55a4df523b3ef60405160405180910390a4505050565b60006128bf8360000183612e17565b60001c905092915050565b6000806000806128dd8660000186612e9a565b915091508160001c8160001c8090509350935050509250929050565b80600a908051906020019061290f929190613799565b5050565b6000612926846000018460001b84612f33565b60001c90509392505050565b600061294082600001613029565b9050919050565b61295284848461266d565b61295e8484848461303a565b6129b3576040517f08c379a00000000000000000000000000000000000000000000000000000000081526004018080602001828103825260328152602001806138616032913960400191505060405180910390fd5b50505050565b60606000821415612a01576040518060400160405280600181526020017f30000000000000000000000000000000000000000000000000000000000000008152509050612afb565b600082905060005b60008214612a2b578080600101915050600a8281612a2357fe5b049150612a09565b60608167ffffffffffffffff81118015612a4457600080fd5b506040519080825280601f01601f191660200182016040528015612a775781602001600182028036833780820191505090505b50905060006001830390508593505b60008414612af357600a8481612a9857fe5b0660300160f81b82828060019003935081518110612ab257fe5b60200101907effffffffffffffffffffffffffffffffffffffffffffffffffffffffffffff1916908160001a905350600a8481612aeb57fe5b049350612a86565b819450505050505b919050565b6000612b12836000018360001b61327f565b905092915050565b600081600001805490509050919050565b600073ffffffffffffffffffffffffffffffffffffffff168273ffffffffffffffffffffffffffffffffffffffff161415612bce576040517f08c379a00000000000000000000000000000000000000000000000000000000081526004018080602001828103825260208152602001807f4552433732313a206d696e7420746f20746865207a65726f206164647265737381525060200191505060405180910390fd5b612bd7816122f3565b15612c4a576040517f08c379a000000000000000000000000000000000000000000000000000000000815260040180806020018281038252601c8152602001807f4552433732313a20746f6b656e20616c7265616479206d696e7465640000000081525060200191505060405180910390fd5b612c5660008383612da9565b612ca781600260008573ffffffffffffffffffffffffffffffffffffffff1673ffffffffffffffffffffffffffffffffffffffff168152602001908152602001600020612dc890919063ffffffff16565b50612cbe81836003612de29092919063ffffffff16565b50808273ffffffffffffffffffffffffffffffffffffffff16600073ffffffffffffffffffffffffffffffffffffffff167fddf252ad1be2c89b69c2b068fc378daa952ba7f163c4a11628f55a4df523b3ef60405160405180910390a45050565b612d28826122f3565b612d7d576040517f08c379a000000000000000000000000000000000000000000000000000000000815260040180806020018281038252602c815260200180613a2a602c913960400191505060405180910390fd5b80600960008481526020019081526020016000209080519060200190612da4929190613799565b505050565b505050565b6000612dc0836000018360001b6132a2565b905092915050565b6000612dda836000018360001b61338a565b905092915050565b6000612e0e846000018460001b8473ffffffffffffffffffffffffffffffffffffffff1660001b6133fa565b90509392505050565b600081836000018054905011612e78576040517f08c379a000000000000000000000000000000000000000000000000000000000815260040180806020018281038252602281526020018061383f6022913960400191505060405180910390fd5b826000018281548110612e8757fe5b9060005260206000200154905092915050565b60008082846000018054905011612efc576040517f08c379a00000000000000000000000000000000000000000000000000000000081526004018080602001828103825260228152602001806139ba6022913960400191505060405180910390fd5b6000846000018481548110612f0d57fe5b906000526020600020906002020190508060000154816001015492509250509250929050565b60008084600101600085815260200190815260200160002054905060008114158390612ffa576040517f08c379a00000000000000000000000000000000000000000000000000000000081526004018080602001828103825283818151815260200191508051906020019080838360005b83811015612fbf578082015181840152602081019050612fa4565b50505050905090810190601f168015612fec5780820380516001836020036101000a031916815260200191505b509250505060405180910390fd5b5084600001600182038154811061300d57fe5b9060005260206000209060020201600101549150509392505050565b600081600001805490509050919050565b600061305b8473ffffffffffffffffffffffffffffffffffffffff166134d6565b6130685760019050613277565b60606131fe63150b7a0260e01b61307d612310565b888787604051602401808573ffffffffffffffffffffffffffffffffffffffff1673ffffffffffffffffffffffffffffffffffffffff1681526020018473ffffffffffffffffffffffffffffffffffffffff1673ffffffffffffffffffffffffffffffffffffffff16815260200183815260200180602001828103825283818151815260200191508051906020019080838360005b8381101561312d578082015181840152602081019050613112565b50505050905090810190601f16801561315a5780820380516001836020036101000a031916815260200191505b5095505050505050604051602081830303815290604052907bffffffffffffffffffffffffffffffffffffffffffffffffffffffff19166020820180517bffffffffffffffffffffffffffffffffffffffffffffffffffffffff8381831617835250505050604051806060016040528060328152602001613861603291398773ffffffffffffffffffffffffffffffffffffffff166134e99092919063ffffffff16565b9050600081806020019051602081101561321757600080fd5b8101908080519060200190929190505050905063150b7a0260e01b7bffffffffffffffffffffffffffffffffffffffffffffffffffffffff1916817bffffffffffffffffffffffffffffffffffffffffffffffffffffffff191614925050505b949350505050565b600080836001016000848152602001908152602001600020541415905092915050565b6000808360010160008481526020019081526020016000205490506000811461337e57600060018203905060006001866000018054905003905060008660000182815481106132ed57fe5b906000526020600020015490508087600001848154811061330a57fe5b906000526020600020018190555060018301876001016000838152602001908152602001600020819055508660000180548061334257fe5b60019003818190600052602060002001600090559055866001016000878152602001908152602001600020600090556001945050505050613384565b60009150505b92915050565b60006133968383613501565b6133ef5782600001829080600181540180825580915050600190039060005260206000200160009091909190915055826000018054905083600101600084815260200190815260200160002081905550600190506133f4565b600090505b92915050565b60008084600101600085815260200190815260200160002054905060008114156134a1578460000160405180604001604052808681526020018581525090806001815401808255809150506001900390600052602060002090600202016000909190919091506000820151816000015560208201518160010155505084600001805490508560010160008681526020019081526020016000208190555060019150506134cf565b828560000160018303815481106134b457fe5b90600052602060002090600202016001018190555060009150505b9392505050565b600080823b905060008111915050919050565b60606134f88484600085613524565b90509392505050565b600080836001016000848152602001908152602001600020541415905092915050565b60608247101561357f576040517f08c379a00000000000000000000000000000000000000000000000000000000081526004018080602001828103825260268152602001806138dd6026913960400191505060405180910390fd5b613588856134d6565b6135fa576040517f08c379a000000000000000000000000000000000000000000000000000000000815260040180806020018281038252601d8152602001807f416464726573733a2063616c6c20746f206e6f6e2d636f6e747261637400000081525060200191505060405180910390fd5b600060608673ffffffffffffffffffffffffffffffffffffffff1685876040518082805190602001908083835b6020831061364a5780518252602082019150602081019050602083039250613627565b6001836020036101000a03801982511681845116808217855250505050505090500191505060006040518083038185875af1925050503d80600081146136ac576040519150601f19603f3d011682016040523d82523d6000602084013e6136b1565b606091505b50915091506136c18282866136cd565b92505050949350505050565b606083156136dd57829050613792565b6000835111156136f05782518084602001fd5b816040517f08c379a00000000000000000000000000000000000000000000000000000000081526004018080602001828103825283818151815260200191508051906020019080838360005b8381101561375757808201518184015260208101905061373c565b50505050905090810190601f1680156137845780820380516001836020036101000a031916815260200191505b509250505060405180910390fd5b9392505050565b828054600181600116156101000203166002900490600052602060002090601f016020900481019282601f106137da57805160ff1916838001178555613808565b82800160010185558215613808579182015b828111156138075782518255916020019190600101906137ec565b5b5090506138159190613819565b5090565b61383b91905b8082111561383757600081600090555060010161381f565b5090565b9056fe456e756d657261626c655365743a20696e646578206f7574206f6620626f756e64734552433732313a207472616e7366657220746f206e6f6e20455243373231526563656976657220696d706c656d656e7465724f776e61626c653a206e6577206f776e657220697320746865207a65726f20616464726573734552433732313a207472616e7366657220746f20746865207a65726f2061646472657373416464726573733a20696e73756666696369656e742062616c616e636520666f722063616c6c4552433732313a206f70657261746f7220717565727920666f72206e6f6e6578697374656e7420746f6b656e4552433732313a20617070726f76652063616c6c6572206973206e6f74206f776e6572206e6f7220617070726f76656420666f7220616c6c4552433732313a2062616c616e636520717565727920666f7220746865207a65726f20616464726573734552433732313a206f776e657220717565727920666f72206e6f6e6578697374656e7420746f6b656e456e756d657261626c654d61703a20696e646578206f7574206f6620626f756e647376657269667946696e6765727072696e742875696e743235362c62797465733332294552433732313a20617070726f76656420717565727920666f72206e6f6e6578697374656e7420746f6b656e4552433732314d657461646174613a2055524920736574206f66206e6f6e6578697374656e7420746f6b656e4552433732313a207472616e73666572206f6620746f6b656e2074686174206973206e6f74206f776e4552433732314d657461646174613a2055524920717565727920666f72206e6f6e6578697374656e7420746f6b656e4552433732313a20617070726f76616c20746f2063757272656e74206f776e65724552433732313a207472616e736665722063616c6c6572206973206e6f74206f776e6572206e6f7220617070726f7665644d61726b6574706c6163653a206661696c656420746f2065786563757465207075626c697368206f72646572a2646970667358221220dfe4ca1d3ce3082fb1dabd2941840240bbf4912163401ad2295673471171c7f264736f6c634300060a003376657269667946696e6765727072696e742875696e743235362c6279746573333229",
  "immutableReferences": {},
  "source": "// SPDX-License-Identifier: Apache-2.0\r\n\r\npragma solidity ^0.6.8;\r\n\r\nimport \"@openzeppelin/contracts/access/Ownable.sol\";\r\nimport \"@openzeppelin/contracts/token/ERC721/ERC721.sol\";\r\n\r\ncontract ArtToken is Ownable, ERC721 {\r\n\r\n    event BaseURIChange(string baseURI);\r\n\r\n    event ItemCreated(\r\n        address indexed owner,\r\n        uint256 indexed tokenId\r\n    );\r\n\r\n    struct TokenExtraInfo {\r\n        string metaDataURI;\r\n        bytes32 metaDataHash;\r\n    }\r\n\r\n    mapping (uint256 => TokenExtraInfo) public extraInfoMap;\r\n\r\n    // Used to correctly support fingerprint verification for the assets\r\n    bytes4 public constant _INTERFACE_ID_ERC721_VERIFY_FINGERPRINT = bytes4(\r\n        keccak256(\"verifyFingerprint(uint256,bytes32)\")\r\n    );\r\n\r\n    constructor (\r\n        string memory _name,\r\n        string memory _symbol,\r\n        string memory _baseUri\r\n    )\r\n        public Ownable() ERC721(_name, _symbol)\r\n    {\r\n        setBaseURI(_baseUri);\r\n\r\n        // Registers\r\n        _registerInterface(_INTERFACE_ID_ERC721_VERIFY_FINGERPRINT);\r\n    }\r\n\r\n    /**\r\n     * @dev Sets the base URI for the registry metadata\r\n     * @param _baseUri Address for the fees collector\r\n     */\r\n    function setBaseURI(string memory _baseUri) public onlyOwner {\r\n        _setBaseURI(_baseUri);\r\n        emit BaseURIChange(_baseUri);\r\n    }\r\n\r\n    /**\r\n     * Creates a NFT\r\n     * @param _metaDataURI for the new token\r\n     * @param _metaData metadata JSONified string\r\n     */\r\n    function create(\r\n        string calldata _metaDataURI,\r\n        string calldata _metaData\r\n    )\r\n        external\r\n    {\r\n        _create(msg.sender, _metaDataURI, _metaData);\r\n    }\r\n\r\n    /**\r\n     * Creates a NFT\r\n     * @param _metaDataURI for the new token\r\n     * @param _metaData metadata JSONified string\r\n     * @param _marketplace address\r\n     * @param _encodedCallData of the create call in dst marketplace\r\n     */\r\n    function createPub(\r\n        string calldata _metaDataURI,\r\n        string calldata _metaData,\r\n        address _marketplace,\r\n        bytes calldata _encodedCallData\r\n    )\r\n        external\r\n    {\r\n        // Create the new asset and allow marketplace to manage it\r\n        // Use this to override the msg.sender here.\r\n        this.approve(\r\n            _marketplace,\r\n            _create(address(this), _metaDataURI, _metaData)\r\n        );\r\n\r\n        // execute create order in destination marketplace\r\n        (bool success, ) = _marketplace.call(_encodedCallData);\r\n        require(\r\n            success,\r\n            \"Marketplace: failed to execute publish order\"\r\n        );\r\n    }\r\n\r\n    function _create(\r\n        address _owner,\r\n        string calldata _metaDataURI,\r\n        string calldata _metaData\r\n    )\r\n        internal returns (uint256 tokenId)\r\n    {\r\n        tokenId = totalSupply();\r\n\r\n        /// Save data\r\n        extraInfoMap[tokenId] = TokenExtraInfo({\r\n            metaDataURI: _metaDataURI,\r\n            metaDataHash: getMetaDataHash(_metaData)\r\n        });\r\n\r\n        /// Mint new NFT\r\n        _mint(_owner, tokenId);\r\n        _setTokenURI(tokenId, _metaDataURI);\r\n\r\n        emit ItemCreated(_owner, tokenId);\r\n    }\r\n\r\n    function getMetaDataHash(string memory _metaData) public pure returns (bytes32) {\r\n        bytes32 msgHash = keccak256(abi.encodePacked(_metaData));\r\n\r\n        // return prefixed hash, see: eth_sign()\r\n        return keccak256(\r\n            abi.encodePacked(\"\\x19Ethereum Signed Message:\\n32\", msgHash)\r\n        );\r\n    }\r\n\r\n    function verifyFingerprint(uint256 _tokenId, bytes32 _fingerprint) public view returns (bool) {\r\n        return extraInfoMap[_tokenId].metaDataHash == _fingerprint;\r\n    }\r\n}\r\n",
  "sourcePath": "D:/My Github/nft-marketplace/contracts/ArtToken.sol",
  "compiler": {
    "name": "solc",
    "version": "0.6.10+commit.00c0fcaf.Emscripten.clang"
  },
  "schemaVersion": "3.4.0",
  "updatedAt": "2021-05-12T17:04:48.955Z",
  "devdoc": {
    "methods": {
      "approve(address,uint256)": {
        "details": "See {IERC721-approve}."
      },
      "balanceOf(address)": {
        "details": "See {IERC721-balanceOf}."
      },
      "baseURI()": {
        "details": "Returns the base URI set via {_setBaseURI}. This will be automatically added as a prefix in {tokenURI} to each token's URI, or to the token ID if no specific URI is set for that token ID."
      },
      "create(string,string)": {
        "params": {
          "_metaData": "metadata JSONified string",
          "_metaDataURI": "for the new token"
        }
      },
      "createPub(string,string,address,bytes)": {
        "params": {
          "_encodedCallData": "of the create call in dst marketplace",
          "_marketplace": "address",
          "_metaData": "metadata JSONified string",
          "_metaDataURI": "for the new token"
        }
      },
      "getApproved(uint256)": {
        "details": "See {IERC721-getApproved}."
      },
      "isApprovedForAll(address,address)": {
        "details": "See {IERC721-isApprovedForAll}."
      },
      "name()": {
        "details": "See {IERC721Metadata-name}."
      },
      "owner()": {
        "details": "Returns the address of the current owner."
      },
      "ownerOf(uint256)": {
        "details": "See {IERC721-ownerOf}."
      },
      "renounceOwnership()": {
        "details": "Leaves the contract without owner. It will not be possible to call `onlyOwner` functions anymore. Can only be called by the current owner. NOTE: Renouncing ownership will leave the contract without an owner, thereby removing any functionality that is only available to the owner."
      },
      "safeTransferFrom(address,address,uint256)": {
        "details": "See {IERC721-safeTransferFrom}."
      },
      "safeTransferFrom(address,address,uint256,bytes)": {
        "details": "See {IERC721-safeTransferFrom}."
      },
      "setApprovalForAll(address,bool)": {
        "details": "See {IERC721-setApprovalForAll}."
      },
      "setBaseURI(string)": {
        "details": "Sets the base URI for the registry metadata",
        "params": {
          "_baseUri": "Address for the fees collector"
        }
      },
      "supportsInterface(bytes4)": {
        "details": "See {IERC165-supportsInterface}. Time complexity O(1), guaranteed to always use less than 30 000 gas."
      },
      "symbol()": {
        "details": "See {IERC721Metadata-symbol}."
      },
      "tokenByIndex(uint256)": {
        "details": "See {IERC721Enumerable-tokenByIndex}."
      },
      "tokenOfOwnerByIndex(address,uint256)": {
        "details": "See {IERC721Enumerable-tokenOfOwnerByIndex}."
      },
      "tokenURI(uint256)": {
        "details": "See {IERC721Metadata-tokenURI}."
      },
      "totalSupply()": {
        "details": "See {IERC721Enumerable-totalSupply}."
      },
      "transferFrom(address,address,uint256)": {
        "details": "See {IERC721-transferFrom}."
      },
      "transferOwnership(address)": {
        "details": "Transfers ownership of the contract to a new account (`newOwner`). Can only be called by the current owner."
      }
    }
  },
  "userdoc": {
    "methods": {
      "create(string,string)": {
        "notice": "Creates a NFT"
      },
      "createPub(string,string,address,bytes)": {
        "notice": "Creates a NFT"
      }
    }
  }
}