{
  "contractName": "CManager",
  "abi": [
    {
      "anonymous": false,
      "inputs": [
        {
          "indexed": true,
          "internalType": "address",
          "name": "previousOwner",
          "type": "address"
        },
        {
          "indexed": true,
          "internalType": "address",
          "name": "newOwner",
          "type": "address"
        }
      ],
      "name": "OwnershipTransferred",
      "type": "event"
    },
    {
      "inputs": [],
      "name": "owner",
      "outputs": [
        {
          "internalType": "address",
          "name": "",
          "type": "address"
        }
      ],
      "stateMutability": "view",
      "type": "function"
    },
    {
      "inputs": [],
      "name": "renounceOwnership",
      "outputs": [],
      "stateMutability": "nonpayable",
      "type": "function"
    },
    {
      "inputs": [
        {
          "internalType": "address",
          "name": "newOwner",
          "type": "address"
        }
      ],
      "name": "transferOwnership",
      "outputs": [],
      "stateMutability": "nonpayable",
      "type": "function"
    },
    {
      "inputs": [
        {
          "internalType": "address",
          "name": "_erc20Address",
          "type": "address"
        },
        {
          "internalType": "address",
          "name": "_cErc20Address",
          "type": "address"
        }
      ],
      "name": "setTokenPair",
      "outputs": [],
      "stateMutability": "nonpayable",
      "type": "function"
    },
    {
      "inputs": [
        {
          "internalType": "address",
          "name": "_erc20Address",
          "type": "address"
        }
      ],
      "name": "getMappedToken",
      "outputs": [
        {
          "internalType": "address",
          "name": "",
          "type": "address"
        }
      ],
      "stateMutability": "view",
      "type": "function"
    },
    {
      "inputs": [
        {
          "internalType": "uint256",
          "name": "_amount",
          "type": "uint256"
        }
      ],
      "name": "supplyEth",
      "outputs": [
        {
          "internalType": "uint256",
          "name": "",
          "type": "uint256"
        },
        {
          "internalType": "address",
          "name": "",
          "type": "address"
        }
      ],
      "stateMutability": "payable",
      "type": "function"
    },
    {
      "inputs": [
        {
          "internalType": "address",
          "name": "_erc20Contract",
          "type": "address"
        },
        {
          "internalType": "uint256",
          "name": "_numTokensToSupply",
          "type": "uint256"
        }
      ],
      "name": "supplyErc20",
      "outputs": [
        {
          "internalType": "uint256",
          "name": "",
          "type": "uint256"
        },
        {
          "internalType": "address",
          "name": "",
          "type": "address"
        }
      ],
      "stateMutability": "nonpayable",
      "type": "function"
    },
    {
      "inputs": [
        {
          "internalType": "uint256",
          "name": "_amount",
          "type": "uint256"
        },
        {
          "internalType": "address",
          "name": "_cErc20Contract",
          "type": "address"
        }
      ],
      "name": "redeemCToken",
      "outputs": [],
      "stateMutability": "nonpayable",
      "type": "function"
    }
  ],
  "bytecode": "0x608060405234801561001057600080fd5b5060006100216100c460201b60201c565b9050806000806101000a81548173ffffffffffffffffffffffffffffffffffffffff021916908373ffffffffffffffffffffffffffffffffffffffff1602179055508073ffffffffffffffffffffffffffffffffffffffff16600073ffffffffffffffffffffffffffffffffffffffff167f8be0079c531659141344cd1fd0a4f28419497f9722a3daafe3b4186f6b6457e060405160405180910390a3506100cc565b600033905090565b611433806100db6000396000f3fe60806040526004361061007b5760003560e01c80637688a47d1161004e5780637688a47d146102095780638da5cb5b1461029a578063b517f7cb146102f1578063f2fde38b146103625761007b565b80630a3d65611461008057806314c84f16146100db5780632fc1a6c514610150578063715018a6146101f2575b600080fd5b34801561008c57600080fd5b506100d9600480360360408110156100a357600080fd5b8101908080359060200190929190803573ffffffffffffffffffffffffffffffffffffffff1690602001909291905050506103b3565b005b610107600480360360208110156100f157600080fd5b8101908080359060200190929190505050610546565b604051808381526020018273ffffffffffffffffffffffffffffffffffffffff1673ffffffffffffffffffffffffffffffffffffffff1681526020019250505060405180910390f35b34801561015c57600080fd5b506101a96004803603604081101561017357600080fd5b81019080803573ffffffffffffffffffffffffffffffffffffffff1690602001909291908035906020019092919050505061066d565b604051808381526020018273ffffffffffffffffffffffffffffffffffffffff1673ffffffffffffffffffffffffffffffffffffffff1681526020019250505060405180910390f35b3480156101fe57600080fd5b50610207610845565b005b34801561021557600080fd5b506102586004803603602081101561022c57600080fd5b81019080803573ffffffffffffffffffffffffffffffffffffffff1690602001909291905050506109b3565b604051808273ffffffffffffffffffffffffffffffffffffffff1673ffffffffffffffffffffffffffffffffffffffff16815260200191505060405180910390f35b3480156102a657600080fd5b506102af610a1c565b604051808273ffffffffffffffffffffffffffffffffffffffff1673ffffffffffffffffffffffffffffffffffffffff16815260200191505060405180910390f35b3480156102fd57600080fd5b506103606004803603604081101561031457600080fd5b81019080803573ffffffffffffffffffffffffffffffffffffffff169060200190929190803573ffffffffffffffffffffffffffffffffffffffff169060200190929190505050610a45565b005b34801561036e57600080fd5b506103b16004803603602081101561038557600080fd5b81019080803573ffffffffffffffffffffffffffffffffffffffff169060200190929190505050610b76565b005b600073ffffffffffffffffffffffffffffffffffffffff168173ffffffffffffffffffffffffffffffffffffffff161415610439576040517f08c379a000000000000000000000000000000000000000000000000000000000815260040180806020018281038252602181526020018061138d6021913960400191505060405180910390fd5b60008173ffffffffffffffffffffffffffffffffffffffff1663db006a75846040518263ffffffff1660e01b815260040180828152602001915050602060405180830381600087803b15801561048e57600080fd5b505af11580156104a2573d6000803e3d6000fd5b505050506040513d60208110156104b857600080fd5b8101908080519060200190929190505050905060008114610541576040517f08c379a00000000000000000000000000000000000000000000000000000000081526004018080602001828103825260208152602001807f434d616e616765723a206572726f722063616c6c696e672072656465656d282981525060200191505060405180910390fd5b505050565b600080600061055560006109b3565b9050600073ffffffffffffffffffffffffffffffffffffffff168173ffffffffffffffffffffffffffffffffffffffff1614156105fa576040517f08c379a000000000000000000000000000000000000000000000000000000000815260040180806020018281038252601f8152602001807f434d616e616765723a2061646472657373283029206e6f74206d61707065640081525060200191505060405180910390fd5b8073ffffffffffffffffffffffffffffffffffffffff16631249c58b856203d090906040518363ffffffff1660e01b81526004016000604051808303818589803b15801561064757600080fd5b5088f115801561065b573d6000803e3d6000fd5b50505050505083819250925050915091565b600080600061067b856109b3565b9050600073ffffffffffffffffffffffffffffffffffffffff168173ffffffffffffffffffffffffffffffffffffffff161415610703576040517f08c379a000000000000000000000000000000000000000000000000000000000815260040180806020018281038252602381526020018061136a6023913960400191505060405180910390fd5b61072e81858773ffffffffffffffffffffffffffffffffffffffff16610d699092919063ffffffff16565b60008173ffffffffffffffffffffffffffffffffffffffff1663a0712d68866040518263ffffffff1660e01b815260040180828152602001915050602060405180830381600087803b15801561078357600080fd5b505af1158015610797573d6000803e3d6000fd5b505050506040513d60208110156107ad57600080fd5b8101908080519060200190929190505050905060008114610836576040517f08c379a000000000000000000000000000000000000000000000000000000000815260040180806020018281038252601d8152602001807f434d616e616765723a206572726f72204345726332302e6d696e74282900000081525060200191505060405180910390fd5b84829350935050509250929050565b61084d610f24565b73ffffffffffffffffffffffffffffffffffffffff1661086b610a1c565b73ffffffffffffffffffffffffffffffffffffffff16146108f4576040517f08c379a00000000000000000000000000000000000000000000000000000000081526004018080602001828103825260208152602001807f4f776e61626c653a2063616c6c6572206973206e6f7420746865206f776e657281525060200191505060405180910390fd5b600073ffffffffffffffffffffffffffffffffffffffff166000809054906101000a900473ffffffffffffffffffffffffffffffffffffffff1673ffffffffffffffffffffffffffffffffffffffff167f8be0079c531659141344cd1fd0a4f28419497f9722a3daafe3b4186f6b6457e060405160405180910390a360008060006101000a81548173ffffffffffffffffffffffffffffffffffffffff021916908373ffffffffffffffffffffffffffffffffffffffff160217905550565b6000600160008373ffffffffffffffffffffffffffffffffffffffff1673ffffffffffffffffffffffffffffffffffffffff16815260200190815260200160002060009054906101000a900473ffffffffffffffffffffffffffffffffffffffff169050919050565b60008060009054906101000a900473ffffffffffffffffffffffffffffffffffffffff16905090565b610a4d610f24565b73ffffffffffffffffffffffffffffffffffffffff16610a6b610a1c565b73ffffffffffffffffffffffffffffffffffffffff1614610af4576040517f08c379a00000000000000000000000000000000000000000000000000000000081526004018080602001828103825260208152602001807f4f776e61626c653a2063616c6c6572206973206e6f7420746865206f776e657281525060200191505060405180910390fd5b80600160008473ffffffffffffffffffffffffffffffffffffffff1673ffffffffffffffffffffffffffffffffffffffff16815260200190815260200160002060006101000a81548173ffffffffffffffffffffffffffffffffffffffff021916908373ffffffffffffffffffffffffffffffffffffffff1602179055505050565b610b7e610f24565b73ffffffffffffffffffffffffffffffffffffffff16610b9c610a1c565b73ffffffffffffffffffffffffffffffffffffffff1614610c25576040517f08c379a00000000000000000000000000000000000000000000000000000000081526004018080602001828103825260208152602001807f4f776e61626c653a2063616c6c6572206973206e6f7420746865206f776e657281525060200191505060405180910390fd5b600073ffffffffffffffffffffffffffffffffffffffff168173ffffffffffffffffffffffffffffffffffffffff161415610cab576040517f08c379a00000000000000000000000000000000000000000000000000000000081526004018080602001828103825260268152602001806113446026913960400191505060405180910390fd5b8073ffffffffffffffffffffffffffffffffffffffff166000809054906101000a900473ffffffffffffffffffffffffffffffffffffffff1673ffffffffffffffffffffffffffffffffffffffff167f8be0079c531659141344cd1fd0a4f28419497f9722a3daafe3b4186f6b6457e060405160405180910390a3806000806101000a81548173ffffffffffffffffffffffffffffffffffffffff021916908373ffffffffffffffffffffffffffffffffffffffff16021790555050565b6000610e69828573ffffffffffffffffffffffffffffffffffffffff1663dd62ed3e30876040518363ffffffff1660e01b8152600401808373ffffffffffffffffffffffffffffffffffffffff1673ffffffffffffffffffffffffffffffffffffffff1681526020018273ffffffffffffffffffffffffffffffffffffffff1673ffffffffffffffffffffffffffffffffffffffff1681526020019250505060206040518083038186803b158015610e2057600080fd5b505afa158015610e34573d6000803e3d6000fd5b505050506040513d6020811015610e4a57600080fd5b8101908080519060200190929190505050610f2c90919063ffffffff16565b9050610f1e8463095ea7b360e01b8584604051602401808373ffffffffffffffffffffffffffffffffffffffff1673ffffffffffffffffffffffffffffffffffffffff16815260200182815260200192505050604051602081830303815290604052907bffffffffffffffffffffffffffffffffffffffffffffffffffffffff19166020820180517bffffffffffffffffffffffffffffffffffffffffffffffffffffffff8381831617835250505050610fb4565b50505050565b600033905090565b600080828401905083811015610faa576040517f08c379a000000000000000000000000000000000000000000000000000000000815260040180806020018281038252601b8152602001807f536166654d6174683a206164646974696f6e206f766572666c6f77000000000081525060200191505060405180910390fd5b8091505092915050565b6060611016826040518060400160405280602081526020017f5361666545524332303a206c6f772d6c6576656c2063616c6c206661696c65648152508573ffffffffffffffffffffffffffffffffffffffff166110a39092919063ffffffff16565b905060008151111561109e5780806020019051602081101561103757600080fd5b810190808051906020019092919050505061109d576040517f08c379a000000000000000000000000000000000000000000000000000000000815260040180806020018281038252602a8152602001806113d4602a913960400191505060405180910390fd5b5b505050565b60606110b284846000856110bb565b90509392505050565b606082471015611116576040517f08c379a00000000000000000000000000000000000000000000000000000000081526004018080602001828103825260268152602001806113ae6026913960400191505060405180910390fd5b61111f85611264565b611191576040517f08c379a000000000000000000000000000000000000000000000000000000000815260040180806020018281038252601d8152602001807f416464726573733a2063616c6c20746f206e6f6e2d636f6e747261637400000081525060200191505060405180910390fd5b600060608673ffffffffffffffffffffffffffffffffffffffff1685876040518082805190602001908083835b602083106111e157805182526020820191506020810190506020830392506111be565b6001836020036101000a03801982511681845116808217855250505050505090500191505060006040518083038185875af1925050503d8060008114611243576040519150601f19603f3d011682016040523d82523d6000602084013e611248565b606091505b5091509150611258828286611277565b92505050949350505050565b600080823b905060008111915050919050565b606083156112875782905061133c565b60008351111561129a5782518084602001fd5b816040517f08c379a00000000000000000000000000000000000000000000000000000000081526004018080602001828103825283818151815260200191508051906020019080838360005b838110156113015780820151818401526020810190506112e6565b50505050905090810190601f16801561132e5780820380516001836020036101000a031916815260200191505b509250505060405180910390fd5b939250505056fe4f776e61626c653a206e6577206f776e657220697320746865207a65726f2061646472657373434d616e616765723a205f6572633230436f6e7472616374206e6f74206d6170706564434d616e616765723a205f634572633230436f6e747261637420696e76616c6964416464726573733a20696e73756666696369656e742062616c616e636520666f722063616c6c5361666545524332303a204552433230206f7065726174696f6e20646964206e6f742073756363656564a26469706673582212203e57e46e0a5703a6edbfd1d37a4619d2d661b3b09674b261f56cb4e18b2078aa64736f6c634300060a0033",
  "immutableReferences": {},
  "source": "// SPDX-License-Identifier: Apache-2.0\r\n\r\npragma solidity ^0.6.8;\r\n\r\nimport { CEth, CErc20 } from \"./ICToken.sol\";\r\n\r\nimport \"@openzeppelin/contracts/access/Ownable.sol\";\r\nimport \"@openzeppelin/contracts/token/ERC20/IERC20.sol\";\r\nimport \"@openzeppelin/contracts/token/ERC20/SafeERC20.sol\";\r\n\r\ncontract CManager is Ownable {\r\n\r\n    using SafeERC20 for IERC20;\r\n\r\n    // ropsten\r\n    mapping (address => address) private cTokensMap;\r\n\r\n    function setTokenPair(address _erc20Address, address _cErc20Address) public onlyOwner {\r\n        cTokensMap[_erc20Address] = _cErc20Address;\r\n    }\r\n\r\n    function getMappedToken(address _erc20Address) public view returns (address) {\r\n        return cTokensMap[_erc20Address];\r\n    }\r\n\r\n    function supplyEth(\r\n        uint256 _amount\r\n    )\r\n        public payable returns (uint256, address)\r\n    {\r\n        address cToken = getMappedToken(address(0));\r\n        require(cToken != address(0), 'CManager: address(0) not mapped');\r\n\r\n        // Mint cEthers to caller, reverts on error\r\n        CEth(cToken).mint{ value: _amount, gas: 250000 }();\r\n\r\n        return (_amount, cToken);\r\n    }\r\n\r\n    function supplyErc20(\r\n        address _erc20Contract,\r\n        uint256 _numTokensToSupply\r\n    )\r\n        public returns (uint256, address)\r\n    {\r\n        address cToken = getMappedToken(_erc20Contract);\r\n        require(cToken != address(0), 'CManager: _erc20Contract not mapped');\r\n\r\n        // Approve transfer on the ERC20 contract\r\n        IERC20(_erc20Contract).safeIncreaseAllowance(\r\n            cToken,\r\n            _numTokensToSupply\r\n        );\r\n\r\n        // Mint cTokens\r\n        uint256 mintResult = CErc20(cToken).mint(_numTokensToSupply);\r\n        require(mintResult == 0, \"CManager: error CErc20.mint()\");\r\n\r\n        return (_numTokensToSupply, cToken);\r\n    }\r\n\r\n\r\n    function redeemCToken(uint256 _amount, address _cErc20Contract) public {\r\n        require(_cErc20Contract != address(0), 'CManager: _cErc20Contract invalid');\r\n\r\n        // Create a reference to the corresponding cToken contract\r\n        uint256 redeemResult = CEth(_cErc20Contract)\r\n            .redeem(_amount);\r\n\r\n        require(redeemResult == 0, \"CManager: error calling redeem()\");\r\n    }\r\n}\r\n",
  "sourcePath": "D:/My Github/nft-marketplace/contracts/compound/CManager.sol",
  "compiler": {
    "name": "solc",
    "version": "0.6.10+commit.00c0fcaf.Emscripten.clang"
  },
  "schemaVersion": "3.4.0",
  "updatedAt": "2021-05-12T17:06:16.725Z",
  "devdoc": {
    "methods": {
      "owner()": {
        "details": "Returns the address of the current owner."
      },
      "renounceOwnership()": {
        "details": "Leaves the contract without owner. It will not be possible to call `onlyOwner` functions anymore. Can only be called by the current owner. NOTE: Renouncing ownership will leave the contract without an owner, thereby removing any functionality that is only available to the owner."
      },
      "transferOwnership(address)": {
        "details": "Transfers ownership of the contract to a new account (`newOwner`). Can only be called by the current owner."
      }
    }
  },
  "userdoc": {
    "methods": {}
  }
}