{
  "contractName": "FeeManager",
  "abi": [
    {
      "anonymous": false,
      "inputs": [
        {
          "indexed": false,
          "internalType": "uint256",
          "name": "cutPerMillion",
          "type": "uint256"
        }
      ],
      "name": "ChangedFeePerMillion",
      "type": "event"
    },
    {
      "anonymous": false,
      "inputs": [
        {
          "indexed": true,
          "internalType": "address",
          "name": "previousOwner",
          "type": "address"
        },
        {
          "indexed": true,
          "internalType": "address",
          "name": "newOwner",
          "type": "address"
        }
      ],
      "name": "OwnershipTransferred",
      "type": "event"
    },
    {
      "inputs": [],
      "name": "cutPerMillion",
      "outputs": [
        {
          "internalType": "uint256",
          "name": "",
          "type": "uint256"
        }
      ],
      "stateMutability": "view",
      "type": "function"
    },
    {
      "inputs": [],
      "name": "maxCutPerMillion",
      "outputs": [
        {
          "internalType": "uint256",
          "name": "",
          "type": "uint256"
        }
      ],
      "stateMutability": "view",
      "type": "function"
    },
    {
      "inputs": [],
      "name": "owner",
      "outputs": [
        {
          "internalType": "address",
          "name": "",
          "type": "address"
        }
      ],
      "stateMutability": "view",
      "type": "function"
    },
    {
      "inputs": [],
      "name": "renounceOwnership",
      "outputs": [],
      "stateMutability": "nonpayable",
      "type": "function"
    },
    {
      "inputs": [
        {
          "internalType": "address",
          "name": "newOwner",
          "type": "address"
        }
      ],
      "name": "transferOwnership",
      "outputs": [],
      "stateMutability": "nonpayable",
      "type": "function"
    },
    {
      "inputs": [
        {
          "internalType": "uint256",
          "name": "_cutPerMillion",
          "type": "uint256"
        }
      ],
      "name": "setOwnerCutPerMillion",
      "outputs": [],
      "stateMutability": "nonpayable",
      "type": "function"
    }
  ],
  "bytecode": "0x608060405234801561001057600080fd5b5060006100216100c460201b60201c565b9050806000806101000a81548173ffffffffffffffffffffffffffffffffffffffff021916908373ffffffffffffffffffffffffffffffffffffffff1602179055508073ffffffffffffffffffffffffffffffffffffffff16600073ffffffffffffffffffffffffffffffffffffffff167f8be0079c531659141344cd1fd0a4f28419497f9722a3daafe3b4186f6b6457e060405160405180910390a3506100cc565b600033905090565b6106e7806100db6000396000f3fe608060405234801561001057600080fd5b50600436106100625760003560e01c806319dad16d14610067578063673c855314610095578063715018a6146100b35780638da5cb5b146100bd578063c555e05014610107578063f2fde38b14610125575b600080fd5b6100936004803603602081101561007d57600080fd5b8101908080359060200190929190505050610169565b005b61009d6102b6565b6040518082815260200191505060405180910390f35b6100bb6102bc565b005b6100c561042a565b604051808273ffffffffffffffffffffffffffffffffffffffff1673ffffffffffffffffffffffffffffffffffffffff16815260200191505060405180910390f35b61010f610453565b6040518082815260200191505060405180910390f35b6101676004803603602081101561013b57600080fd5b81019080803573ffffffffffffffffffffffffffffffffffffffff16906020019092919050505061045a565b005b61017161064d565b73ffffffffffffffffffffffffffffffffffffffff1661018f61042a565b73ffffffffffffffffffffffffffffffffffffffff1614610218576040517f08c379a00000000000000000000000000000000000000000000000000000000081526004018080602001828103825260208152602001807f4f776e61626c653a2063616c6c6572206973206e6f7420746865206f776e657281525060200191505060405180910390fd5b620186a08110610273576040517f08c379a000000000000000000000000000000000000000000000000000000000815260040180806020018281038252603681526020018061067c6036913960400191505060405180910390fd5b806001819055507fdb629698afb23c88e17ec4d29f97b3907c3e1fbfd116fa15f97569c7c16b3e4d6001546040518082815260200191505060405180910390a150565b60015481565b6102c461064d565b73ffffffffffffffffffffffffffffffffffffffff166102e261042a565b73ffffffffffffffffffffffffffffffffffffffff161461036b576040517f08c379a00000000000000000000000000000000000000000000000000000000081526004018080602001828103825260208152602001807f4f776e61626c653a2063616c6c6572206973206e6f7420746865206f776e657281525060200191505060405180910390fd5b600073ffffffffffffffffffffffffffffffffffffffff166000809054906101000a900473ffffffffffffffffffffffffffffffffffffffff1673ffffffffffffffffffffffffffffffffffffffff167f8be0079c531659141344cd1fd0a4f28419497f9722a3daafe3b4186f6b6457e060405160405180910390a360008060006101000a81548173ffffffffffffffffffffffffffffffffffffffff021916908373ffffffffffffffffffffffffffffffffffffffff160217905550565b60008060009054906101000a900473ffffffffffffffffffffffffffffffffffffffff16905090565b620186a081565b61046261064d565b73ffffffffffffffffffffffffffffffffffffffff1661048061042a565b73ffffffffffffffffffffffffffffffffffffffff1614610509576040517f08c379a00000000000000000000000000000000000000000000000000000000081526004018080602001828103825260208152602001807f4f776e61626c653a2063616c6c6572206973206e6f7420746865206f776e657281525060200191505060405180910390fd5b600073ffffffffffffffffffffffffffffffffffffffff168173ffffffffffffffffffffffffffffffffffffffff16141561058f576040517f08c379a00000000000000000000000000000000000000000000000000000000081526004018080602001828103825260268152602001806106566026913960400191505060405180910390fd5b8073ffffffffffffffffffffffffffffffffffffffff166000809054906101000a900473ffffffffffffffffffffffffffffffffffffffff1673ffffffffffffffffffffffffffffffffffffffff167f8be0079c531659141344cd1fd0a4f28419497f9722a3daafe3b4186f6b6457e060405160405180910390a3806000806101000a81548173ffffffffffffffffffffffffffffffffffffffff021916908373ffffffffffffffffffffffffffffffffffffffff16021790555050565b60003390509056fe4f776e61626c653a206e6577206f776e657220697320746865207a65726f2061646472657373546865206f776e6572206375742073686f756c64206265206265747765656e203020616e64206d61784375745065724d696c6c696f6ea26469706673582212205de1bcc2c63e899acdecde8d6c15080c813185e38a1d16d86695ff152a82d12864736f6c634300060a0033",
  "immutableReferences": {},
  "source": "// SPDX-License-Identifier: Apache-2.0\r\n\r\npragma solidity ^0.6.8;\r\n\r\nimport \"@openzeppelin/contracts/access/Ownable.sol\";\r\n\r\n\r\ncontract FeeManager is Ownable {\r\n\r\n    event ChangedFeePerMillion(uint256 cutPerMillion);\r\n\r\n    // Market fee on sales\r\n    uint256 public cutPerMillion;\r\n    uint256 public constant maxCutPerMillion = 100000; // 10% cut\r\n\r\n    /**\r\n     * @dev Sets the share cut for the owner of the contract that's\r\n     *  charged to the seller on a successful sale\r\n     * @param _cutPerMillion - Share amount, from 0 to 99,999\r\n     */\r\n    function setOwnerCutPerMillion(uint256 _cutPerMillion) external onlyOwner {\r\n        require(\r\n            _cutPerMillion < maxCutPerMillion,\r\n            \"The owner cut should be between 0 and maxCutPerMillion\"\r\n        );\r\n\r\n        cutPerMillion = _cutPerMillion;\r\n        emit ChangedFeePerMillion(cutPerMillion);\r\n    }\r\n}\r\n",
  "sourcePath": "D:/My Github/nft-marketplace/contracts/FeeManager.sol",
  "compiler": {
    "name": "solc",
    "version": "0.6.10+commit.00c0fcaf.Emscripten.clang"
  },
  "schemaVersion": "3.4.0",
  "updatedAt": "2021-05-12T17:06:16.689Z",
  "devdoc": {
    "methods": {
      "owner()": {
        "details": "Returns the address of the current owner."
      },
      "renounceOwnership()": {
        "details": "Leaves the contract without owner. It will not be possible to call `onlyOwner` functions anymore. Can only be called by the current owner. NOTE: Renouncing ownership will leave the contract without an owner, thereby removing any functionality that is only available to the owner."
      },
      "setOwnerCutPerMillion(uint256)": {
        "details": "Sets the share cut for the owner of the contract that's  charged to the seller on a successful sale",
        "params": {
          "_cutPerMillion": "- Share amount, from 0 to 99,999"
        }
      },
      "transferOwnership(address)": {
        "details": "Transfers ownership of the contract to a new account (`newOwner`). Can only be called by the current owner."
      }
    }
  },
  "userdoc": {
    "methods": {}
  }
}