{
  "contractName": "Marketplace",
  "abi": [
    {
      "inputs": [
        {
          "internalType": "address",
          "name": "_acceptedToken",
          "type": "address"
        }
      ],
      "stateMutability": "nonpayable",
      "type": "constructor"
    },
    {
      "anonymous": false,
      "inputs": [
        {
          "indexed": false,
          "internalType": "bytes32",
          "name": "id",
          "type": "bytes32"
        }
      ],
      "name": "BidAccepted",
      "type": "event"
    },
    {
      "anonymous": false,
      "inputs": [
        {
          "indexed": false,
          "internalType": "bytes32",
          "name": "id",
          "type": "bytes32"
        }
      ],
      "name": "BidCancelled",
      "type": "event"
    },
    {
      "anonymous": false,
      "inputs": [
        {
          "indexed": false,
          "internalType": "bytes32",
          "name": "id",
          "type": "bytes32"
        },
        {
          "indexed": true,
          "internalType": "address",
          "name": "nftAddress",
          "type": "address"
        },
        {
          "indexed": true,
          "internalType": "uint256",
          "name": "assetId",
          "type": "uint256"
        },
        {
          "indexed": true,
          "internalType": "address",
          "name": "bidder",
          "type": "address"
        },
        {
          "indexed": false,
          "internalType": "uint256",
          "name": "priceInWei",
          "type": "uint256"
        },
        {
          "indexed": false,
          "internalType": "uint256",
          "name": "expiresAt",
          "type": "uint256"
        }
      ],
      "name": "BidCreated",
      "type": "event"
    },
    {
      "anonymous": false,
      "inputs": [
        {
          "indexed": false,
          "internalType": "uint256",
          "name": "cutPerMillion",
          "type": "uint256"
        }
      ],
      "name": "ChangedFeePerMillion",
      "type": "event"
    },
    {
      "anonymous": false,
      "inputs": [
        {
          "indexed": false,
          "internalType": "bytes32",
          "name": "id",
          "type": "bytes32"
        }
      ],
      "name": "OrderCancelled",
      "type": "event"
    },
    {
      "anonymous": false,
      "inputs": [
        {
          "indexed": false,
          "internalType": "bytes32",
          "name": "id",
          "type": "bytes32"
        },
        {
          "indexed": true,
          "internalType": "address",
          "name": "seller",
          "type": "address"
        },
        {
          "indexed": true,
          "internalType": "address",
          "name": "nftAddress",
          "type": "address"
        },
        {
          "indexed": true,
          "internalType": "uint256",
          "name": "assetId",
          "type": "uint256"
        },
        {
          "indexed": false,
          "internalType": "uint256",
          "name": "priceInWei",
          "type": "uint256"
        },
        {
          "indexed": false,
          "internalType": "uint256",
          "name": "expiresAt",
          "type": "uint256"
        }
      ],
      "name": "OrderCreated",
      "type": "event"
    },
    {
      "anonymous": false,
      "inputs": [
        {
          "indexed": false,
          "internalType": "bytes32",
          "name": "id",
          "type": "bytes32"
        },
        {
          "indexed": true,
          "internalType": "address",
          "name": "buyer",
          "type": "address"
        },
        {
          "indexed": false,
          "internalType": "uint256",
          "name": "priceInWei",
          "type": "uint256"
        }
      ],
      "name": "OrderSuccessful",
      "type": "event"
    },
    {
      "anonymous": false,
      "inputs": [
        {
          "indexed": false,
          "internalType": "bytes32",
          "name": "id",
          "type": "bytes32"
        },
        {
          "indexed": false,
          "internalType": "uint256",
          "name": "priceInWei",
          "type": "uint256"
        },
        {
          "indexed": false,
          "internalType": "uint256",
          "name": "expiresAt",
          "type": "uint256"
        }
      ],
      "name": "OrderUpdated",
      "type": "event"
    },
    {
      "anonymous": false,
      "inputs": [
        {
          "indexed": true,
          "internalType": "address",
          "name": "previousOwner",
          "type": "address"
        },
        {
          "indexed": true,
          "internalType": "address",
          "name": "newOwner",
          "type": "address"
        }
      ],
      "name": "OwnershipTransferred",
      "type": "event"
    },
    {
      "anonymous": false,
      "inputs": [
        {
          "indexed": false,
          "internalType": "address",
          "name": "account",
          "type": "address"
        }
      ],
      "name": "Paused",
      "type": "event"
    },
    {
      "anonymous": false,
      "inputs": [
        {
          "indexed": false,
          "internalType": "address",
          "name": "account",
          "type": "address"
        }
      ],
      "name": "Unpaused",
      "type": "event"
    },
    {
      "inputs": [],
      "name": "_INTERFACE_ID_ERC721",
      "outputs": [
        {
          "internalType": "bytes4",
          "name": "",
          "type": "bytes4"
        }
      ],
      "stateMutability": "view",
      "type": "function"
    },
    {
      "inputs": [],
      "name": "acceptedToken",
      "outputs": [
        {
          "internalType": "contract IERC20",
          "name": "",
          "type": "address"
        }
      ],
      "stateMutability": "view",
      "type": "function"
    },
    {
      "inputs": [
        {
          "internalType": "address",
          "name": "",
          "type": "address"
        },
        {
          "internalType": "uint256",
          "name": "",
          "type": "uint256"
        }
      ],
      "name": "bidByOrderId",
      "outputs": [
        {
          "internalType": "bytes32",
          "name": "id",
          "type": "bytes32"
        },
        {
          "internalType": "address",
          "name": "bidder",
          "type": "address"
        },
        {
          "internalType": "uint256",
          "name": "price",
          "type": "uint256"
        },
        {
          "internalType": "uint256",
          "name": "expiresAt",
          "type": "uint256"
        }
      ],
      "stateMutability": "view",
      "type": "function"
    },
    {
      "inputs": [],
      "name": "cutPerMillion",
      "outputs": [
        {
          "internalType": "uint256",
          "name": "",
          "type": "uint256"
        }
      ],
      "stateMutability": "view",
      "type": "function"
    },
    {
      "inputs": [],
      "name": "maxCutPerMillion",
      "outputs": [
        {
          "internalType": "uint256",
          "name": "",
          "type": "uint256"
        }
      ],
      "stateMutability": "view",
      "type": "function"
    },
    {
      "inputs": [
        {
          "internalType": "address",
          "name": "",
          "type": "address"
        },
        {
          "internalType": "address",
          "name": "",
          "type": "address"
        },
        {
          "internalType": "uint256",
          "name": "",
          "type": "uint256"
        },
        {
          "internalType": "bytes",
          "name": "",
          "type": "bytes"
        }
      ],
      "name": "onERC721Received",
      "outputs": [
        {
          "internalType": "bytes4",
          "name": "",
          "type": "bytes4"
        }
      ],
      "stateMutability": "nonpayable",
      "type": "function"
    },
    {
      "inputs": [
        {
          "internalType": "address",
          "name": "",
          "type": "address"
        },
        {
          "internalType": "uint256",
          "name": "",
          "type": "uint256"
        }
      ],
      "name": "orderByAssetId",
      "outputs": [
        {
          "internalType": "bytes32",
          "name": "id",
          "type": "bytes32"
        },
        {
          "internalType": "address",
          "name": "seller",
          "type": "address"
        },
        {
          "internalType": "address",
          "name": "nftAddress",
          "type": "address"
        },
        {
          "internalType": "uint256",
          "name": "price",
          "type": "uint256"
        },
        {
          "internalType": "uint256",
          "name": "expiresAt",
          "type": "uint256"
        }
      ],
      "stateMutability": "view",
      "type": "function"
    },
    {
      "inputs": [],
      "name": "owner",
      "outputs": [
        {
          "internalType": "address",
          "name": "",
          "type": "address"
        }
      ],
      "stateMutability": "view",
      "type": "function"
    },
    {
      "inputs": [],
      "name": "paused",
      "outputs": [
        {
          "internalType": "bool",
          "name": "",
          "type": "bool"
        }
      ],
      "stateMutability": "view",
      "type": "function"
    },
    {
      "inputs": [],
      "name": "renounceOwnership",
      "outputs": [],
      "stateMutability": "nonpayable",
      "type": "function"
    },
    {
      "inputs": [
        {
          "internalType": "uint256",
          "name": "_cutPerMillion",
          "type": "uint256"
        }
      ],
      "name": "setOwnerCutPerMillion",
      "outputs": [],
      "stateMutability": "nonpayable",
      "type": "function"
    },
    {
      "inputs": [
        {
          "internalType": "address",
          "name": "newOwner",
          "type": "address"
        }
      ],
      "name": "transferOwnership",
      "outputs": [],
      "stateMutability": "nonpayable",
      "type": "function"
    },
    {
      "inputs": [
        {
          "internalType": "bool",
          "name": "_setPaused",
          "type": "bool"
        }
      ],
      "name": "setPaused",
      "outputs": [],
      "stateMutability": "nonpayable",
      "type": "function"
    },
    {
      "inputs": [
        {
          "internalType": "address",
          "name": "_nftAddress",
          "type": "address"
        },
        {
          "internalType": "uint256",
          "name": "_assetId",
          "type": "uint256"
        },
        {
          "internalType": "uint256",
          "name": "_priceInWei",
          "type": "uint256"
        },
        {
          "internalType": "uint256",
          "name": "_expiresAt",
          "type": "uint256"
        }
      ],
      "name": "createOrder",
      "outputs": [],
      "stateMutability": "nonpayable",
      "type": "function"
    },
    {
      "inputs": [
        {
          "internalType": "address",
          "name": "_nftAddress",
          "type": "address"
        },
        {
          "internalType": "uint256",
          "name": "_assetId",
          "type": "uint256"
        }
      ],
      "name": "cancelOrder",
      "outputs": [],
      "stateMutability": "nonpayable",
      "type": "function"
    },
    {
      "inputs": [
        {
          "internalType": "address",
          "name": "_nftAddress",
          "type": "address"
        },
        {
          "internalType": "uint256",
          "name": "_assetId",
          "type": "uint256"
        },
        {
          "internalType": "uint256",
          "name": "_priceInWei",
          "type": "uint256"
        },
        {
          "internalType": "uint256",
          "name": "_expiresAt",
          "type": "uint256"
        }
      ],
      "name": "updateOrder",
      "outputs": [],
      "stateMutability": "nonpayable",
      "type": "function"
    },
    {
      "inputs": [
        {
          "internalType": "address",
          "name": "_nftAddress",
          "type": "address"
        },
        {
          "internalType": "uint256",
          "name": "_assetId",
          "type": "uint256"
        },
        {
          "internalType": "uint256",
          "name": "_priceInWei",
          "type": "uint256"
        },
        {
          "internalType": "bytes32",
          "name": "_fingerprint",
          "type": "bytes32"
        }
      ],
      "name": "safeExecuteOrder",
      "outputs": [],
      "stateMutability": "nonpayable",
      "type": "function"
    },
    {
      "inputs": [
        {
          "internalType": "address",
          "name": "_nftAddress",
          "type": "address"
        },
        {
          "internalType": "uint256",
          "name": "_assetId",
          "type": "uint256"
        },
        {
          "internalType": "uint256",
          "name": "_priceInWei",
          "type": "uint256"
        },
        {
          "internalType": "uint256",
          "name": "_expiresAt",
          "type": "uint256"
        },
        {
          "internalType": "bytes32",
          "name": "_fingerprint",
          "type": "bytes32"
        }
      ],
      "name": "safePlaceBid",
      "outputs": [],
      "stateMutability": "nonpayable",
      "type": "function"
    },
    {
      "inputs": [
        {
          "internalType": "address",
          "name": "_nftAddress",
          "type": "address"
        },
        {
          "internalType": "uint256",
          "name": "_assetId",
          "type": "uint256"
        }
      ],
      "name": "cancelBid",
      "outputs": [],
      "stateMutability": "nonpayable",
      "type": "function"
    },
    {
      "inputs": [
        {
          "internalType": "address",
          "name": "_nftAddress",
          "type": "address"
        },
        {
          "internalType": "uint256",
          "name": "_assetId",
          "type": "uint256"
        },
        {
          "internalType": "uint256",
          "name": "_priceInWei",
          "type": "uint256"
        }
      ],
      "name": "acceptBid",
      "outputs": [],
      "stateMutability": "nonpayable",
      "type": "function"
    }
  ],
  "bytecode": "0x60806040523480156200001157600080fd5b50604051620045a2380380620045a2833981810160405260208110156200003757600080fd5b810190808051906020019092919050505060006200005a620001dd60201b60201c565b9050806000806101000a81548173ffffffffffffffffffffffffffffffffffffffff021916908373ffffffffffffffffffffffffffffffffffffffff1602179055508073ffffffffffffffffffffffffffffffffffffffff16600073ffffffffffffffffffffffffffffffffffffffff167f8be0079c531659141344cd1fd0a4f28419497f9722a3daafe3b4186f6b6457e060405160405180910390a35060008060146101000a81548160ff0219169083151502179055506200013e8173ffffffffffffffffffffffffffffffffffffffff16620001e560201b6200234d1760201c565b62000195576040517f08c379a00000000000000000000000000000000000000000000000000000000081526004018080602001828103825260368152602001806200456c6036913960400191505060405180910390fd5b80600260006101000a81548173ffffffffffffffffffffffffffffffffffffffff021916908373ffffffffffffffffffffffffffffffffffffffff16021790555050620001f8565b600033905090565b600080823b905060008111915050919050565b61436480620002086000396000f3fe608060405234801561001057600080fd5b506004361061012c5760003560e01c8063715018a6116100ad578063cf7ce01f11610071578063cf7ce01f14610651578063dece6854146106b3578063e13a40f01461070f578063e61f385114610767578063f2fde38b1461083d5761012c565b8063715018a6146104d05780638da5cb5b146104da578063c555e05014610524578063cc1f92af14610542578063cd08bfe1146105ae5761012c565b8063451c3d80116100f4578063451c3d80146103965780635c975abb146103e0578063673c8553146104025780636a206137146104205780636f652e1a1461046e5761012c565b8063150b7a021461013157806316c38b3c1461028857806319dad16d146102b8578063374f2e14146102e657806339b6b1e514610348575b600080fd5b6102346004803603608081101561014757600080fd5b81019080803573ffffffffffffffffffffffffffffffffffffffff169060200190929190803573ffffffffffffffffffffffffffffffffffffffff16906020019092919080359060200190929190803590602001906401000000008111156101ae57600080fd5b8201836020820111156101c057600080fd5b803590602001918460018302840111640100000000831117156101e257600080fd5b91908080601f016020809104026020016040519081016040528093929190818152602001838380828437600081840152601f19601f820116905080830192505050505050509192919290505050610881565b60405180827bffffffffffffffffffffffffffffffffffffffffffffffffffffffff19167bffffffffffffffffffffffffffffffffffffffffffffffffffffffff1916815260200191505060405180910390f35b6102b66004803603602081101561029e57600080fd5b81019080803515159060200190929190505050610895565b005b6102e4600480360360208110156102ce57600080fd5b8101908080359060200190929190505050610962565b005b610346600480360360808110156102fc57600080fd5b81019080803573ffffffffffffffffffffffffffffffffffffffff169060200190929190803590602001909291908035906020019092919080359060200190929190505050610aaf565b005b6103946004803603604081101561035e57600080fd5b81019080803573ffffffffffffffffffffffffffffffffffffffff16906020019092919080359060200190929190505050610e7f565b005b61039e6110d3565b604051808273ffffffffffffffffffffffffffffffffffffffff1673ffffffffffffffffffffffffffffffffffffffff16815260200191505060405180910390f35b6103e86110f9565b604051808215151515815260200191505060405180910390f35b61040a61110f565b6040518082815260200191505060405180910390f35b61046c6004803603604081101561043657600080fd5b81019080803573ffffffffffffffffffffffffffffffffffffffff16906020019092919080359060200190929190505050611115565b005b6104ce6004803603608081101561048457600080fd5b81019080803573ffffffffffffffffffffffffffffffffffffffff1690602001909291908035906020019092919080359060200190929190803590602001909291905050506114b8565b005b6104d8611545565b005b6104e26116b3565b604051808273ffffffffffffffffffffffffffffffffffffffff1673ffffffffffffffffffffffffffffffffffffffff16815260200191505060405180910390f35b61052c6116dc565b6040518082815260200191505060405180910390f35b6105ac600480360360a081101561055857600080fd5b81019080803573ffffffffffffffffffffffffffffffffffffffff169060200190929190803590602001909291908035906020019092919080359060200190929190803590602001909291905050506116e3565b005b6105fa600480360360408110156105c457600080fd5b81019080803573ffffffffffffffffffffffffffffffffffffffff1690602001909291908035906020019092919050505061177c565b604051808581526020018473ffffffffffffffffffffffffffffffffffffffff1673ffffffffffffffffffffffffffffffffffffffff16815260200183815260200182815260200194505050505060405180910390f35b6106b16004803603608081101561066757600080fd5b81019080803573ffffffffffffffffffffffffffffffffffffffff1690602001909291908035906020019092919080359060200190929190803590602001909291905050506117d9565b005b6106bb611c49565b60405180827bffffffffffffffffffffffffffffffffffffffffffffffffffffffff19167bffffffffffffffffffffffffffffffffffffffffffffffffffffffff1916815260200191505060405180910390f35b6107656004803603606081101561072557600080fd5b81019080803573ffffffffffffffffffffffffffffffffffffffff1690602001909291908035906020019092919080359060200190929190505050611c54565b005b6107b36004803603604081101561077d57600080fd5b81019080803573ffffffffffffffffffffffffffffffffffffffff169060200190929190803590602001909291905050506120d7565b604051808681526020018573ffffffffffffffffffffffffffffffffffffffff1673ffffffffffffffffffffffffffffffffffffffff1681526020018473ffffffffffffffffffffffffffffffffffffffff1673ffffffffffffffffffffffffffffffffffffffff1681526020018381526020018281526020019550505050505060405180910390f35b61087f6004803603602081101561085357600080fd5b81019080803573ffffffffffffffffffffffffffffffffffffffff16906020019092919050505061215a565b005b600063150b7a0260e01b9050949350505050565b61089d612360565b73ffffffffffffffffffffffffffffffffffffffff166108bb6116b3565b73ffffffffffffffffffffffffffffffffffffffff1614610944576040517f08c379a00000000000000000000000000000000000000000000000000000000081526004018080602001828103825260208152602001807f4f776e61626c653a2063616c6c6572206973206e6f7420746865206f776e657281525060200191505060405180910390fd5b8061095657610951612368565b61095f565b61095e612468565b5b50565b61096a612360565b73ffffffffffffffffffffffffffffffffffffffff166109886116b3565b73ffffffffffffffffffffffffffffffffffffffff1614610a11576040517f08c379a00000000000000000000000000000000000000000000000000000000081526004018080602001828103825260208152602001807f4f776e61626c653a2063616c6c6572206973206e6f7420746865206f776e657281525060200191505060405180910390fd5b620186a08110610a6c576040517f08c379a00000000000000000000000000000000000000000000000000000000081526004018080602001828103825260368152602001806142f96036913960400191505060405180910390fd5b806001819055507fdb629698afb23c88e17ec4d29f97b3907c3e1fbfd116fa15f97569c7c16b3e4d6001546040518082815260200191505060405180910390a150565b610ab76110f9565b15610b2a576040517f08c379a00000000000000000000000000000000000000000000000000000000081526004018080602001828103825260108152602001807f5061757361626c653a207061757365640000000000000000000000000000000081525060200191505060405180910390fd5b610b32614026565b610b3c858561256a565b905082816060015114610bb7576040517f08c379a000000000000000000000000000000000000000000000000000000000815260040180806020018281038252601a8152602001807f4d61726b6574706c6163653a20696e76616c696420707269636500000000000081525060200191505060405180910390fd5b3373ffffffffffffffffffffffffffffffffffffffff16816020015173ffffffffffffffffffffffffffffffffffffffff161415610c5d576040517f08c379a00000000000000000000000000000000000000000000000000000000081526004018080602001828103825260208152602001807f4d61726b6574706c6163653a20756e617574686f72697a65642073656e64657281525060200191505060405180910390fd5b610c68858584612796565b600080905060006001541115610cfb57610ca2620f4240610c946001548761288490919063ffffffff16565b61290a90919063ffffffff16565b9050610cfa33610cb06116b3565b83600260009054906101000a900473ffffffffffffffffffffffffffffffffffffffff1673ffffffffffffffffffffffffffffffffffffffff16612993909392919063ffffffff16565b5b610d64338360200151610d1b848660600151612a8090919063ffffffff16565b600260009054906101000a900473ffffffffffffffffffffffffffffffffffffffff1673ffffffffffffffffffffffffffffffffffffffff16612993909392919063ffffffff16565b610d6c614084565b600460008873ffffffffffffffffffffffffffffffffffffffff1673ffffffffffffffffffffffffffffffffffffffff1681526020019081526020016000206000878152602001908152602001600020604051806080016040529081600082015481526020016001820160009054906101000a900473ffffffffffffffffffffffffffffffffffffffff1673ffffffffffffffffffffffffffffffffffffffff1673ffffffffffffffffffffffffffffffffffffffff1681526020016002820154815260200160038201548152505090506000801b816000015114610e6557610e648160000151888884602001518560400151612b03565b5b610e76836000015133898989612c20565b50505050505050565b610e876110f9565b15610efa576040517f08c379a00000000000000000000000000000000000000000000000000000000081526004018080602001828103825260108152602001807f5061757361626c653a207061757365640000000000000000000000000000000081525060200191505060405180910390fd5b610f02614084565b600460008473ffffffffffffffffffffffffffffffffffffffff1673ffffffffffffffffffffffffffffffffffffffff1681526020019081526020016000206000838152602001908152602001600020604051806080016040529081600082015481526020016001820160009054906101000a900473ffffffffffffffffffffffffffffffffffffffff1673ffffffffffffffffffffffffffffffffffffffff1673ffffffffffffffffffffffffffffffffffffffff1681526020016002820154815260200160038201548152505090503373ffffffffffffffffffffffffffffffffffffffff16816020015173ffffffffffffffffffffffffffffffffffffffff16148061104357506110146116b3565b73ffffffffffffffffffffffffffffffffffffffff163373ffffffffffffffffffffffffffffffffffffffff16145b6110b5576040517f08c379a00000000000000000000000000000000000000000000000000000000081526004018080602001828103825260208152602001807f4d61726b6574706c6163653a20556e617574686f72697a65642073656e64657281525060200191505060405180910390fd5b6110ce8160000151848484602001518560400151612b03565b505050565b600260009054906101000a900473ffffffffffffffffffffffffffffffffffffffff1681565b60008060149054906101000a900460ff16905090565b60015481565b61111d6110f9565b15611190576040517f08c379a00000000000000000000000000000000000000000000000000000000081526004018080602001828103825260108152602001807f5061757361626c653a207061757365640000000000000000000000000000000081525060200191505060405180910390fd5b611198614026565b600360008473ffffffffffffffffffffffffffffffffffffffff1673ffffffffffffffffffffffffffffffffffffffff16815260200190815260200160002060008381526020019081526020016000206040518060a0016040529081600082015481526020016001820160009054906101000a900473ffffffffffffffffffffffffffffffffffffffff1673ffffffffffffffffffffffffffffffffffffffff1673ffffffffffffffffffffffffffffffffffffffff1681526020016002820160009054906101000a900473ffffffffffffffffffffffffffffffffffffffff1673ffffffffffffffffffffffffffffffffffffffff1673ffffffffffffffffffffffffffffffffffffffff1681526020016003820154815260200160048201548152505090503373ffffffffffffffffffffffffffffffffffffffff16816020015173ffffffffffffffffffffffffffffffffffffffff16148061132f57506113006116b3565b73ffffffffffffffffffffffffffffffffffffffff163373ffffffffffffffffffffffffffffffffffffffff16145b6113a1576040517f08c379a00000000000000000000000000000000000000000000000000000000081526004018080602001828103825260208152602001807f4d61726b6574706c6163653a20756e617574686f72697a65642073656e64657281525060200191505060405180910390fd5b6113a9614084565b600460008573ffffffffffffffffffffffffffffffffffffffff1673ffffffffffffffffffffffffffffffffffffffff1681526020019081526020016000206000848152602001908152602001600020604051806080016040529081600082015481526020016001820160009054906101000a900473ffffffffffffffffffffffffffffffffffffffff1673ffffffffffffffffffffffffffffffffffffffff1673ffffffffffffffffffffffffffffffffffffffff1681526020016002820154815260200160038201548152505090506000801b8160000151146114a2576114a18160000151858584602001518560400151612b03565b5b6114b28260000151858533612e09565b50505050565b6114c06110f9565b15611533576040517f08c379a00000000000000000000000000000000000000000000000000000000081526004018080602001828103825260108152602001807f5061757361626c653a207061757365640000000000000000000000000000000081525060200191505060405180910390fd5b61153f84848484612fd2565b50505050565b61154d612360565b73ffffffffffffffffffffffffffffffffffffffff1661156b6116b3565b73ffffffffffffffffffffffffffffffffffffffff16146115f4576040517f08c379a00000000000000000000000000000000000000000000000000000000081526004018080602001828103825260208152602001807f4f776e61626c653a2063616c6c6572206973206e6f7420746865206f776e657281525060200191505060405180910390fd5b600073ffffffffffffffffffffffffffffffffffffffff166000809054906101000a900473ffffffffffffffffffffffffffffffffffffffff1673ffffffffffffffffffffffffffffffffffffffff167f8be0079c531659141344cd1fd0a4f28419497f9722a3daafe3b4186f6b6457e060405160405180910390a360008060006101000a81548173ffffffffffffffffffffffffffffffffffffffff021916908373ffffffffffffffffffffffffffffffffffffffff160217905550565b60008060009054906101000a900473ffffffffffffffffffffffffffffffffffffffff16905090565b620186a081565b6116eb6110f9565b1561175e576040517f08c379a00000000000000000000000000000000000000000000000000000000081526004018080602001828103825260108152602001807f5061757361626c653a207061757365640000000000000000000000000000000081525060200191505060405180910390fd5b611769858583612796565b61177585858585613504565b5050505050565b6004602052816000526040600020602052806000526040600020600091509150508060000154908060010160009054906101000a900473ffffffffffffffffffffffffffffffffffffffff16908060020154908060030154905084565b6117e16110f9565b15611854576040517f08c379a00000000000000000000000000000000000000000000000000000000081526004018080602001828103825260108152602001807f5061757361626c653a207061757365640000000000000000000000000000000081525060200191505060405180910390fd5b61185c614026565b600360008673ffffffffffffffffffffffffffffffffffffffff1673ffffffffffffffffffffffffffffffffffffffff16815260200190815260200160002060008581526020019081526020016000206040518060a0016040529081600082015481526020016001820160009054906101000a900473ffffffffffffffffffffffffffffffffffffffff1673ffffffffffffffffffffffffffffffffffffffff1673ffffffffffffffffffffffffffffffffffffffff1681526020016002820160009054906101000a900473ffffffffffffffffffffffffffffffffffffffff1673ffffffffffffffffffffffffffffffffffffffff1673ffffffffffffffffffffffffffffffffffffffff1681526020016003820154815260200160048201548152505090506000801b81600001511415611a00576040517f08c379a00000000000000000000000000000000000000000000000000000000081526004018080602001828103825260208152602001807f4d61726b6574706c6163653a206173736574206e6f74207075626c697368656481525060200191505060405180910390fd5b3373ffffffffffffffffffffffffffffffffffffffff16816020015173ffffffffffffffffffffffffffffffffffffffff1614611aa5576040517f08c379a000000000000000000000000000000000000000000000000000000000815260040180806020018281038252601f8152602001807f4d61726b6574706c6163653a2073656e646572206e6f7420616c6c6f7765640081525060200191505060405180910390fd5b4281608001511015611b1f576040517f08c379a000000000000000000000000000000000000000000000000000000000815260040180806020018281038252601a8152602001807f4d61726b6574706c6163653a206f72646572206578706972656400000000000081525060200191505060405180910390fd5b60008311611b78576040517f08c379a000000000000000000000000000000000000000000000000000000000815260040180806020018281038252602a81526020018061412f602a913960400191505060405180910390fd5b611b8c603c426139c690919063ffffffff16565b8211611be3576040517f08c379a00000000000000000000000000000000000000000000000000000000081526004018080602001828103825260438152602001806140ec6043913960600191505060405180910390fd5b82816060018181525050818160800181815250507f37de993802f8ab9c75f6d7d3065ba8ab95ce30051219b14251415925e68e0a488160000151848460405180848152602001838152602001828152602001935050505060405180910390a15050505050565b6380ac58cd60e01b81565b611c5c6110f9565b15611ccf576040517f08c379a00000000000000000000000000000000000000000000000000000000081526004018080602001828103825260108152602001807f5061757361626c653a207061757365640000000000000000000000000000000081525060200191505060405180910390fd5b611cd7614026565b611ce1848461256a565b90503373ffffffffffffffffffffffffffffffffffffffff16816020015173ffffffffffffffffffffffffffffffffffffffff1614611d88576040517f08c379a00000000000000000000000000000000000000000000000000000000081526004018080602001828103825260208152602001807f4d61726b6574706c6163653a20756e617574686f72697a65642073656e64657281525060200191505060405180910390fd5b611d90614084565b600460008673ffffffffffffffffffffffffffffffffffffffff1673ffffffffffffffffffffffffffffffffffffffff1681526020019081526020016000206000858152602001908152602001600020604051806080016040529081600082015481526020016001820160009054906101000a900473ffffffffffffffffffffffffffffffffffffffff1673ffffffffffffffffffffffffffffffffffffffff1673ffffffffffffffffffffffffffffffffffffffff16815260200160028201548152602001600382015481525050905082816040015114611eda576040517f08c379a000000000000000000000000000000000000000000000000000000000815260040180806020018281038252601e8152602001807f4d61726b6574706c6163653a20696e76616c696420626964207072696365000081525060200191505060405180910390fd5b4281606001511015611f54576040517f08c379a000000000000000000000000000000000000000000000000000000000815260040180806020018281038252601c8152602001807f4d61726b6574706c6163653a207468652062696420657870697265640000000081525060200191505060405180910390fd5b600460008673ffffffffffffffffffffffffffffffffffffffff1673ffffffffffffffffffffffffffffffffffffffff16815260200190815260200160002060008581526020019081526020016000206000808201600090556001820160006101000a81549073ffffffffffffffffffffffffffffffffffffffff02191690556002820160009055600382016000905550507ff8c7d5572fa269efc040934ae7553d57f8906bffd616254bef0b94e2b569e41681600001516040518082815260200191505060405180910390a16000612051620f4240612043600154856040015161288490919063ffffffff16565b61290a90919063ffffffff16565b90506120ba8260200151612072838560400151612a8090919063ffffffff16565b600260009054906101000a900473ffffffffffffffffffffffffffffffffffffffff1673ffffffffffffffffffffffffffffffffffffffff16613a4e9092919063ffffffff16565b6120cf83600001518360200151888888612c20565b505050505050565b6003602052816000526040600020602052806000526040600020600091509150508060000154908060010160009054906101000a900473ffffffffffffffffffffffffffffffffffffffff16908060020160009054906101000a900473ffffffffffffffffffffffffffffffffffffffff16908060030154908060040154905085565b612162612360565b73ffffffffffffffffffffffffffffffffffffffff166121806116b3565b73ffffffffffffffffffffffffffffffffffffffff1614612209576040517f08c379a00000000000000000000000000000000000000000000000000000000081526004018080602001828103825260208152602001807f4f776e61626c653a2063616c6c6572206973206e6f7420746865206f776e657281525060200191505060405180910390fd5b600073ffffffffffffffffffffffffffffffffffffffff168173ffffffffffffffffffffffffffffffffffffffff16141561228f576040517f08c379a00000000000000000000000000000000000000000000000000000000081526004018080602001828103825260268152602001806140c66026913960400191505060405180910390fd5b8073ffffffffffffffffffffffffffffffffffffffff166000809054906101000a900473ffffffffffffffffffffffffffffffffffffffff1673ffffffffffffffffffffffffffffffffffffffff167f8be0079c531659141344cd1fd0a4f28419497f9722a3daafe3b4186f6b6457e060405160405180910390a3806000806101000a81548173ffffffffffffffffffffffffffffffffffffffff021916908373ffffffffffffffffffffffffffffffffffffffff16021790555050565b600080823b905060008111915050919050565b600033905090565b6123706110f9565b6123e2576040517f08c379a00000000000000000000000000000000000000000000000000000000081526004018080602001828103825260148152602001807f5061757361626c653a206e6f742070617573656400000000000000000000000081525060200191505060405180910390fd5b60008060146101000a81548160ff0219169083151502179055507f5db9ee0a495bf2e6ff9c91a7834c1ba4fdd244a5e8aa4e537bd38aeae4b073aa612425612360565b604051808273ffffffffffffffffffffffffffffffffffffffff1673ffffffffffffffffffffffffffffffffffffffff16815260200191505060405180910390a1565b6124706110f9565b156124e3576040517f08c379a00000000000000000000000000000000000000000000000000000000081526004018080602001828103825260108152602001807f5061757361626c653a207061757365640000000000000000000000000000000081525060200191505060405180910390fd5b6001600060146101000a81548160ff0219169083151502179055507f62e78cea01bee320cd4e420270b5ea74000d11b0c9f74754ebdbfc544b05a258612527612360565b604051808273ffffffffffffffffffffffffffffffffffffffff1673ffffffffffffffffffffffffffffffffffffffff16815260200191505060405180910390a1565b612572614026565b600360008473ffffffffffffffffffffffffffffffffffffffff1673ffffffffffffffffffffffffffffffffffffffff16815260200190815260200160002060008381526020019081526020016000206040518060a0016040529081600082015481526020016001820160009054906101000a900473ffffffffffffffffffffffffffffffffffffffff1673ffffffffffffffffffffffffffffffffffffffff1673ffffffffffffffffffffffffffffffffffffffff1681526020016002820160009054906101000a900473ffffffffffffffffffffffffffffffffffffffff1673ffffffffffffffffffffffffffffffffffffffff1673ffffffffffffffffffffffffffffffffffffffff1681526020016003820154815260200160048201548152505090506000801b81600001511415612716576040517f08c379a00000000000000000000000000000000000000000000000000000000081526004018080602001828103825260208152602001807f4d61726b6574706c6163653a206173736574206e6f74207075626c697368656481525060200191505060405180910390fd5b4281608001511015612790576040517f08c379a000000000000000000000000000000000000000000000000000000000815260040180806020018281038252601a8152602001807f4d61726b6574706c6163653a206f72646572206578706972656400000000000081525060200191505060405180910390fd5b92915050565b8273ffffffffffffffffffffffffffffffffffffffff16638cb5b56b83836040518363ffffffff1660e01b8152600401808381526020018281526020019250505060206040518083038186803b1580156127ef57600080fd5b505afa158015612803573d6000803e3d6000fd5b505050506040513d602081101561281957600080fd5b810190808051906020019092919050505061287f576040517f08c379a000000000000000000000000000000000000000000000000000000000815260040180806020018281038252602b8152602001806142ce602b913960400191505060405180910390fd5b505050565b6000808314156128975760009050612904565b60008284029050828482816128a857fe5b04146128ff576040517f08c379a000000000000000000000000000000000000000000000000000000000815260040180806020018281038252602181526020018061422a6021913960400191505060405180910390fd5b809150505b92915050565b6000808211612981576040517f08c379a000000000000000000000000000000000000000000000000000000000815260040180806020018281038252601a8152602001807f536166654d6174683a206469766973696f6e206279207a65726f00000000000081525060200191505060405180910390fd5b81838161298a57fe5b04905092915050565b612a7a846323b872dd60e01b858585604051602401808473ffffffffffffffffffffffffffffffffffffffff1673ffffffffffffffffffffffffffffffffffffffff1681526020018373ffffffffffffffffffffffffffffffffffffffff1673ffffffffffffffffffffffffffffffffffffffff1681526020018281526020019350505050604051602081830303815290604052907bffffffffffffffffffffffffffffffffffffffffffffffffffffffff19166020820180517bffffffffffffffffffffffffffffffffffffffffffffffffffffffff8381831617835250505050613b06565b50505050565b600082821115612af8576040517f08c379a000000000000000000000000000000000000000000000000000000000815260040180806020018281038252601e8152602001807f536166654d6174683a207375627472616374696f6e206f766572666c6f77000081525060200191505060405180910390fd5b818303905092915050565b600460008573ffffffffffffffffffffffffffffffffffffffff1673ffffffffffffffffffffffffffffffffffffffff16815260200190815260200160002060008481526020019081526020016000206000808201600090556001820160006101000a81549073ffffffffffffffffffffffffffffffffffffffff0219169055600282016000905560038201600090555050612be28282600260009054906101000a900473ffffffffffffffffffffffffffffffffffffffff1673ffffffffffffffffffffffffffffffffffffffff16613a4e9092919063ffffffff16565b7fb56dc4096011ba5fd2e46e5c3e7b04dec423b5e7b5fce9a17a419d77c832177c856040518082815260200191505060405180910390a15050505050565b600360008473ffffffffffffffffffffffffffffffffffffffff1673ffffffffffffffffffffffffffffffffffffffff16815260200190815260200160002060008381526020019081526020016000206000808201600090556001820160006101000a81549073ffffffffffffffffffffffffffffffffffffffff02191690556002820160006101000a81549073ffffffffffffffffffffffffffffffffffffffff02191690556003820160009055600482016000905550508273ffffffffffffffffffffffffffffffffffffffff166342842e0e3086856040518463ffffffff1660e01b8152600401808473ffffffffffffffffffffffffffffffffffffffff1673ffffffffffffffffffffffffffffffffffffffff1681526020018373ffffffffffffffffffffffffffffffffffffffff1673ffffffffffffffffffffffffffffffffffffffff1681526020018281526020019350505050600060405180830381600087803b158015612d9457600080fd5b505af1158015612da8573d6000803e3d6000fd5b505050508373ffffffffffffffffffffffffffffffffffffffff167f012d66d656f295c1a84576b9b7f0a83474ed09578e80f7f1a715fb958e1d54638683604051808381526020018281526020019250505060405180910390a25050505050565b600360008473ffffffffffffffffffffffffffffffffffffffff1673ffffffffffffffffffffffffffffffffffffffff16815260200190815260200160002060008381526020019081526020016000206000808201600090556001820160006101000a81549073ffffffffffffffffffffffffffffffffffffffff02191690556002820160006101000a81549073ffffffffffffffffffffffffffffffffffffffff02191690556003820160009055600482016000905550508273ffffffffffffffffffffffffffffffffffffffff166342842e0e3083856040518463ffffffff1660e01b8152600401808473ffffffffffffffffffffffffffffffffffffffff1673ffffffffffffffffffffffffffffffffffffffff1681526020018373ffffffffffffffffffffffffffffffffffffffff1673ffffffffffffffffffffffffffffffffffffffff1681526020018281526020019350505050600060405180830381600087803b158015612f7d57600080fd5b505af1158015612f91573d6000803e3d6000fd5b505050507f5152abf959f6564662358c2e52b702259b78bac5ee7842a0f01937e670efcc7d846040518082815260200191505060405180910390a150505050565b6000612fdd85613bf5565b905060008173ffffffffffffffffffffffffffffffffffffffff16636352211e866040518263ffffffff1660e01b81526004018082815260200191505060206040518083038186803b15801561303257600080fd5b505afa158015613046573d6000803e3d6000fd5b505050506040513d602081101561305c57600080fd5b810190808051906020019092919050505090503373ffffffffffffffffffffffffffffffffffffffff168173ffffffffffffffffffffffffffffffffffffffff16146130f3576040517f08c379a00000000000000000000000000000000000000000000000000000000081526004018080602001828103825260338152602001806141596033913960400191505060405180910390fd5b6000841161314c576040517f08c379a000000000000000000000000000000000000000000000000000000000815260040180806020018281038252602a81526020018061412f602a913960400191505060405180910390fd5b613160603c426139c690919063ffffffff16565b83116131b7576040517f08c379a000000000000000000000000000000000000000000000000000000000815260040180806020018281038252604381526020018061418c6043913960600191505060405180910390fd5b8173ffffffffffffffffffffffffffffffffffffffff166342842e0e8230886040518463ffffffff1660e01b8152600401808473ffffffffffffffffffffffffffffffffffffffff1673ffffffffffffffffffffffffffffffffffffffff1681526020018373ffffffffffffffffffffffffffffffffffffffff1673ffffffffffffffffffffffffffffffffffffffff1681526020018281526020019350505050600060405180830381600087803b15801561327257600080fd5b505af1158015613286573d6000803e3d6000fd5b5050505060004282888888604051602001808681526020018573ffffffffffffffffffffffffffffffffffffffff1673ffffffffffffffffffffffffffffffffffffffff1660601b81526014018473ffffffffffffffffffffffffffffffffffffffff1673ffffffffffffffffffffffffffffffffffffffff1660601b8152601401838152602001828152602001955050505050506040516020818303038152906040528051906020012090506040518060a001604052808281526020018373ffffffffffffffffffffffffffffffffffffffff1681526020018873ffffffffffffffffffffffffffffffffffffffff16815260200186815260200185815250600360008973ffffffffffffffffffffffffffffffffffffffff1673ffffffffffffffffffffffffffffffffffffffff16815260200190815260200160002060008881526020019081526020016000206000820151816000015560208201518160010160006101000a81548173ffffffffffffffffffffffffffffffffffffffff021916908373ffffffffffffffffffffffffffffffffffffffff16021790555060408201518160020160006101000a81548173ffffffffffffffffffffffffffffffffffffffff021916908373ffffffffffffffffffffffffffffffffffffffff1602179055506060820151816003015560808201518160040155905050858773ffffffffffffffffffffffffffffffffffffffff168373ffffffffffffffffffffffffffffffffffffffff167f3b8c4041eabe54c6d50899a3a79a85ff44abb0867c400f5a7c8d8a55a8488cd684898960405180848152602001838152602001828152602001935050505060405180910390a450505050505050565b61350c614026565b613516858561256a565b9050806080015182111561352c57806080015191505b613534614084565b600460008773ffffffffffffffffffffffffffffffffffffffff1673ffffffffffffffffffffffffffffffffffffffff1681526020019081526020016000206000868152602001908152602001600020604051806080016040529081600082015481526020016001820160009054906101000a900473ffffffffffffffffffffffffffffffffffffffff1673ffffffffffffffffffffffffffffffffffffffff1673ffffffffffffffffffffffffffffffffffffffff1681526020016002820154815260200160038201548152505090506000801b816000015114613714574281606001511061367f578060400151841161367a576040517f08c379a000000000000000000000000000000000000000000000000000000000815260040180806020018281038252603581526020018061426f6035913960400191505060405180910390fd5b6136f6565b600084116136f5576040517f08c379a000000000000000000000000000000000000000000000000000000000815260040180806020018281038252601e8152602001807f4d61726b6574706c6163653a206269642073686f756c64206265203e2030000081525060200191505060405180910390fd5b5b61370f8160000151878784602001518560400151612b03565b61378b565b6000841161378a576040517f08c379a000000000000000000000000000000000000000000000000000000000815260040180806020018281038252601e8152602001807f4d61726b6574706c6163653a206269642073686f756c64206265203e2030000081525060200191505060405180910390fd5b5b6137da333086600260009054906101000a900473ffffffffffffffffffffffffffffffffffffffff1673ffffffffffffffffffffffffffffffffffffffff16612993909392919063ffffffff16565b6000423384600001518787604051602001808681526020018573ffffffffffffffffffffffffffffffffffffffff1673ffffffffffffffffffffffffffffffffffffffff1660601b81526014018481526020018381526020018281526020019550505050505060405160208183030381529060405280519060200120905060405180608001604052808281526020013373ffffffffffffffffffffffffffffffffffffffff16815260200186815260200185815250600460008973ffffffffffffffffffffffffffffffffffffffff1673ffffffffffffffffffffffffffffffffffffffff16815260200190815260200160002060008881526020019081526020016000206000820151816000015560208201518160010160006101000a81548173ffffffffffffffffffffffffffffffffffffffff021916908373ffffffffffffffffffffffffffffffffffffffff16021790555060408201518160020155606082015181600301559050503373ffffffffffffffffffffffffffffffffffffffff16868873ffffffffffffffffffffffffffffffffffffffff167fae7b5aee7763f3e7771076de8f7b61accb70ad42245fee23308e19c8bcd518e484898960405180848152602001838152602001828152602001935050505060405180910390a450505050505050565b600080828401905083811015613a44576040517f08c379a000000000000000000000000000000000000000000000000000000000815260040180806020018281038252601b8152602001807f536166654d6174683a206164646974696f6e206f766572666c6f77000000000081525060200191505060405180910390fd5b8091505092915050565b613b018363a9059cbb60e01b8484604051602401808373ffffffffffffffffffffffffffffffffffffffff1673ffffffffffffffffffffffffffffffffffffffff16815260200182815260200192505050604051602081830303815290604052907bffffffffffffffffffffffffffffffffffffffffffffffffffffffff19166020820180517bffffffffffffffffffffffffffffffffffffffffffffffffffffffff8381831617835250505050613b06565b505050565b6060613b68826040518060400160405280602081526020017f5361666545524332303a206c6f772d6c6576656c2063616c6c206661696c65648152508573ffffffffffffffffffffffffffffffffffffffff16613d999092919063ffffffff16565b9050600081511115613bf057808060200190516020811015613b8957600080fd5b8101908080519060200190929190505050613bef576040517f08c379a000000000000000000000000000000000000000000000000000000000815260040180806020018281038252602a8152602001806142a4602a913960400191505060405180910390fd5b5b505050565b6000613c168273ffffffffffffffffffffffffffffffffffffffff1661234d565b613c6b576040517f08c379a000000000000000000000000000000000000000000000000000000000815260040180806020018281038252602481526020018061424b6024913960400191505060405180910390fd5b8173ffffffffffffffffffffffffffffffffffffffff166301ffc9a76380ac58cd60e01b6040518263ffffffff1660e01b815260040180827bffffffffffffffffffffffffffffffffffffffffffffffffffffffff19167bffffffffffffffffffffffffffffffffffffffffffffffffffffffff1916815260200191505060206040518083038186803b158015613d0157600080fd5b505afa158015613d15573d6000803e3d6000fd5b505050506040513d6020811015613d2b57600080fd5b8101908080519060200190929190505050613d91576040517f08c379a00000000000000000000000000000000000000000000000000000000081526004018080602001828103825260358152602001806141cf6035913960400191505060405180910390fd5b819050919050565b6060613da88484600085613db1565b90509392505050565b606082471015613e0c576040517f08c379a00000000000000000000000000000000000000000000000000000000081526004018080602001828103825260268152602001806142046026913960400191505060405180910390fd5b613e158561234d565b613e87576040517f08c379a000000000000000000000000000000000000000000000000000000000815260040180806020018281038252601d8152602001807f416464726573733a2063616c6c20746f206e6f6e2d636f6e747261637400000081525060200191505060405180910390fd5b600060608673ffffffffffffffffffffffffffffffffffffffff1685876040518082805190602001908083835b60208310613ed75780518252602082019150602081019050602083039250613eb4565b6001836020036101000a03801982511681845116808217855250505050505090500191505060006040518083038185875af1925050503d8060008114613f39576040519150601f19603f3d011682016040523d82523d6000602084013e613f3e565b606091505b5091509150613f4e828286613f5a565b92505050949350505050565b60608315613f6a5782905061401f565b600083511115613f7d5782518084602001fd5b816040517f08c379a00000000000000000000000000000000000000000000000000000000081526004018080602001828103825283818151815260200191508051906020019080838360005b83811015613fe4578082015181840152602081019050613fc9565b50505050905090810190601f1680156140115780820380516001836020036101000a031916815260200191505b509250505060405180910390fd5b9392505050565b6040518060a0016040528060008019168152602001600073ffffffffffffffffffffffffffffffffffffffff168152602001600073ffffffffffffffffffffffffffffffffffffffff16815260200160008152602001600081525090565b604051806080016040528060008019168152602001600073ffffffffffffffffffffffffffffffffffffffff1681526020016000815260200160008152509056fe4f776e61626c653a206e6577206f776e657220697320746865207a65726f20616464726573734d61726b6574706c6163653a204578706972652074696d652073686f756c64206265206d6f7265207468616e2031206d696e75746520696e20746865206675747572654d61726b6574706c6163653a2050726963652073686f756c6420626520626967676572207468616e20304d61726b6574706c6163653a204f6e6c7920746865206173736574206f776e65722063616e20637265617465206f72646572734d61726b6574706c6163653a205075626c69636174696f6e2073686f756c64206265206d6f7265207468616e2031206d696e75746520696e2074686520667574757265546865204e465420636f6e74726163742068617320616e20696e76616c69642045524337323120696d706c656d656e746174696f6e416464726573733a20696e73756666696369656e742062616c616e636520666f722063616c6c536166654d6174683a206d756c7469706c69636174696f6e206f766572666c6f77546865204e465420416464726573732073686f756c64206265206120636f6e74726163744d61726b6574706c6163653a206269642070726963652073686f756c6420626520686967686572207468616e206c617374206269645361666545524332303a204552433230206f7065726174696f6e20646964206e6f7420737563636565644d61726b6574706c6163653a2061737365742066696e6765727072696e74206973206e6f742076616c6964546865206f776e6572206375742073686f756c64206265206265747765656e203020616e64206d61784375745065724d696c6c696f6ea2646970667358221220100ef927f4ead818f1fba36a933f8fe72fbb01d7d1f3f3e7a50b23fd8d701d4c64736f6c634300060a003354686520616363657074656420746f6b656e2061646472657373206d7573742062652061206465706c6f79656420636f6e7472616374",
  "immutableReferences": {},
  "source": "// SPDX-License-Identifier: Apache-2.0\r\n\r\npragma solidity ^0.6.8;\r\n\r\nimport \"@openzeppelin/contracts/access/Ownable.sol\";\r\nimport \"@openzeppelin/contracts/math/SafeMath.sol\";\r\n\r\nimport \"@openzeppelin/contracts/utils/Address.sol\";\r\nimport \"@openzeppelin/contracts/utils/Pausable.sol\";\r\n\r\nimport \"@openzeppelin/contracts/token/ERC721/ERC721Holder.sol\";\r\nimport \"@openzeppelin/contracts/token/ERC20/SafeERC20.sol\";\r\n\r\nimport \"./IERC721Verifiable.sol\";\r\nimport \"./IMarketplace.sol\";\r\nimport \"./FeeManager.sol\";\r\n\r\n\r\ncontract Marketplace is Ownable, Pausable, FeeManager, IMarketplace, ERC721Holder {\r\n\r\n    using Address for address;\r\n    using SafeMath for uint256;\r\n    using SafeERC20 for IERC20;\r\n\r\n    IERC20 public acceptedToken;\r\n\r\n    // From ERC721 registry assetId to Order (to avoid asset collision)\r\n    mapping(address => mapping(uint256 => Order)) public orderByAssetId;\r\n\r\n    // From ERC721 registry assetId to Bid (to avoid asset collision)\r\n    mapping(address => mapping(uint256 => Bid)) public bidByOrderId;\r\n\r\n    // 721 Interfaces\r\n    bytes4 public constant _INTERFACE_ID_ERC721 = 0x80ac58cd;\r\n\r\n    /**\r\n     * @dev Initialize this contract. Acts as a constructor\r\n     * @param _acceptedToken - currency for payments\r\n     */\r\n    constructor(address _acceptedToken) public Ownable() {\r\n        require(\r\n            _acceptedToken.isContract(),\r\n            \"The accepted token address must be a deployed contract\"\r\n        );\r\n        acceptedToken = IERC20(_acceptedToken);\r\n    }\r\n\r\n    /**\r\n     * @dev Sets the paused failsafe. Can only be called by owner\r\n     * @param _setPaused - paused state\r\n     */\r\n    function setPaused(bool _setPaused) public onlyOwner {\r\n        return (_setPaused) ? _pause() : _unpause();\r\n    }\r\n\r\n    /**\r\n     * @dev Creates a new order\r\n     * @param _nftAddress - Non fungible registry address\r\n     * @param _assetId - ID of the published NFT\r\n     * @param _priceInWei - Price in Wei for the supported coin\r\n     * @param _expiresAt - Duration of the order (in hours)\r\n     */\r\n    function createOrder(\r\n        address _nftAddress,\r\n        uint256 _assetId,\r\n        uint256 _priceInWei,\r\n        uint256 _expiresAt\r\n    )\r\n        public whenNotPaused\r\n    {\r\n        _createOrder(_nftAddress, _assetId, _priceInWei, _expiresAt);\r\n    }\r\n\r\n\r\n    /**\r\n     * @dev Cancel an already published order\r\n     *  can only be canceled by seller or the contract owner\r\n     * @param _nftAddress - Address of the NFT registry\r\n     * @param _assetId - ID of the published NFT\r\n     */\r\n    function cancelOrder(\r\n        address _nftAddress,\r\n        uint256 _assetId\r\n    )\r\n        public whenNotPaused\r\n    {\r\n        Order memory order = orderByAssetId[_nftAddress][_assetId];\r\n\r\n        require(\r\n            order.seller == msg.sender || msg.sender == owner(),\r\n            \"Marketplace: unauthorized sender\"\r\n        );\r\n\r\n        // Remove pending bid if any\r\n        Bid memory bid = bidByOrderId[_nftAddress][_assetId];\r\n\r\n        if (bid.id != 0) {\r\n            _cancelBid(\r\n                bid.id,\r\n                _nftAddress,\r\n                _assetId,\r\n                bid.bidder,\r\n                bid.price\r\n            );\r\n        }\r\n\r\n        // Cancel order.\r\n        _cancelOrder(\r\n            order.id,\r\n            _nftAddress,\r\n            _assetId,\r\n            msg.sender\r\n        );\r\n    }\r\n\r\n\r\n    /**\r\n     * @dev Update an already published order\r\n     *  can only be updated by seller\r\n     * @param _nftAddress - Address of the NFT registry\r\n     * @param _assetId - ID of the published NFT\r\n     */\r\n    function updateOrder(\r\n        address _nftAddress,\r\n        uint256 _assetId,\r\n        uint256 _priceInWei,\r\n        uint256 _expiresAt\r\n    )\r\n        public whenNotPaused\r\n    {\r\n        Order memory order = orderByAssetId[_nftAddress][_assetId];\r\n\r\n        // Check valid order to update\r\n        require(order.id != 0, \"Marketplace: asset not published\");\r\n        require(order.seller == msg.sender, \"Marketplace: sender not allowed\");\r\n        require(order.expiresAt >= block.timestamp, \"Marketplace: order expired\");\r\n\r\n        // check order updated params\r\n        require(_priceInWei > 0, \"Marketplace: Price should be bigger than 0\");\r\n        require(\r\n            _expiresAt > block.timestamp.add(1 minutes),\r\n            \"Marketplace: Expire time should be more than 1 minute in the future\"\r\n        );\r\n\r\n        order.price = _priceInWei;\r\n        order.expiresAt = _expiresAt;\r\n\r\n        emit OrderUpdated(order.id, _priceInWei, _expiresAt);\r\n    }\r\n\r\n\r\n    /**\r\n     * @dev Executes the sale for a published NFT and checks for the asset fingerprint\r\n     * @param _nftAddress - Address of the NFT registry\r\n     * @param _assetId - ID of the published NFT\r\n     * @param _priceInWei - Order price\r\n     * @param _fingerprint - Verification info for the asset\r\n     */\r\n    function safeExecuteOrder(\r\n        address _nftAddress,\r\n        uint256 _assetId,\r\n        uint256 _priceInWei,\r\n        bytes32 _fingerprint\r\n    )\r\n        public whenNotPaused\r\n    {\r\n        // Get the current valid order for the asset or fail\r\n        Order memory order = _getValidOrder(\r\n            _nftAddress,\r\n            _assetId\r\n        );\r\n\r\n        /// Check the execution price matches the order price\r\n        require(order.price == _priceInWei, \"Marketplace: invalid price\");\r\n        require(order.seller != msg.sender, \"Marketplace: unauthorized sender\");\r\n\r\n        // Check the asset fingerprint\r\n        _verifyAssetFingerprint(\r\n            IERC721Verifiable(_nftAddress),\r\n            _assetId,\r\n            _fingerprint\r\n        );\r\n\r\n        // market fee to cut\r\n        uint256 saleShareAmount = 0;\r\n\r\n        // Send market fees to owner\r\n        if (FeeManager.cutPerMillion > 0) {\r\n            // Calculate sale share\r\n            saleShareAmount = _priceInWei\r\n                .mul(FeeManager.cutPerMillion)\r\n                .div(1e6);\r\n\r\n            // Transfer share amount for marketplace Owner\r\n            acceptedToken.safeTransferFrom(\r\n                msg.sender, //buyer\r\n                owner(),\r\n                saleShareAmount\r\n            );\r\n        }\r\n\r\n        // Transfer accepted token amount minus market fee to seller\r\n        acceptedToken.safeTransferFrom(\r\n            msg.sender, // buyer\r\n            order.seller, // seller\r\n            order.price.sub(saleShareAmount)\r\n        );\r\n\r\n        // Remove pending bid if any\r\n        Bid memory bid = bidByOrderId[_nftAddress][_assetId];\r\n\r\n        if (bid.id != 0) {\r\n            _cancelBid(\r\n                bid.id,\r\n                _nftAddress,\r\n                _assetId,\r\n                bid.bidder,\r\n                bid.price\r\n            );\r\n        }\r\n\r\n        _executeOrder(\r\n            order.id,\r\n            msg.sender, // buyer\r\n            _nftAddress,\r\n            _assetId,\r\n            _priceInWei\r\n        );\r\n    }\r\n\r\n\r\n    /**\r\n     * @dev Places a bid for a published NFT and checks for the asset fingerprint\r\n     * @param _nftAddress - Address of the NFT registry\r\n     * @param _assetId - ID of the published NFT\r\n     * @param _priceInWei - Bid price in acceptedToken currency\r\n     * @param _expiresAt - Bid expiration time\r\n     * @param _fingerprint - Verification info for the asset\r\n     */\r\n    function safePlaceBid(\r\n        address _nftAddress,\r\n        uint256 _assetId,\r\n        uint256 _priceInWei,\r\n        uint256 _expiresAt,\r\n        bytes32 _fingerprint\r\n    )\r\n        public whenNotPaused\r\n    {\r\n        _verifyAssetFingerprint(\r\n            IERC721Verifiable(_nftAddress),\r\n            _assetId,\r\n            _fingerprint\r\n        );\r\n\r\n        _createBid(\r\n            _nftAddress,\r\n            _assetId,\r\n            _priceInWei,\r\n            _expiresAt\r\n        );\r\n    }\r\n\r\n\r\n    /**\r\n     * @dev Cancel an already published bid\r\n     *  can only be canceled by seller or the contract owner\r\n     * @param _nftAddress - Address of the NFT registry\r\n     * @param _assetId - ID of the published NFT\r\n     */\r\n    function cancelBid(\r\n        address _nftAddress,\r\n        uint256 _assetId\r\n    )\r\n        public whenNotPaused\r\n    {\r\n        Bid memory bid = bidByOrderId[_nftAddress][_assetId];\r\n\r\n        require(\r\n            bid.bidder == msg.sender || msg.sender == owner(),\r\n            \"Marketplace: Unauthorized sender\"\r\n        );\r\n\r\n        _cancelBid(\r\n            bid.id,\r\n            _nftAddress,\r\n            _assetId,\r\n            bid.bidder,\r\n            bid.price\r\n        );\r\n    }\r\n\r\n\r\n    /**\r\n     * @dev Executes the sale for a published NFT by accepting a current bid\r\n     * @param _nftAddress - Address of the NFT registry\r\n     * @param _assetId - ID of the published NFT\r\n     * @param _priceInWei - Bid price in wei in acceptedTokens currency\r\n     */\r\n    function acceptBid(\r\n        address _nftAddress,\r\n        uint256 _assetId,\r\n        uint256 _priceInWei\r\n    )\r\n        public whenNotPaused\r\n    {\r\n        // check order validity\r\n        Order memory order = _getValidOrder(_nftAddress, _assetId);\r\n\r\n        // item seller is the only allowed to accept a bid\r\n        require(order.seller == msg.sender, \"Marketplace: unauthorized sender\");\r\n\r\n        Bid memory bid = bidByOrderId[_nftAddress][_assetId];\r\n\r\n        require(bid.price == _priceInWei, \"Marketplace: invalid bid price\");\r\n        require(bid.expiresAt >= block.timestamp, \"Marketplace: the bid expired\");\r\n\r\n        // remove bid\r\n        delete bidByOrderId[_nftAddress][_assetId];\r\n\r\n        emit BidAccepted(bid.id);\r\n\r\n        // calc market fees\r\n        uint256 saleShareAmount = bid.price\r\n            .mul(FeeManager.cutPerMillion)\r\n            .div(1e6);\r\n\r\n        // transfer escrowed bid amount minus market fee to seller\r\n        acceptedToken.safeTransfer(\r\n            bid.bidder,\r\n            bid.price.sub(saleShareAmount)\r\n        );\r\n\r\n        _executeOrder(\r\n            order.id,\r\n            bid.bidder,\r\n            _nftAddress,\r\n            _assetId,\r\n            _priceInWei\r\n        );\r\n    }\r\n\r\n\r\n    /**\r\n     * @dev Internal function gets Order by nftRegistry and assetId. Checks for the order validity\r\n     * @param _nftAddress - Address of the NFT registry\r\n     * @param _assetId - ID of the published NFT\r\n     */\r\n    function _getValidOrder(\r\n        address _nftAddress,\r\n        uint256 _assetId\r\n    )\r\n        internal view returns (Order memory order)\r\n    {\r\n        order = orderByAssetId[_nftAddress][_assetId];\r\n\r\n        require(order.id != 0, \"Marketplace: asset not published\");\r\n        require(order.expiresAt >= block.timestamp, \"Marketplace: order expired\");\r\n    }\r\n\r\n\r\n    /**\r\n     * @dev Executes the sale for a published NFT\r\n     * @param _orderId - Order Id to execute\r\n     * @param _buyer - address\r\n     * @param _nftAddress - Address of the NFT registry\r\n     * @param _assetId - NFT id\r\n     * @param _priceInWei - Order price\r\n     */\r\n    function _executeOrder(\r\n        bytes32 _orderId,\r\n        address _buyer,\r\n        address _nftAddress,\r\n        uint256 _assetId,\r\n        uint256 _priceInWei\r\n    )\r\n        internal\r\n    {\r\n        // remove order\r\n        delete orderByAssetId[_nftAddress][_assetId];\r\n\r\n        // Transfer NFT asset\r\n        IERC721(_nftAddress).safeTransferFrom(\r\n            address(this),\r\n            _buyer,\r\n            _assetId\r\n        );\r\n\r\n        // Notify ..\r\n        emit OrderSuccessful(\r\n            _orderId,\r\n            _buyer,\r\n            _priceInWei\r\n        );\r\n    }\r\n\r\n\r\n    /**\r\n     * @dev Creates a new order\r\n     * @param _nftAddress - Non fungible registry address\r\n     * @param _assetId - ID of the published NFT\r\n     * @param _priceInWei - Price in Wei for the supported coin\r\n     * @param _expiresAt - Expiration time for the order\r\n     */\r\n    function _createOrder(\r\n        address _nftAddress,\r\n        uint256 _assetId,\r\n        uint256 _priceInWei,\r\n        uint256 _expiresAt\r\n    )\r\n        internal\r\n    {\r\n        // Check nft registry\r\n        IERC721 nftRegistry = _requireERC721(_nftAddress);\r\n\r\n        // Check order creator is the asset owner\r\n        address assetOwner = nftRegistry.ownerOf(_assetId);\r\n\r\n        require(\r\n            assetOwner == msg.sender,\r\n            \"Marketplace: Only the asset owner can create orders\"\r\n        );\r\n\r\n        require(_priceInWei > 0, \"Marketplace: Price should be bigger than 0\");\r\n\r\n        require(\r\n            _expiresAt > block.timestamp.add(1 minutes),\r\n            \"Marketplace: Publication should be more than 1 minute in the future\"\r\n        );\r\n\r\n        // get NFT asset from seller\r\n        nftRegistry.safeTransferFrom(\r\n            assetOwner,\r\n            address(this),\r\n            _assetId\r\n        );\r\n\r\n        // create the orderId\r\n        bytes32 orderId = keccak256(\r\n            abi.encodePacked(\r\n                block.timestamp,\r\n                assetOwner,\r\n                _nftAddress,\r\n                _assetId,\r\n                _priceInWei\r\n            )\r\n        );\r\n\r\n        // save order\r\n        orderByAssetId[_nftAddress][_assetId] = Order({\r\n            id: orderId,\r\n            seller: assetOwner,\r\n            nftAddress: _nftAddress,\r\n            price: _priceInWei,\r\n            expiresAt: _expiresAt\r\n        });\r\n\r\n        emit OrderCreated(\r\n            orderId,\r\n            assetOwner,\r\n            _nftAddress,\r\n            _assetId,\r\n            _priceInWei,\r\n            _expiresAt\r\n        );\r\n    }\r\n\r\n\r\n    /**\r\n     * @dev Creates a new bid on a existing order\r\n     * @param _nftAddress - Non fungible registry address\r\n     * @param _assetId - ID of the published NFT\r\n     * @param _priceInWei - Price in Wei for the supported coin\r\n     * @param _expiresAt - expires time\r\n     */\r\n    function _createBid(\r\n        address _nftAddress,\r\n        uint256 _assetId,\r\n        uint256 _priceInWei,\r\n        uint256 _expiresAt\r\n    )\r\n        internal\r\n    {\r\n        // Checks order validity\r\n        Order memory order = _getValidOrder(_nftAddress, _assetId);\r\n\r\n        // check on expire time\r\n        if (_expiresAt > order.expiresAt) {\r\n            _expiresAt = order.expiresAt;\r\n        }\r\n\r\n        // Check price if theres previous a bid\r\n        Bid memory bid = bidByOrderId[_nftAddress][_assetId];\r\n\r\n        // if theres no previous bid, just check price > 0\r\n        if (bid.id != 0) {\r\n            if (bid.expiresAt >= block.timestamp) {\r\n                require(\r\n                    _priceInWei > bid.price,\r\n                    \"Marketplace: bid price should be higher than last bid\"\r\n                );\r\n\r\n            } else {\r\n                require(_priceInWei > 0, \"Marketplace: bid should be > 0\");\r\n            }\r\n\r\n            _cancelBid(\r\n                bid.id,\r\n                _nftAddress,\r\n                _assetId,\r\n                bid.bidder,\r\n                bid.price\r\n            );\r\n\r\n        } else {\r\n            require(_priceInWei > 0, \"Marketplace: bid should be > 0\");\r\n        }\r\n\r\n        // Transfer sale amount from bidder to escrow\r\n        acceptedToken.safeTransferFrom(\r\n            msg.sender, // bidder\r\n            address(this),\r\n            _priceInWei\r\n        );\r\n\r\n        // Create bid\r\n        bytes32 bidId = keccak256(\r\n            abi.encodePacked(\r\n                block.timestamp,\r\n                msg.sender,\r\n                order.id,\r\n                _priceInWei,\r\n                _expiresAt\r\n            )\r\n        );\r\n\r\n        // Save Bid for this order\r\n        bidByOrderId[_nftAddress][_assetId] = Bid({\r\n            id: bidId,\r\n            bidder: msg.sender,\r\n            price: _priceInWei,\r\n            expiresAt: _expiresAt\r\n        });\r\n\r\n        emit BidCreated(\r\n            bidId,\r\n            _nftAddress,\r\n            _assetId,\r\n            msg.sender, // bidder\r\n            _priceInWei,\r\n            _expiresAt\r\n        );\r\n    }\r\n\r\n\r\n    /**\r\n     * @dev Cancel an already published order\r\n     *  can only be canceled by seller or the contract owner\r\n     * @param _orderId - Bid identifier\r\n     * @param _nftAddress - Address of the NFT registry\r\n     * @param _assetId - ID of the published NFT\r\n     * @param _seller - Address\r\n     */\r\n    function _cancelOrder(\r\n        bytes32 _orderId,\r\n        address _nftAddress,\r\n        uint256 _assetId,\r\n        address _seller\r\n    )\r\n        internal\r\n    {\r\n        delete orderByAssetId[_nftAddress][_assetId];\r\n\r\n        /// send asset back to seller\r\n        IERC721(_nftAddress).safeTransferFrom(\r\n            address(this),\r\n            _seller,\r\n            _assetId\r\n        );\r\n\r\n        emit OrderCancelled(_orderId);\r\n    }\r\n\r\n\r\n    /**\r\n     * @dev Cancel bid from an already published order\r\n     *  can only be canceled by seller or the contract owner\r\n     * @param _bidId - Bid identifier\r\n     * @param _nftAddress - registry address\r\n     * @param _assetId - ID of the published NFT\r\n     * @param _bidder - Address\r\n     * @param _escrowAmount - in acceptenToken currency\r\n     */\r\n    function _cancelBid(\r\n        bytes32 _bidId,\r\n        address _nftAddress,\r\n        uint256 _assetId,\r\n        address _bidder,\r\n        uint256 _escrowAmount\r\n    )\r\n        internal\r\n    {\r\n        delete bidByOrderId[_nftAddress][_assetId];\r\n\r\n        // return escrow to canceled bidder\r\n        acceptedToken.safeTransfer(\r\n            _bidder,\r\n            _escrowAmount\r\n        );\r\n\r\n        emit BidCancelled(_bidId);\r\n    }\r\n\r\n\r\n    function _requireERC721(address _nftAddress) internal view returns (IERC721) {\r\n        require(\r\n            _nftAddress.isContract(),\r\n            \"The NFT Address should be a contract\"\r\n        );\r\n        require(\r\n            IERC721(_nftAddress).supportsInterface(_INTERFACE_ID_ERC721),\r\n            \"The NFT contract has an invalid ERC721 implementation\"\r\n        );\r\n        return IERC721(_nftAddress);\r\n    }\r\n\r\n\r\n    function _verifyAssetFingerprint(\r\n        IERC721Verifiable _nftRegistry,\r\n        uint256 _assetId,\r\n        bytes32 _fingerprint\r\n    )\r\n        internal view\r\n    {\r\n        require(\r\n            _nftRegistry.verifyFingerprint(_assetId, _fingerprint),\r\n            \"Marketplace: asset fingerprint is not valid\"\r\n        );\r\n    }\r\n}\r\n",
  "sourcePath": "D:/My Github/nft-marketplace/contracts/Marketplace.sol",
  "compiler": {
    "name": "solc",
    "version": "0.6.10+commit.00c0fcaf.Emscripten.clang"
  },
  "schemaVersion": "3.4.0",
  "updatedAt": "2021-05-12T17:04:49.018Z",
  "devdoc": {
    "methods": {
      "acceptBid(address,uint256,uint256)": {
        "details": "Executes the sale for a published NFT by accepting a current bid",
        "params": {
          "_assetId": "- ID of the published NFT",
          "_nftAddress": "- Address of the NFT registry",
          "_priceInWei": "- Bid price in wei in acceptedTokens currency"
        }
      },
      "cancelBid(address,uint256)": {
        "details": "Cancel an already published bid  can only be canceled by seller or the contract owner",
        "params": {
          "_assetId": "- ID of the published NFT",
          "_nftAddress": "- Address of the NFT registry"
        }
      },
      "cancelOrder(address,uint256)": {
        "details": "Cancel an already published order  can only be canceled by seller or the contract owner",
        "params": {
          "_assetId": "- ID of the published NFT",
          "_nftAddress": "- Address of the NFT registry"
        }
      },
      "constructor": {
        "details": "Initialize this contract. Acts as a constructor",
        "params": {
          "_acceptedToken": "- currency for payments"
        }
      },
      "createOrder(address,uint256,uint256,uint256)": {
        "details": "Creates a new order",
        "params": {
          "_assetId": "- ID of the published NFT",
          "_expiresAt": "- Duration of the order (in hours)",
          "_nftAddress": "- Non fungible registry address",
          "_priceInWei": "- Price in Wei for the supported coin"
        }
      },
      "onERC721Received(address,address,uint256,bytes)": {
        "details": "See {IERC721Receiver-onERC721Received}. Always returns `IERC721Receiver.onERC721Received.selector`."
      },
      "owner()": {
        "details": "Returns the address of the current owner."
      },
      "paused()": {
        "details": "Returns true if the contract is paused, and false otherwise."
      },
      "renounceOwnership()": {
        "details": "Leaves the contract without owner. It will not be possible to call `onlyOwner` functions anymore. Can only be called by the current owner. NOTE: Renouncing ownership will leave the contract without an owner, thereby removing any functionality that is only available to the owner."
      },
      "safeExecuteOrder(address,uint256,uint256,bytes32)": {
        "details": "Executes the sale for a published NFT and checks for the asset fingerprint",
        "params": {
          "_assetId": "- ID of the published NFT",
          "_fingerprint": "- Verification info for the asset",
          "_nftAddress": "- Address of the NFT registry",
          "_priceInWei": "- Order price"
        }
      },
      "safePlaceBid(address,uint256,uint256,uint256,bytes32)": {
        "details": "Places a bid for a published NFT and checks for the asset fingerprint",
        "params": {
          "_assetId": "- ID of the published NFT",
          "_expiresAt": "- Bid expiration time",
          "_fingerprint": "- Verification info for the asset",
          "_nftAddress": "- Address of the NFT registry",
          "_priceInWei": "- Bid price in acceptedToken currency"
        }
      },
      "setOwnerCutPerMillion(uint256)": {
        "details": "Sets the share cut for the owner of the contract that's  charged to the seller on a successful sale",
        "params": {
          "_cutPerMillion": "- Share amount, from 0 to 99,999"
        }
      },
      "setPaused(bool)": {
        "details": "Sets the paused failsafe. Can only be called by owner",
        "params": {
          "_setPaused": "- paused state"
        }
      },
      "transferOwnership(address)": {
        "details": "Transfers ownership of the contract to a new account (`newOwner`). Can only be called by the current owner."
      },
      "updateOrder(address,uint256,uint256,uint256)": {
        "details": "Update an already published order  can only be updated by seller",
        "params": {
          "_assetId": "- ID of the published NFT",
          "_nftAddress": "- Address of the NFT registry"
        }
      }
    }
  },
  "userdoc": {
    "methods": {}
  }
}