{
  "contractName": "RewardRegistry",
  "abi": [
    {
      "inputs": [
        {
          "internalType": "address",
          "name": "_feesCollector",
          "type": "address"
        },
        {
          "internalType": "string",
          "name": "_baseUri",
          "type": "string"
        }
      ],
      "stateMutability": "nonpayable",
      "type": "constructor"
    },
    {
      "anonymous": false,
      "inputs": [
        {
          "indexed": true,
          "internalType": "address",
          "name": "owner",
          "type": "address"
        },
        {
          "indexed": true,
          "internalType": "address",
          "name": "approved",
          "type": "address"
        },
        {
          "indexed": true,
          "internalType": "uint256",
          "name": "tokenId",
          "type": "uint256"
        }
      ],
      "name": "Approval",
      "type": "event"
    },
    {
      "anonymous": false,
      "inputs": [
        {
          "indexed": true,
          "internalType": "address",
          "name": "owner",
          "type": "address"
        },
        {
          "indexed": true,
          "internalType": "address",
          "name": "operator",
          "type": "address"
        },
        {
          "indexed": false,
          "internalType": "bool",
          "name": "approved",
          "type": "bool"
        }
      ],
      "name": "ApprovalForAll",
      "type": "event"
    },
    {
      "anonymous": false,
      "inputs": [
        {
          "indexed": false,
          "internalType": "string",
          "name": "baseURI",
          "type": "string"
        }
      ],
      "name": "BaseURIChange",
      "type": "event"
    },
    {
      "anonymous": false,
      "inputs": [
        {
          "indexed": true,
          "internalType": "address",
          "name": "collector",
          "type": "address"
        }
      ],
      "name": "FeesCollectorChange",
      "type": "event"
    },
    {
      "anonymous": false,
      "inputs": [
        {
          "indexed": true,
          "internalType": "address",
          "name": "from",
          "type": "address"
        },
        {
          "indexed": true,
          "internalType": "uint256",
          "name": "tokenId",
          "type": "uint256"
        },
        {
          "indexed": true,
          "internalType": "address",
          "name": "collateralRegistry",
          "type": "address"
        },
        {
          "indexed": false,
          "internalType": "uint256",
          "name": "collateralAmount",
          "type": "uint256"
        },
        {
          "indexed": false,
          "internalType": "uint256",
          "name": "releaseTime",
          "type": "uint256"
        }
      ],
      "name": "ItemCreated",
      "type": "event"
    },
    {
      "anonymous": false,
      "inputs": [
        {
          "indexed": true,
          "internalType": "address",
          "name": "from",
          "type": "address"
        },
        {
          "indexed": true,
          "internalType": "uint256",
          "name": "tokenId",
          "type": "uint256"
        },
        {
          "indexed": true,
          "internalType": "address",
          "name": "collateralRegistry",
          "type": "address"
        },
        {
          "indexed": false,
          "internalType": "uint256",
          "name": "collateralAmount",
          "type": "uint256"
        }
      ],
      "name": "ItemRedeemed",
      "type": "event"
    },
    {
      "anonymous": false,
      "inputs": [
        {
          "indexed": true,
          "internalType": "address",
          "name": "previousOwner",
          "type": "address"
        },
        {
          "indexed": true,
          "internalType": "address",
          "name": "newOwner",
          "type": "address"
        }
      ],
      "name": "OwnershipTransferred",
      "type": "event"
    },
    {
      "anonymous": false,
      "inputs": [
        {
          "indexed": true,
          "internalType": "address",
          "name": "from",
          "type": "address"
        },
        {
          "indexed": true,
          "internalType": "address",
          "name": "to",
          "type": "address"
        },
        {
          "indexed": true,
          "internalType": "uint256",
          "name": "tokenId",
          "type": "uint256"
        }
      ],
      "name": "Transfer",
      "type": "event"
    },
    {
      "inputs": [],
      "name": "FEES_PRECISION",
      "outputs": [
        {
          "internalType": "uint256",
          "name": "",
          "type": "uint256"
        }
      ],
      "stateMutability": "view",
      "type": "function"
    },
    {
      "inputs": [
        {
          "internalType": "address",
          "name": "to",
          "type": "address"
        },
        {
          "internalType": "uint256",
          "name": "tokenId",
          "type": "uint256"
        }
      ],
      "name": "approve",
      "outputs": [],
      "stateMutability": "nonpayable",
      "type": "function"
    },
    {
      "inputs": [
        {
          "internalType": "address",
          "name": "owner",
          "type": "address"
        }
      ],
      "name": "balanceOf",
      "outputs": [
        {
          "internalType": "uint256",
          "name": "",
          "type": "uint256"
        }
      ],
      "stateMutability": "view",
      "type": "function"
    },
    {
      "inputs": [],
      "name": "baseURI",
      "outputs": [
        {
          "internalType": "string",
          "name": "",
          "type": "string"
        }
      ],
      "stateMutability": "view",
      "type": "function"
    },
    {
      "inputs": [],
      "name": "creationFee",
      "outputs": [
        {
          "internalType": "uint256",
          "name": "",
          "type": "uint256"
        }
      ],
      "stateMutability": "view",
      "type": "function"
    },
    {
      "inputs": [],
      "name": "feesCollector",
      "outputs": [
        {
          "internalType": "address",
          "name": "",
          "type": "address"
        }
      ],
      "stateMutability": "view",
      "type": "function"
    },
    {
      "inputs": [
        {
          "internalType": "uint256",
          "name": "tokenId",
          "type": "uint256"
        }
      ],
      "name": "getApproved",
      "outputs": [
        {
          "internalType": "address",
          "name": "",
          "type": "address"
        }
      ],
      "stateMutability": "view",
      "type": "function"
    },
    {
      "inputs": [
        {
          "internalType": "address",
          "name": "_erc20Address",
          "type": "address"
        }
      ],
      "name": "getMappedToken",
      "outputs": [
        {
          "internalType": "address",
          "name": "",
          "type": "address"
        }
      ],
      "stateMutability": "view",
      "type": "function"
    },
    {
      "inputs": [
        {
          "internalType": "address",
          "name": "owner",
          "type": "address"
        },
        {
          "internalType": "address",
          "name": "operator",
          "type": "address"
        }
      ],
      "name": "isApprovedForAll",
      "outputs": [
        {
          "internalType": "bool",
          "name": "",
          "type": "bool"
        }
      ],
      "stateMutability": "view",
      "type": "function"
    },
    {
      "inputs": [],
      "name": "name",
      "outputs": [
        {
          "internalType": "string",
          "name": "",
          "type": "string"
        }
      ],
      "stateMutability": "view",
      "type": "function"
    },
    {
      "inputs": [],
      "name": "owner",
      "outputs": [
        {
          "internalType": "address",
          "name": "",
          "type": "address"
        }
      ],
      "stateMutability": "view",
      "type": "function"
    },
    {
      "inputs": [
        {
          "internalType": "uint256",
          "name": "tokenId",
          "type": "uint256"
        }
      ],
      "name": "ownerOf",
      "outputs": [
        {
          "internalType": "address",
          "name": "",
          "type": "address"
        }
      ],
      "stateMutability": "view",
      "type": "function"
    },
    {
      "inputs": [
        {
          "internalType": "uint256",
          "name": "_amount",
          "type": "uint256"
        },
        {
          "internalType": "address",
          "name": "_cErc20Contract",
          "type": "address"
        }
      ],
      "name": "redeemCToken",
      "outputs": [],
      "stateMutability": "nonpayable",
      "type": "function"
    },
    {
      "inputs": [],
      "name": "renounceOwnership",
      "outputs": [],
      "stateMutability": "nonpayable",
      "type": "function"
    },
    {
      "inputs": [
        {
          "internalType": "uint256",
          "name": "",
          "type": "uint256"
        }
      ],
      "name": "rewardsMap",
      "outputs": [
        {
          "internalType": "uint256",
          "name": "tokenAmount",
          "type": "uint256"
        },
        {
          "internalType": "uint256",
          "name": "releaseTime",
          "type": "uint256"
        },
        {
          "internalType": "address",
          "name": "tokenRegistry",
          "type": "address"
        },
        {
          "internalType": "bytes32",
          "name": "metaDataHash",
          "type": "bytes32"
        }
      ],
      "stateMutability": "view",
      "type": "function"
    },
    {
      "inputs": [
        {
          "internalType": "address",
          "name": "from",
          "type": "address"
        },
        {
          "internalType": "address",
          "name": "to",
          "type": "address"
        },
        {
          "internalType": "uint256",
          "name": "tokenId",
          "type": "uint256"
        }
      ],
      "name": "safeTransferFrom",
      "outputs": [],
      "stateMutability": "nonpayable",
      "type": "function"
    },
    {
      "inputs": [
        {
          "internalType": "address",
          "name": "from",
          "type": "address"
        },
        {
          "internalType": "address",
          "name": "to",
          "type": "address"
        },
        {
          "internalType": "uint256",
          "name": "tokenId",
          "type": "uint256"
        },
        {
          "internalType": "bytes",
          "name": "_data",
          "type": "bytes"
        }
      ],
      "name": "safeTransferFrom",
      "outputs": [],
      "stateMutability": "nonpayable",
      "type": "function"
    },
    {
      "inputs": [
        {
          "internalType": "address",
          "name": "operator",
          "type": "address"
        },
        {
          "internalType": "bool",
          "name": "approved",
          "type": "bool"
        }
      ],
      "name": "setApprovalForAll",
      "outputs": [],
      "stateMutability": "nonpayable",
      "type": "function"
    },
    {
      "inputs": [
        {
          "internalType": "address",
          "name": "_erc20Address",
          "type": "address"
        },
        {
          "internalType": "address",
          "name": "_cErc20Address",
          "type": "address"
        }
      ],
      "name": "setTokenPair",
      "outputs": [],
      "stateMutability": "nonpayable",
      "type": "function"
    },
    {
      "inputs": [
        {
          "internalType": "address",
          "name": "_erc20Contract",
          "type": "address"
        },
        {
          "internalType": "uint256",
          "name": "_numTokensToSupply",
          "type": "uint256"
        }
      ],
      "name": "supplyErc20",
      "outputs": [
        {
          "internalType": "uint256",
          "name": "",
          "type": "uint256"
        },
        {
          "internalType": "address",
          "name": "",
          "type": "address"
        }
      ],
      "stateMutability": "nonpayable",
      "type": "function"
    },
    {
      "inputs": [
        {
          "internalType": "uint256",
          "name": "_amount",
          "type": "uint256"
        }
      ],
      "name": "supplyEth",
      "outputs": [
        {
          "internalType": "uint256",
          "name": "",
          "type": "uint256"
        },
        {
          "internalType": "address",
          "name": "",
          "type": "address"
        }
      ],
      "stateMutability": "payable",
      "type": "function"
    },
    {
      "inputs": [
        {
          "internalType": "bytes4",
          "name": "interfaceId",
          "type": "bytes4"
        }
      ],
      "name": "supportsInterface",
      "outputs": [
        {
          "internalType": "bool",
          "name": "",
          "type": "bool"
        }
      ],
      "stateMutability": "view",
      "type": "function"
    },
    {
      "inputs": [],
      "name": "symbol",
      "outputs": [
        {
          "internalType": "string",
          "name": "",
          "type": "string"
        }
      ],
      "stateMutability": "view",
      "type": "function"
    },
    {
      "inputs": [
        {
          "internalType": "uint256",
          "name": "index",
          "type": "uint256"
        }
      ],
      "name": "tokenByIndex",
      "outputs": [
        {
          "internalType": "uint256",
          "name": "",
          "type": "uint256"
        }
      ],
      "stateMutability": "view",
      "type": "function"
    },
    {
      "inputs": [
        {
          "internalType": "address",
          "name": "owner",
          "type": "address"
        },
        {
          "internalType": "uint256",
          "name": "index",
          "type": "uint256"
        }
      ],
      "name": "tokenOfOwnerByIndex",
      "outputs": [
        {
          "internalType": "uint256",
          "name": "",
          "type": "uint256"
        }
      ],
      "stateMutability": "view",
      "type": "function"
    },
    {
      "inputs": [
        {
          "internalType": "uint256",
          "name": "tokenId",
          "type": "uint256"
        }
      ],
      "name": "tokenURI",
      "outputs": [
        {
          "internalType": "string",
          "name": "",
          "type": "string"
        }
      ],
      "stateMutability": "view",
      "type": "function"
    },
    {
      "inputs": [],
      "name": "totalSupply",
      "outputs": [
        {
          "internalType": "uint256",
          "name": "",
          "type": "uint256"
        }
      ],
      "stateMutability": "view",
      "type": "function"
    },
    {
      "inputs": [
        {
          "internalType": "address",
          "name": "from",
          "type": "address"
        },
        {
          "internalType": "address",
          "name": "to",
          "type": "address"
        },
        {
          "internalType": "uint256",
          "name": "tokenId",
          "type": "uint256"
        }
      ],
      "name": "transferFrom",
      "outputs": [],
      "stateMutability": "nonpayable",
      "type": "function"
    },
    {
      "inputs": [
        {
          "internalType": "address",
          "name": "newOwner",
          "type": "address"
        }
      ],
      "name": "transferOwnership",
      "outputs": [],
      "stateMutability": "nonpayable",
      "type": "function"
    },
    {
      "inputs": [
        {
          "internalType": "string",
          "name": "_baseUri",
          "type": "string"
        }
      ],
      "name": "setBaseURI",
      "outputs": [],
      "stateMutability": "nonpayable",
      "type": "function"
    },
    {
      "inputs": [
        {
          "internalType": "address",
          "name": "_collector",
          "type": "address"
        }
      ],
      "name": "setFeesCollector",
      "outputs": [],
      "stateMutability": "nonpayable",
      "type": "function"
    },
    {
      "inputs": [
        {
          "internalType": "uint256",
          "name": "_amount",
          "type": "uint256"
        },
        {
          "internalType": "address",
          "name": "_registry",
          "type": "address"
        },
        {
          "internalType": "uint256",
          "name": "_redeemableFrom",
          "type": "uint256"
        },
        {
          "internalType": "string",
          "name": "_metaDataURI",
          "type": "string"
        },
        {
          "internalType": "string",
          "name": "_metaData",
          "type": "string"
        }
      ],
      "name": "create",
      "outputs": [],
      "stateMutability": "payable",
      "type": "function"
    },
    {
      "inputs": [
        {
          "internalType": "string",
          "name": "_metaData",
          "type": "string"
        }
      ],
      "name": "getMetaDataHash",
      "outputs": [
        {
          "internalType": "bytes32",
          "name": "",
          "type": "bytes32"
        }
      ],
      "stateMutability": "pure",
      "type": "function"
    },
    {
      "inputs": [
        {
          "internalType": "uint256",
          "name": "_tokenId",
          "type": "uint256"
        }
      ],
      "name": "redeem",
      "outputs": [],
      "stateMutability": "nonpayable",
      "type": "function"
    }
  ],
  "bytecode": "0x60806040526019600d553480156200001657600080fd5b5060405162005d4538038062005d45833981810160405260408110156200003c57600080fd5b8101908080519060200190929190805160405193929190846401000000008211156200006757600080fd5b838201915060208201858111156200007e57600080fd5b82518660018202830111640100000000821117156200009c57600080fd5b8083526020830192505050908051906020019080838360005b83811015620000d2578082015181840152602081019050620000b5565b50505050905090810190601f168015620001005780820380516001836020036101000a031916815260200191505b506040525050506040518060400160405280601781526020017f556e73746f707061626c652072656465656d61626c65730000000000000000008152506040518060400160405280600681526020017f52454445454d00000000000000000000000000000000000000000000000000008152506200018b6301ffc9a760e01b620002e260201b60201c565b60006200019d620003eb60201b60201c565b905080600160006101000a81548173ffffffffffffffffffffffffffffffffffffffff021916908373ffffffffffffffffffffffffffffffffffffffff1602179055508073ffffffffffffffffffffffffffffffffffffffff16600073ffffffffffffffffffffffffffffffffffffffff167f8be0079c531659141344cd1fd0a4f28419497f9722a3daafe3b4186f6b6457e060405160405180910390a350816007908051906020019062000254929190620006f3565b5080600890805190602001906200026d929190620006f3565b50620002866380ac58cd60e01b620002e260201b60201c565b6200029e635b5e139f60e01b620002e260201b60201c565b620002b663780e9d6360e01b620002e260201b60201c565b5050620002c982620003f360201b60201c565b620002da816200053a60201b60201c565b5050620007a2565b63ffffffff60e01b817bffffffffffffffffffffffffffffffffffffffffffffffffffffffff191614156200037f576040517f08c379a000000000000000000000000000000000000000000000000000000000815260040180806020018281038252601c8152602001807f4552433136353a20696e76616c696420696e746572666163652069640000000081525060200191505060405180910390fd5b6001600080837bffffffffffffffffffffffffffffffffffffffffffffffffffffffff19167bffffffffffffffffffffffffffffffffffffffffffffffffffffffff1916815260200190815260200160002060006101000a81548160ff02191690831515021790555050565b600033905090565b62000403620003eb60201b60201c565b73ffffffffffffffffffffffffffffffffffffffff1662000429620006ad60201b60201c565b73ffffffffffffffffffffffffffffffffffffffff1614620004b3576040517f08c379a00000000000000000000000000000000000000000000000000000000081526004018080602001828103825260208152602001807f4f776e61626c653a2063616c6c6572206973206e6f7420746865206f776e657281525060200191505060405180910390fd5b80600e60006101000a81548173ffffffffffffffffffffffffffffffffffffffff021916908373ffffffffffffffffffffffffffffffffffffffff1602179055508073ffffffffffffffffffffffffffffffffffffffff167fba265e20be387f8937b3b82562be8389bc8d09d0342f59413cdbc3dd414e564260405160405180910390a250565b6200054a620003eb60201b60201c565b73ffffffffffffffffffffffffffffffffffffffff1662000570620006ad60201b60201c565b73ffffffffffffffffffffffffffffffffffffffff1614620005fa576040517f08c379a00000000000000000000000000000000000000000000000000000000081526004018080602001828103825260208152602001807f4f776e61626c653a2063616c6c6572206973206e6f7420746865206f776e657281525060200191505060405180910390fd5b6200060b81620006d760201b60201c565b7fa1e4fe82e2a65657cfd59fd66da1338be7d996f649643c161b7c24b1de80fca9816040518080602001828103825283818151815260200191508051906020019080838360005b838110156200066f57808201518184015260208101905062000652565b50505050905090810190601f1680156200069d5780820380516001836020036101000a031916815260200191505b509250505060405180910390a150565b6000600160009054906101000a900473ffffffffffffffffffffffffffffffffffffffff16905090565b80600a9080519060200190620006ef929190620006f3565b5050565b828054600181600116156101000203166002900490600052602060002090601f016020900481019282601f106200073657805160ff191683800117855562000767565b8280016001018555821562000767579182015b828111156200076657825182559160200191906001019062000749565b5b5090506200077691906200077a565b5090565b6200079f91905b808211156200079b57600081600090555060010162000781565b5090565b90565b61559380620007b26000396000f3fe6080604052600436106101f95760003560e01c80636352211e1161010d5780639cf160f6116100a0578063c87b56dd1161006f578063c87b56dd1461100f578063db006a75146110c3578063dce0b4e4146110fe578063e985e9c514611129578063f2fde38b146111b2576101f9565b80639cf160f614610dd8578063a22cb46514610e2f578063b517f7cb14610e8c578063b88d4fde14610efd576101f9565b8063715018a6116100dc578063715018a614610c495780637688a47d14610c605780638da5cb5b14610cf157806395d89b4114610d48576101f9565b80636352211e14610aae57806365df939614610b295780636c0360eb14610b5457806370a0823114610be4576101f9565b80631a8812bd11610190578063373071f21161015f578063373071f2146107ef57806342842e0e146108405780634f64f049146108bb5780634f6ccce71461099757806355f804b3146109e6576101f9565b80631a8812bd146105d357806323b872dd146106635780632f745c59146106de5780632fc1a6c51461074d576101f9565b80630a3d6561116101cc5780630a3d6561146103d657806314c84f161461043157806318160ddd146104a6578063183755a8146104d1576101f9565b806301ffc9a7146101fe57806306fdde0314610270578063081812fc14610300578063095ea7b31461037b575b600080fd5b34801561020a57600080fd5b506102566004803603602081101561022157600080fd5b8101908080357bffffffffffffffffffffffffffffffffffffffffffffffffffffffff19169060200190929190505050611203565b604051808215151515815260200191505060405180910390f35b34801561027c57600080fd5b5061028561126a565b6040518080602001828103825283818151815260200191508051906020019080838360005b838110156102c55780820151818401526020810190506102aa565b50505050905090810190601f1680156102f25780820380516001836020036101000a031916815260200191505b509250505060405180910390f35b34801561030c57600080fd5b506103396004803603602081101561032357600080fd5b810190808035906020019092919050505061130c565b604051808273ffffffffffffffffffffffffffffffffffffffff1673ffffffffffffffffffffffffffffffffffffffff16815260200191505060405180910390f35b34801561038757600080fd5b506103d46004803603604081101561039e57600080fd5b81019080803573ffffffffffffffffffffffffffffffffffffffff169060200190929190803590602001909291905050506113a7565b005b3480156103e257600080fd5b5061042f600480360360408110156103f957600080fd5b8101908080359060200190929190803573ffffffffffffffffffffffffffffffffffffffff1690602001909291905050506114eb565b005b61045d6004803603602081101561044757600080fd5b810190808035906020019092919050505061167e565b604051808381526020018273ffffffffffffffffffffffffffffffffffffffff1673ffffffffffffffffffffffffffffffffffffffff1681526020019250505060405180910390f35b3480156104b257600080fd5b506104bb6117a5565b6040518082815260200191505060405180910390f35b6105d1600480360360a08110156104e757600080fd5b8101908080359060200190929190803573ffffffffffffffffffffffffffffffffffffffff169060200190929190803590602001909291908035906020019064010000000081111561053857600080fd5b82018360208201111561054a57600080fd5b8035906020019184600183028401116401000000008311171561056c57600080fd5b90919293919293908035906020019064010000000081111561058d57600080fd5b82018360208201111561059f57600080fd5b803590602001918460018302840111640100000000831117156105c157600080fd5b90919293919293905050506117b6565b005b3480156105df57600080fd5b5061060c600480360360208110156105f657600080fd5b8101908080359060200190929190505050611abf565b604051808581526020018481526020018373ffffffffffffffffffffffffffffffffffffffff1673ffffffffffffffffffffffffffffffffffffffff16815260200182815260200194505050505060405180910390f35b34801561066f57600080fd5b506106dc6004803603606081101561068657600080fd5b81019080803573ffffffffffffffffffffffffffffffffffffffff169060200190929190803573ffffffffffffffffffffffffffffffffffffffff16906020019092919080359060200190929190505050611b0f565b005b3480156106ea57600080fd5b506107376004803603604081101561070157600080fd5b81019080803573ffffffffffffffffffffffffffffffffffffffff16906020019092919080359060200190929190505050611b85565b6040518082815260200191505060405180910390f35b34801561075957600080fd5b506107a66004803603604081101561077057600080fd5b81019080803573ffffffffffffffffffffffffffffffffffffffff16906020019092919080359060200190929190505050611be0565b604051808381526020018273ffffffffffffffffffffffffffffffffffffffff1673ffffffffffffffffffffffffffffffffffffffff1681526020019250505060405180910390f35b3480156107fb57600080fd5b5061083e6004803603602081101561081257600080fd5b81019080803573ffffffffffffffffffffffffffffffffffffffff169060200190929190505050611db8565b005b34801561084c57600080fd5b506108b96004803603606081101561086357600080fd5b81019080803573ffffffffffffffffffffffffffffffffffffffff169060200190929190803573ffffffffffffffffffffffffffffffffffffffff16906020019092919080359060200190929190505050611eee565b005b3480156108c757600080fd5b50610981600480360360208110156108de57600080fd5b81019080803590602001906401000000008111156108fb57600080fd5b82018360208201111561090d57600080fd5b8035906020019184600183028401116401000000008311171561092f57600080fd5b91908080601f016020809104026020016040519081016040528093929190818152602001838380828437600081840152601f19601f820116905080830192505050505050509192919290505050611f0e565b6040518082815260200191505060405180910390f35b3480156109a357600080fd5b506109d0600480360360208110156109ba57600080fd5b8101908080359060200190929190505050611fdc565b6040518082815260200191505060405180910390f35b3480156109f257600080fd5b50610aac60048036036020811015610a0957600080fd5b8101908080359060200190640100000000811115610a2657600080fd5b820183602082011115610a3857600080fd5b80359060200191846001830284011164010000000083111715610a5a57600080fd5b91908080601f016020809104026020016040519081016040528093929190818152602001838380828437600081840152601f19601f820116905080830192505050505050509192919290505050611fff565b005b348015610aba57600080fd5b50610ae760048036036020811015610ad157600080fd5b8101908080359060200190929190505050612156565b604051808273ffffffffffffffffffffffffffffffffffffffff1673ffffffffffffffffffffffffffffffffffffffff16815260200191505060405180910390f35b348015610b3557600080fd5b50610b3e61218d565b6040518082815260200191505060405180910390f35b348015610b6057600080fd5b50610b69612193565b6040518080602001828103825283818151815260200191508051906020019080838360005b83811015610ba9578082015181840152602081019050610b8e565b50505050905090810190601f168015610bd65780820380516001836020036101000a031916815260200191505b509250505060405180910390f35b348015610bf057600080fd5b50610c3360048036036020811015610c0757600080fd5b81019080803573ffffffffffffffffffffffffffffffffffffffff169060200190929190505050612235565b6040518082815260200191505060405180910390f35b348015610c5557600080fd5b50610c5e61230a565b005b348015610c6c57600080fd5b50610caf60048036036020811015610c8357600080fd5b81019080803573ffffffffffffffffffffffffffffffffffffffff16906020019092919050505061247a565b604051808273ffffffffffffffffffffffffffffffffffffffff1673ffffffffffffffffffffffffffffffffffffffff16815260200191505060405180910390f35b348015610cfd57600080fd5b50610d066124e3565b604051808273ffffffffffffffffffffffffffffffffffffffff1673ffffffffffffffffffffffffffffffffffffffff16815260200191505060405180910390f35b348015610d5457600080fd5b50610d5d61250d565b6040518080602001828103825283818151815260200191508051906020019080838360005b83811015610d9d578082015181840152602081019050610d82565b50505050905090810190601f168015610dca5780820380516001836020036101000a031916815260200191505b509250505060405180910390f35b348015610de457600080fd5b50610ded6125af565b604051808273ffffffffffffffffffffffffffffffffffffffff1673ffffffffffffffffffffffffffffffffffffffff16815260200191505060405180910390f35b348015610e3b57600080fd5b50610e8a60048036036040811015610e5257600080fd5b81019080803573ffffffffffffffffffffffffffffffffffffffff1690602001909291908035151590602001909291905050506125d5565b005b348015610e9857600080fd5b50610efb60048036036040811015610eaf57600080fd5b81019080803573ffffffffffffffffffffffffffffffffffffffff169060200190929190803573ffffffffffffffffffffffffffffffffffffffff16906020019092919050505061278d565b005b348015610f0957600080fd5b5061100d60048036036080811015610f2057600080fd5b81019080803573ffffffffffffffffffffffffffffffffffffffff169060200190929190803573ffffffffffffffffffffffffffffffffffffffff1690602001909291908035906020019092919080359060200190640100000000811115610f8757600080fd5b820183602082011115610f9957600080fd5b80359060200191846001830284011164010000000083111715610fbb57600080fd5b91908080601f016020809104026020016040519081016040528093929190818152602001838380828437600081840152601f19601f8201169050808301925050505050505091929192905050506128be565b005b34801561101b57600080fd5b506110486004803603602081101561103257600080fd5b8101908080359060200190929190505050612936565b6040518080602001828103825283818151815260200191508051906020019080838360005b8381101561108857808201518184015260208101905061106d565b50505050905090810190601f1680156110b55780820380516001836020036101000a031916815260200191505b509250505060405180910390f35b3480156110cf57600080fd5b506110fc600480360360208110156110e657600080fd5b8101908080359060200190929190505050612c07565b005b34801561110a57600080fd5b50611113612ef3565b6040518082815260200191505060405180910390f35b34801561113557600080fd5b506111986004803603604081101561114c57600080fd5b81019080803573ffffffffffffffffffffffffffffffffffffffff169060200190929190803573ffffffffffffffffffffffffffffffffffffffff169060200190929190505050612ef9565b604051808215151515815260200191505060405180910390f35b3480156111be57600080fd5b50611201600480360360208110156111d557600080fd5b81019080803573ffffffffffffffffffffffffffffffffffffffff169060200190929190505050612f8d565b005b6000806000837bffffffffffffffffffffffffffffffffffffffffffffffffffffffff19167bffffffffffffffffffffffffffffffffffffffffffffffffffffffff1916815260200190815260200160002060009054906101000a900460ff169050919050565b606060078054600181600116156101000203166002900480601f0160208091040260200160405190810160405280929190818152602001828054600181600116156101000203166002900480156113025780601f106112d757610100808354040283529160200191611302565b820191906000526020600020905b8154815290600101906020018083116112e557829003601f168201915b5050505050905090565b600061131782613182565b61136c576040517f08c379a000000000000000000000000000000000000000000000000000000000815260040180806020018281038252602c815260200180615399602c913960400191505060405180910390fd5b6005600083815260200190815260200160002060009054906101000a900473ffffffffffffffffffffffffffffffffffffffff169050919050565b60006113b282612156565b90508073ffffffffffffffffffffffffffffffffffffffff168373ffffffffffffffffffffffffffffffffffffffff161415611439576040517f08c379a00000000000000000000000000000000000000000000000000000000081526004018080602001828103825260218152602001806154496021913960400191505060405180910390fd5b8073ffffffffffffffffffffffffffffffffffffffff1661145861319f565b73ffffffffffffffffffffffffffffffffffffffff16148061148757506114868161148161319f565b612ef9565b5b6114dc576040517f08c379a00000000000000000000000000000000000000000000000000000000081526004018080602001828103825260388152602001806152906038913960400191505060405180910390fd5b6114e683836131a7565b505050565b600073ffffffffffffffffffffffffffffffffffffffff168173ffffffffffffffffffffffffffffffffffffffff161415611571576040517f08c379a00000000000000000000000000000000000000000000000000000000081526004018080602001828103825260218152602001806151ed6021913960400191505060405180910390fd5b60008173ffffffffffffffffffffffffffffffffffffffff1663db006a75846040518263ffffffff1660e01b815260040180828152602001915050602060405180830381600087803b1580156115c657600080fd5b505af11580156115da573d6000803e3d6000fd5b505050506040513d60208110156115f057600080fd5b8101908080519060200190929190505050905060008114611679576040517f08c379a00000000000000000000000000000000000000000000000000000000081526004018080602001828103825260208152602001807f434d616e616765723a206572726f722063616c6c696e672072656465656d282981525060200191505060405180910390fd5b505050565b600080600061168d600061247a565b9050600073ffffffffffffffffffffffffffffffffffffffff168173ffffffffffffffffffffffffffffffffffffffff161415611732576040517f08c379a000000000000000000000000000000000000000000000000000000000815260040180806020018281038252601f8152602001807f434d616e616765723a2061646472657373283029206e6f74206d61707065640081525060200191505060405180910390fd5b8073ffffffffffffffffffffffffffffffffffffffff16631249c58b856203d090906040518363ffffffff1660e01b81526004016000604051808303818589803b15801561177f57600080fd5b5088f1158015611793573d6000803e3d6000fd5b50505050505083819250925050915091565b60006117b16003613260565b905090565b6000871161180f576040517f08c379a000000000000000000000000000000000000000000000000000000000815260040180806020018281038252602981526020018061546a6029913960400191505060405180910390fd5b428511611867576040517f08c379a000000000000000000000000000000000000000000000000000000000815260040180806020018281038252603b815260200180615113603b913960400191505060405180910390fd5b60006118926103e8611884600d548b61327590919063ffffffff16565b6132fb90919063ffffffff16565b9050600073ffffffffffffffffffffffffffffffffffffffff168773ffffffffffffffffffffffffffffffffffffffff1614156118d8576118d38882613384565b6118e4565b6118e38888836134bb565b5b60006118ee6117a5565b905060405180608001604052808a81526020018881526020018973ffffffffffffffffffffffffffffffffffffffff16815260200161197086868080601f016020809104026020016040519081016040528093929190818152602001838380828437600081840152601f19601f82011690508083019250505050505050611f0e565b815250600c6000838152602001908152602001600020600082015181600001556020820151816001015560408201518160020160006101000a81548173ffffffffffffffffffffffffffffffffffffffff021916908373ffffffffffffffffffffffffffffffffffffffff160217905550606082015181600301559050506119f8338261365e565b611a468187878080601f016020809104026020016040519081016040528093929190818152602001838380828437600081840152601f19601f82011690508083019250505050505050613852565b8773ffffffffffffffffffffffffffffffffffffffff16813373ffffffffffffffffffffffffffffffffffffffff167f02983e01b4d35f98d615f5ca58a73ee1fe298e6bc421551fcab719d4b600eb6d8c8b604051808381526020018281526020019250505060405180910390a4505050505050505050565b600c6020528060005260406000206000915090508060000154908060010154908060020160009054906101000a900473ffffffffffffffffffffffffffffffffffffffff16908060030154905084565b611b20611b1a61319f565b826138dc565b611b75576040517f08c379a00000000000000000000000000000000000000000000000000000000081526004018080602001828103825260318152602001806154936031913960400191505060405180910390fd5b611b808383836139d0565b505050565b6000611bd882600260008673ffffffffffffffffffffffffffffffffffffffff1673ffffffffffffffffffffffffffffffffffffffff168152602001908152602001600020613c1390919063ffffffff16565b905092915050565b6000806000611bee8561247a565b9050600073ffffffffffffffffffffffffffffffffffffffff168173ffffffffffffffffffffffffffffffffffffffff161415611c76576040517f08c379a00000000000000000000000000000000000000000000000000000000081526004018080602001828103825260238152602001806151a66023913960400191505060405180910390fd5b611ca181858773ffffffffffffffffffffffffffffffffffffffff16613c2d9092919063ffffffff16565b60008173ffffffffffffffffffffffffffffffffffffffff1663a0712d68866040518263ffffffff1660e01b815260040180828152602001915050602060405180830381600087803b158015611cf657600080fd5b505af1158015611d0a573d6000803e3d6000fd5b505050506040513d6020811015611d2057600080fd5b8101908080519060200190929190505050905060008114611da9576040517f08c379a000000000000000000000000000000000000000000000000000000000815260040180806020018281038252601d8152602001807f434d616e616765723a206572726f72204345726332302e6d696e74282900000081525060200191505060405180910390fd5b84829350935050509250929050565b611dc061319f565b73ffffffffffffffffffffffffffffffffffffffff16611dde6124e3565b73ffffffffffffffffffffffffffffffffffffffff1614611e67576040517f08c379a00000000000000000000000000000000000000000000000000000000081526004018080602001828103825260208152602001807f4f776e61626c653a2063616c6c6572206973206e6f7420746865206f776e657281525060200191505060405180910390fd5b80600e60006101000a81548173ffffffffffffffffffffffffffffffffffffffff021916908373ffffffffffffffffffffffffffffffffffffffff1602179055508073ffffffffffffffffffffffffffffffffffffffff167fba265e20be387f8937b3b82562be8389bc8d09d0342f59413cdbc3dd414e564260405160405180910390a250565b611f09838383604051806020016040528060008152506128be565b505050565b600080826040516020018082805190602001908083835b60208310611f485780518252602082019150602081019050602083039250611f25565b6001836020036101000a0380198251168184511680821785525050505050509050019150506040516020818303038152906040528051906020012090508060405160200180807f19457468657265756d205369676e6564204d6573736167653a0a333200000000815250601c0182815260200191505060405160208183030381529060405280519060200120915050919050565b600080611ff3836003613de890919063ffffffff16565b50905080915050919050565b61200761319f565b73ffffffffffffffffffffffffffffffffffffffff166120256124e3565b73ffffffffffffffffffffffffffffffffffffffff16146120ae576040517f08c379a00000000000000000000000000000000000000000000000000000000081526004018080602001828103825260208152602001807f4f776e61626c653a2063616c6c6572206973206e6f7420746865206f776e657281525060200191505060405180910390fd5b6120b781613e17565b7fa1e4fe82e2a65657cfd59fd66da1338be7d996f649643c161b7c24b1de80fca9816040518080602001828103825283818151815260200191508051906020019080838360005b838110156121195780820151818401526020810190506120fe565b50505050905090810190601f1680156121465780820380516001836020036101000a031916815260200191505b509250505060405180910390a150565b6000612186826040518060600160405280602981526020016152f2602991396003613e319092919063ffffffff16565b9050919050565b6103e881565b6060600a8054600181600116156101000203166002900480601f01602080910402602001604051908101604052809291908181526020018280546001816001161561010002031660029004801561222b5780601f106122005761010080835404028352916020019161222b565b820191906000526020600020905b81548152906001019060200180831161220e57829003601f168201915b5050505050905090565b60008073ffffffffffffffffffffffffffffffffffffffff168273ffffffffffffffffffffffffffffffffffffffff1614156122bc576040517f08c379a000000000000000000000000000000000000000000000000000000000815260040180806020018281038252602a8152602001806152c8602a913960400191505060405180910390fd5b612303600260008473ffffffffffffffffffffffffffffffffffffffff1673ffffffffffffffffffffffffffffffffffffffff168152602001908152602001600020613e50565b9050919050565b61231261319f565b73ffffffffffffffffffffffffffffffffffffffff166123306124e3565b73ffffffffffffffffffffffffffffffffffffffff16146123b9576040517f08c379a00000000000000000000000000000000000000000000000000000000081526004018080602001828103825260208152602001807f4f776e61626c653a2063616c6c6572206973206e6f7420746865206f776e657281525060200191505060405180910390fd5b600073ffffffffffffffffffffffffffffffffffffffff16600160009054906101000a900473ffffffffffffffffffffffffffffffffffffffff1673ffffffffffffffffffffffffffffffffffffffff167f8be0079c531659141344cd1fd0a4f28419497f9722a3daafe3b4186f6b6457e060405160405180910390a36000600160006101000a81548173ffffffffffffffffffffffffffffffffffffffff021916908373ffffffffffffffffffffffffffffffffffffffff160217905550565b6000600b60008373ffffffffffffffffffffffffffffffffffffffff1673ffffffffffffffffffffffffffffffffffffffff16815260200190815260200160002060009054906101000a900473ffffffffffffffffffffffffffffffffffffffff169050919050565b6000600160009054906101000a900473ffffffffffffffffffffffffffffffffffffffff16905090565b606060088054600181600116156101000203166002900480601f0160208091040260200160405190810160405280929190818152602001828054600181600116156101000203166002900480156125a55780601f1061257a576101008083540402835291602001916125a5565b820191906000526020600020905b81548152906001019060200180831161258857829003601f168201915b5050505050905090565b600e60009054906101000a900473ffffffffffffffffffffffffffffffffffffffff1681565b6125dd61319f565b73ffffffffffffffffffffffffffffffffffffffff168273ffffffffffffffffffffffffffffffffffffffff16141561267e576040517f08c379a00000000000000000000000000000000000000000000000000000000081526004018080602001828103825260198152602001807f4552433732313a20617070726f766520746f2063616c6c65720000000000000081525060200191505060405180910390fd5b806006600061268b61319f565b73ffffffffffffffffffffffffffffffffffffffff1673ffffffffffffffffffffffffffffffffffffffff16815260200190815260200160002060008473ffffffffffffffffffffffffffffffffffffffff1673ffffffffffffffffffffffffffffffffffffffff16815260200190815260200160002060006101000a81548160ff0219169083151502179055508173ffffffffffffffffffffffffffffffffffffffff1661273861319f565b73ffffffffffffffffffffffffffffffffffffffff167f17307eab39ab6107e8899845ad3d59bd9653f200f220920489ca2b5937696c3183604051808215151515815260200191505060405180910390a35050565b61279561319f565b73ffffffffffffffffffffffffffffffffffffffff166127b36124e3565b73ffffffffffffffffffffffffffffffffffffffff161461283c576040517f08c379a00000000000000000000000000000000000000000000000000000000081526004018080602001828103825260208152602001807f4f776e61626c653a2063616c6c6572206973206e6f7420746865206f776e657281525060200191505060405180910390fd5b80600b60008473ffffffffffffffffffffffffffffffffffffffff1673ffffffffffffffffffffffffffffffffffffffff16815260200190815260200160002060006101000a81548173ffffffffffffffffffffffffffffffffffffffff021916908373ffffffffffffffffffffffffffffffffffffffff1602179055505050565b6128cf6128c961319f565b836138dc565b612924576040517f08c379a00000000000000000000000000000000000000000000000000000000081526004018080602001828103825260318152602001806154936031913960400191505060405180910390fd5b61293084848484613e65565b50505050565b606061294182613182565b612996576040517f08c379a000000000000000000000000000000000000000000000000000000000815260040180806020018281038252602f81526020018061541a602f913960400191505060405180910390fd5b6060600960008481526020019081526020016000208054600181600116156101000203166002900480601f016020809104026020016040519081016040528092919081815260200182805460018160011615610100020316600290048015612a3f5780601f10612a1457610100808354040283529160200191612a3f565b820191906000526020600020905b815481529060010190602001808311612a2257829003601f168201915b505050505090506060612a50612193565b9050600081511415612a66578192505050612c02565b600082511115612b375780826040516020018083805190602001908083835b60208310612aa85780518252602082019150602081019050602083039250612a85565b6001836020036101000a03801982511681845116808217855250505050505090500182805190602001908083835b60208310612af95780518252602082019150602081019050602083039250612ad6565b6001836020036101000a0380198251168184511680821785525050505050509050019250505060405160208183030381529060405292505050612c02565b80612b4185613ed7565b6040516020018083805190602001908083835b60208310612b775780518252602082019150602081019050602083039250612b54565b6001836020036101000a03801982511681845116808217855250505050505090500182805190602001908083835b60208310612bc85780518252602082019150602081019050602083039250612ba5565b6001836020036101000a03801982511681845116808217855250505050505090500192505050604051602081830303815290604052925050505b919050565b612c18612c1261319f565b826138dc565b612c6d576040517f08c379a000000000000000000000000000000000000000000000000000000000815260040180806020018281038252603081526020018061520e6030913960400191505060405180910390fd5b612c75614fc2565b600c600083815260200190815260200160002060405180608001604052908160008201548152602001600182015481526020016002820160009054906101000a900473ffffffffffffffffffffffffffffffffffffffff1673ffffffffffffffffffffffffffffffffffffffff1673ffffffffffffffffffffffffffffffffffffffff16815260200160038201548152505090508060200151421015612d66576040517f08c379a000000000000000000000000000000000000000000000000000000000815260040180806020018281038252603381526020018061552b6033913960400191505060405180910390fd5b612d6f8261401e565b600073ffffffffffffffffffffffffffffffffffffffff16816040015173ffffffffffffffffffffffffffffffffffffffff161415612df8573373ffffffffffffffffffffffffffffffffffffffff166108fc82600001519081150290604051600060405180830381858888f19350505050158015612df2573d6000803e3d6000fd5b50612e2c565b612e2b338260000151836040015173ffffffffffffffffffffffffffffffffffffffff166141589092919063ffffffff16565b5b600c600083815260200190815260200160002060008082016000905560018201600090556002820160006101000a81549073ffffffffffffffffffffffffffffffffffffffff021916905560038201600090555050806040015173ffffffffffffffffffffffffffffffffffffffff16823373ffffffffffffffffffffffffffffffffffffffff167f1b144f4744701ccf1822c60aaa901c6939a7ef5140d19a5807cbfea19cd66b0284600001516040518082815260200191505060405180910390a45050565b600d5481565b6000600660008473ffffffffffffffffffffffffffffffffffffffff1673ffffffffffffffffffffffffffffffffffffffff16815260200190815260200160002060008373ffffffffffffffffffffffffffffffffffffffff1673ffffffffffffffffffffffffffffffffffffffff16815260200190815260200160002060009054906101000a900460ff16905092915050565b612f9561319f565b73ffffffffffffffffffffffffffffffffffffffff16612fb36124e3565b73ffffffffffffffffffffffffffffffffffffffff161461303c576040517f08c379a00000000000000000000000000000000000000000000000000000000081526004018080602001828103825260208152602001807f4f776e61626c653a2063616c6c6572206973206e6f7420746865206f776e657281525060200191505060405180910390fd5b600073ffffffffffffffffffffffffffffffffffffffff168173ffffffffffffffffffffffffffffffffffffffff1614156130c2576040517f08c379a00000000000000000000000000000000000000000000000000000000081526004018080602001828103825260268152602001806151806026913960400191505060405180910390fd5b8073ffffffffffffffffffffffffffffffffffffffff16600160009054906101000a900473ffffffffffffffffffffffffffffffffffffffff1673ffffffffffffffffffffffffffffffffffffffff167f8be0079c531659141344cd1fd0a4f28419497f9722a3daafe3b4186f6b6457e060405160405180910390a380600160006101000a81548173ffffffffffffffffffffffffffffffffffffffff021916908373ffffffffffffffffffffffffffffffffffffffff16021790555050565b600061319882600361421090919063ffffffff16565b9050919050565b600033905090565b816005600083815260200190815260200160002060006101000a81548173ffffffffffffffffffffffffffffffffffffffff021916908373ffffffffffffffffffffffffffffffffffffffff160217905550808273ffffffffffffffffffffffffffffffffffffffff1661321a83612156565b73ffffffffffffffffffffffffffffffffffffffff167f8c5be1e5ebec7d5bd14f71427d1e84f3dd0314c0f7b2291e5b200ac8c7c3b92560405160405180910390a45050565b600061326e8260000161422a565b9050919050565b60008083141561328857600090506132f5565b600082840290508284828161329957fe5b04146132f0576040517f08c379a00000000000000000000000000000000000000000000000000000000081526004018080602001828103825260218152602001806153786021913960400191505060405180910390fd5b809150505b92915050565b6000808211613372576040517f08c379a000000000000000000000000000000000000000000000000000000000815260040180806020018281038252601a8152602001807f536166654d6174683a206469766973696f6e206279207a65726f00000000000081525060200191505060405180910390fd5b81838161337b57fe5b04905092915050565b6000613399828461423b90919063ffffffff16565b9050803410156133f4576040517f08c379a000000000000000000000000000000000000000000000000000000000815260040180806020018281038252603b81526020018061531b603b913960400191505060405180910390fd5b60008134039050600081111561344c573373ffffffffffffffffffffffffffffffffffffffff166108fc829081150290604051600060405180830381858888f1935050505015801561344a573d6000803e3d6000fd5b505b600e60009054906101000a900473ffffffffffffffffffffffffffffffffffffffff1673ffffffffffffffffffffffffffffffffffffffff166108fc849081150290604051600060405180830381858888f193505050501580156134b4573d6000803e3d6000fd5b5050505050565b6134ce818461423b90919063ffffffff16565b8273ffffffffffffffffffffffffffffffffffffffff166370a08231336040518263ffffffff1660e01b8152600401808273ffffffffffffffffffffffffffffffffffffffff1673ffffffffffffffffffffffffffffffffffffffff16815260200191505060206040518083038186803b15801561354b57600080fd5b505afa15801561355f573d6000803e3d6000fd5b505050506040513d602081101561357557600080fd5b810190808051906020019092919050505010156135dd576040517f08c379a000000000000000000000000000000000000000000000000000000000815260040180806020018281038252603d8152602001806154c4603d913960400191505060405180910390fd5b61360a3330858573ffffffffffffffffffffffffffffffffffffffff166142c3909392919063ffffffff16565b61365933600e60009054906101000a900473ffffffffffffffffffffffffffffffffffffffff16838573ffffffffffffffffffffffffffffffffffffffff166142c3909392919063ffffffff16565b505050565b600073ffffffffffffffffffffffffffffffffffffffff168273ffffffffffffffffffffffffffffffffffffffff161415613701576040517f08c379a00000000000000000000000000000000000000000000000000000000081526004018080602001828103825260208152602001807f4552433732313a206d696e7420746f20746865207a65726f206164647265737381525060200191505060405180910390fd5b61370a81613182565b1561377d576040517f08c379a000000000000000000000000000000000000000000000000000000000815260040180806020018281038252601c8152602001807f4552433732313a20746f6b656e20616c7265616479206d696e7465640000000081525060200191505060405180910390fd5b613789600083836143b0565b6137da81600260008573ffffffffffffffffffffffffffffffffffffffff1673ffffffffffffffffffffffffffffffffffffffff1681526020019081526020016000206143b590919063ffffffff16565b506137f1818360036143cf9092919063ffffffff16565b50808273ffffffffffffffffffffffffffffffffffffffff16600073ffffffffffffffffffffffffffffffffffffffff167fddf252ad1be2c89b69c2b068fc378daa952ba7f163c4a11628f55a4df523b3ef60405160405180910390a45050565b61385b82613182565b6138b0576040517f08c379a000000000000000000000000000000000000000000000000000000000815260040180806020018281038252602c8152602001806153c5602c913960400191505060405180910390fd5b806009600084815260200190815260200160002090805190602001906138d7929190615003565b505050565b60006138e782613182565b61393c576040517f08c379a000000000000000000000000000000000000000000000000000000000815260040180806020018281038252602c815260200180615264602c913960400191505060405180910390fd5b600061394783612156565b90508073ffffffffffffffffffffffffffffffffffffffff168473ffffffffffffffffffffffffffffffffffffffff1614806139b657508373ffffffffffffffffffffffffffffffffffffffff1661399e8461130c565b73ffffffffffffffffffffffffffffffffffffffff16145b806139c757506139c68185612ef9565b5b91505092915050565b8273ffffffffffffffffffffffffffffffffffffffff166139f082612156565b73ffffffffffffffffffffffffffffffffffffffff1614613a5c576040517f08c379a00000000000000000000000000000000000000000000000000000000081526004018080602001828103825260298152602001806153f16029913960400191505060405180910390fd5b600073ffffffffffffffffffffffffffffffffffffffff168273ffffffffffffffffffffffffffffffffffffffff161415613ae2576040517f08c379a00000000000000000000000000000000000000000000000000000000081526004018080602001828103825260248152602001806151c96024913960400191505060405180910390fd5b613aed8383836143b0565b613af86000826131a7565b613b4981600260008673ffffffffffffffffffffffffffffffffffffffff1673ffffffffffffffffffffffffffffffffffffffff16815260200190815260200160002061440490919063ffffffff16565b50613b9b81600260008573ffffffffffffffffffffffffffffffffffffffff1673ffffffffffffffffffffffffffffffffffffffff1681526020019081526020016000206143b590919063ffffffff16565b50613bb2818360036143cf9092919063ffffffff16565b50808273ffffffffffffffffffffffffffffffffffffffff168473ffffffffffffffffffffffffffffffffffffffff167fddf252ad1be2c89b69c2b068fc378daa952ba7f163c4a11628f55a4df523b3ef60405160405180910390a4505050565b6000613c22836000018361441e565b60001c905092915050565b6000613d2d828573ffffffffffffffffffffffffffffffffffffffff1663dd62ed3e30876040518363ffffffff1660e01b8152600401808373ffffffffffffffffffffffffffffffffffffffff1673ffffffffffffffffffffffffffffffffffffffff1681526020018273ffffffffffffffffffffffffffffffffffffffff1673ffffffffffffffffffffffffffffffffffffffff1681526020019250505060206040518083038186803b158015613ce457600080fd5b505afa158015613cf8573d6000803e3d6000fd5b505050506040513d6020811015613d0e57600080fd5b810190808051906020019092919050505061423b90919063ffffffff16565b9050613de28463095ea7b360e01b8584604051602401808373ffffffffffffffffffffffffffffffffffffffff1673ffffffffffffffffffffffffffffffffffffffff16815260200182815260200192505050604051602081830303815290604052907bffffffffffffffffffffffffffffffffffffffffffffffffffffffff19166020820180517bffffffffffffffffffffffffffffffffffffffffffffffffffffffff83818316178352505050506144a1565b50505050565b600080600080613dfb8660000186614590565b915091508160001c8160001c8090509350935050509250929050565b80600a9080519060200190613e2d929190615003565b5050565b6000613e44846000018460001b84614629565b60001c90509392505050565b6000613e5e8260000161471f565b9050919050565b613e708484846139d0565b613e7c84848484614730565b613ed1576040517f08c379a000000000000000000000000000000000000000000000000000000000815260040180806020018281038252603281526020018061514e6032913960400191505060405180910390fd5b50505050565b60606000821415613f1f576040518060400160405280600181526020017f30000000000000000000000000000000000000000000000000000000000000008152509050614019565b600082905060005b60008214613f49578080600101915050600a8281613f4157fe5b049150613f27565b60608167ffffffffffffffff81118015613f6257600080fd5b506040519080825280601f01601f191660200182016040528015613f955781602001600182028036833780820191505090505b50905060006001830390508593505b6000841461401157600a8481613fb657fe5b0660300160f81b82828060019003935081518110613fd057fe5b60200101907effffffffffffffffffffffffffffffffffffffffffffffffffffffffffffff1916908160001a905350600a848161400957fe5b049350613fa4565b819450505050505b919050565b600061402982612156565b9050614037816000846143b0565b6140426000836131a7565b60006009600084815260200190815260200160002080546001816001161561010002031660029004905014614091576009600083815260200190815260200160002060006140909190615083565b5b6140e282600260008473ffffffffffffffffffffffffffffffffffffffff1673ffffffffffffffffffffffffffffffffffffffff16815260200190815260200160002061440490919063ffffffff16565b506140f782600361497590919063ffffffff16565b5081600073ffffffffffffffffffffffffffffffffffffffff168273ffffffffffffffffffffffffffffffffffffffff167fddf252ad1be2c89b69c2b068fc378daa952ba7f163c4a11628f55a4df523b3ef60405160405180910390a45050565b61420b8363a9059cbb60e01b8484604051602401808373ffffffffffffffffffffffffffffffffffffffff1673ffffffffffffffffffffffffffffffffffffffff16815260200182815260200192505050604051602081830303815290604052907bffffffffffffffffffffffffffffffffffffffffffffffffffffffff19166020820180517bffffffffffffffffffffffffffffffffffffffffffffffffffffffff83818316178352505050506144a1565b505050565b6000614222836000018360001b61498f565b905092915050565b600081600001805490509050919050565b6000808284019050838110156142b9576040517f08c379a000000000000000000000000000000000000000000000000000000000815260040180806020018281038252601b8152602001807f536166654d6174683a206164646974696f6e206f766572666c6f77000000000081525060200191505060405180910390fd5b8091505092915050565b6143aa846323b872dd60e01b858585604051602401808473ffffffffffffffffffffffffffffffffffffffff1673ffffffffffffffffffffffffffffffffffffffff1681526020018373ffffffffffffffffffffffffffffffffffffffff1673ffffffffffffffffffffffffffffffffffffffff1681526020018281526020019350505050604051602081830303815290604052907bffffffffffffffffffffffffffffffffffffffffffffffffffffffff19166020820180517bffffffffffffffffffffffffffffffffffffffffffffffffffffffff83818316178352505050506144a1565b50505050565b505050565b60006143c7836000018360001b6149b2565b905092915050565b60006143fb846000018460001b8473ffffffffffffffffffffffffffffffffffffffff1660001b614a22565b90509392505050565b6000614416836000018360001b614afe565b905092915050565b60008183600001805490501161447f576040517f08c379a00000000000000000000000000000000000000000000000000000000081526004018080602001828103825260228152602001806150f16022913960400191505060405180910390fd5b82600001828154811061448e57fe5b9060005260206000200154905092915050565b6060614503826040518060400160405280602081526020017f5361666545524332303a206c6f772d6c6576656c2063616c6c206661696c65648152508573ffffffffffffffffffffffffffffffffffffffff16614be69092919063ffffffff16565b905060008151111561458b5780806020019051602081101561452457600080fd5b810190808051906020019092919050505061458a576040517f08c379a000000000000000000000000000000000000000000000000000000000815260040180806020018281038252602a815260200180615501602a913960400191505060405180910390fd5b5b505050565b600080828460000180549050116145f2576040517f08c379a00000000000000000000000000000000000000000000000000000000081526004018080602001828103825260228152602001806153566022913960400191505060405180910390fd5b600084600001848154811061460357fe5b906000526020600020906002020190508060000154816001015492509250509250929050565b600080846001016000858152602001908152602001600020549050600081141583906146f0576040517f08c379a00000000000000000000000000000000000000000000000000000000081526004018080602001828103825283818151815260200191508051906020019080838360005b838110156146b557808201518184015260208101905061469a565b50505050905090810190601f1680156146e25780820380516001836020036101000a031916815260200191505b509250505060405180910390fd5b5084600001600182038154811061470357fe5b9060005260206000209060020201600101549150509392505050565b600081600001805490509050919050565b60006147518473ffffffffffffffffffffffffffffffffffffffff16614bfe565b61475e576001905061496d565b60606148f463150b7a0260e01b61477361319f565b888787604051602401808573ffffffffffffffffffffffffffffffffffffffff1673ffffffffffffffffffffffffffffffffffffffff1681526020018473ffffffffffffffffffffffffffffffffffffffff1673ffffffffffffffffffffffffffffffffffffffff16815260200183815260200180602001828103825283818151815260200191508051906020019080838360005b83811015614823578082015181840152602081019050614808565b50505050905090810190601f1680156148505780820380516001836020036101000a031916815260200191505b5095505050505050604051602081830303815290604052907bffffffffffffffffffffffffffffffffffffffffffffffffffffffff19166020820180517bffffffffffffffffffffffffffffffffffffffffffffffffffffffff838183161783525050505060405180606001604052806032815260200161514e603291398773ffffffffffffffffffffffffffffffffffffffff16614be69092919063ffffffff16565b9050600081806020019051602081101561490d57600080fd5b8101908080519060200190929190505050905063150b7a0260e01b7bffffffffffffffffffffffffffffffffffffffffffffffffffffffff1916817bffffffffffffffffffffffffffffffffffffffffffffffffffffffff191614925050505b949350505050565b6000614987836000018360001b614c11565b905092915050565b600080836001016000848152602001908152602001600020541415905092915050565b60006149be8383614d2a565b614a17578260000182908060018154018082558091505060019003906000526020600020016000909190919091505582600001805490508360010160008481526020019081526020016000208190555060019050614a1c565b600090505b92915050565b6000808460010160008581526020019081526020016000205490506000811415614ac957846000016040518060400160405280868152602001858152509080600181540180825580915050600190039060005260206000209060020201600090919091909150600082015181600001556020820151816001015550508460000180549050856001016000868152602001908152602001600020819055506001915050614af7565b82856000016001830381548110614adc57fe5b90600052602060002090600202016001018190555060009150505b9392505050565b60008083600101600084815260200190815260200160002054905060008114614bda5760006001820390506000600186600001805490500390506000866000018281548110614b4957fe5b9060005260206000200154905080876000018481548110614b6657fe5b9060005260206000200181905550600183018760010160008381526020019081526020016000208190555086600001805480614b9e57fe5b60019003818190600052602060002001600090559055866001016000878152602001908152602001600020600090556001945050505050614be0565b60009150505b92915050565b6060614bf58484600085614d4d565b90509392505050565b600080823b905060008111915050919050565b60008083600101600084815260200190815260200160002054905060008114614d1e5760006001820390506000600186600001805490500390506000866000018281548110614c5c57fe5b9060005260206000209060020201905080876000018481548110614c7c57fe5b9060005260206000209060020201600082015481600001556001820154816001015590505060018301876001016000836000015481526020019081526020016000208190555086600001805480614ccf57fe5b6001900381819060005260206000209060020201600080820160009055600182016000905550509055866001016000878152602001908152602001600020600090556001945050505050614d24565b60009150505b92915050565b600080836001016000848152602001908152602001600020541415905092915050565b606082471015614da8576040517f08c379a000000000000000000000000000000000000000000000000000000000815260040180806020018281038252602681526020018061523e6026913960400191505060405180910390fd5b614db185614bfe565b614e23576040517f08c379a000000000000000000000000000000000000000000000000000000000815260040180806020018281038252601d8152602001807f416464726573733a2063616c6c20746f206e6f6e2d636f6e747261637400000081525060200191505060405180910390fd5b600060608673ffffffffffffffffffffffffffffffffffffffff1685876040518082805190602001908083835b60208310614e735780518252602082019150602081019050602083039250614e50565b6001836020036101000a03801982511681845116808217855250505050505090500191505060006040518083038185875af1925050503d8060008114614ed5576040519150601f19603f3d011682016040523d82523d6000602084013e614eda565b606091505b5091509150614eea828286614ef6565b92505050949350505050565b60608315614f0657829050614fbb565b600083511115614f195782518084602001fd5b816040517f08c379a00000000000000000000000000000000000000000000000000000000081526004018080602001828103825283818151815260200191508051906020019080838360005b83811015614f80578082015181840152602081019050614f65565b50505050905090810190601f168015614fad5780820380516001836020036101000a031916815260200191505b509250505060405180910390fd5b9392505050565b60405180608001604052806000815260200160008152602001600073ffffffffffffffffffffffffffffffffffffffff168152602001600080191681525090565b828054600181600116156101000203166002900490600052602060002090601f016020900481019282601f1061504457805160ff1916838001178555615072565b82800160010185558215615072579182015b82811115615071578251825591602001919060010190615056565b5b50905061507f91906150cb565b5090565b50805460018160011615610100020316600290046000825580601f106150a957506150c8565b601f0160209004906000526020600020908101906150c791906150cb565b5b50565b6150ed91905b808211156150e95760008160009055506001016150d1565b5090565b9056fe456e756d657261626c655365743a20696e646578206f7574206f6620626f756e647352657761726452656769737472793a2072656465656d61626c652074696d657374616d70206973206265666f72652063757272656e742074696d654552433732313a207472616e7366657220746f206e6f6e20455243373231526563656976657220696d706c656d656e7465724f776e61626c653a206e6577206f776e657220697320746865207a65726f2061646472657373434d616e616765723a205f6572633230436f6e7472616374206e6f74206d61707065644552433732313a207472616e7366657220746f20746865207a65726f2061646472657373434d616e616765723a205f634572633230436f6e747261637420696e76616c696452657761726452656769737472793a2063616c6c6572206973206e6f74206f776e6572206e6f7220617070726f766564416464726573733a20696e73756666696369656e742062616c616e636520666f722063616c6c4552433732313a206f70657261746f7220717565727920666f72206e6f6e6578697374656e7420746f6b656e4552433732313a20617070726f76652063616c6c6572206973206e6f74206f776e6572206e6f7220617070726f76656420666f7220616c6c4552433732313a2062616c616e636520717565727920666f7220746865207a65726f20616464726573734552433732313a206f776e657220717565727920666f72206e6f6e6578697374656e7420746f6b656e52657761726452656769737472793a206e6f7420656e6f756768742065746820636f6c6c61746572616c20666f72206f72646572202b2066656573456e756d657261626c654d61703a20696e646578206f7574206f6620626f756e6473536166654d6174683a206d756c7469706c69636174696f6e206f766572666c6f774552433732313a20617070726f76656420717565727920666f72206e6f6e6578697374656e7420746f6b656e4552433732314d657461646174613a2055524920736574206f66206e6f6e6578697374656e7420746f6b656e4552433732313a207472616e73666572206f6620746f6b656e2074686174206973206e6f74206f776e4552433732314d657461646174613a2055524920717565727920666f72206e6f6e6578697374656e7420746f6b656e4552433732313a20617070726f76616c20746f2063757272656e74206f776e657252657761726452656769737472793a20696e76616c696420636f6c6c61746572616c20616d6f756e744552433732313a207472616e736665722063616c6c6572206973206e6f74206f776e6572206e6f7220617070726f76656452657761726452656769737472793a206e6f7420656e6f7567687420746f6b656e20636f6c6c61746572616c20666f72206f72646572202b20666565735361666545524332303a204552433230206f7065726174696f6e20646964206e6f74207375636365656452657761726452656769737472793a2063757272656e742074696d65206973206265666f72652072656c656173652074696d65a2646970667358221220a3464e03742f196649b7101d88225196efa61fe0110bd5484d91b0b1c5d2bdad64736f6c634300060a0033",
  "immutableReferences": {},
  "source": "// SPDX-License-Identifier: Apache-2.0\r\n\r\npragma solidity ^0.6.8;\r\n\r\nimport \"@openzeppelin/contracts/access/Ownable.sol\";\r\nimport \"@openzeppelin/contracts/token/ERC721/ERC721.sol\";\r\n\r\nimport \"@openzeppelin/contracts/token/ERC20/SafeERC20.sol\";\r\n\r\nimport { CManager } from \"./compound/CManager.sol\";\r\n\r\ncontract RewardRegistry is Ownable, ERC721, CManager {\r\n\r\n    event BaseURIChange(string baseURI);\r\n    event FeesCollectorChange(address indexed collector);\r\n    event ItemCreated(\r\n        address indexed from,\r\n        uint256 indexed tokenId,\r\n        address indexed collateralRegistry,\r\n        uint256 collateralAmount,\r\n        uint256 releaseTime\r\n    );\r\n    event ItemRedeemed(\r\n        address indexed from,\r\n        uint256 indexed tokenId,\r\n        address indexed collateralRegistry,\r\n        uint256 collateralAmount\r\n    );\r\n\r\n    using SafeERC20 for IERC20;\r\n\r\n    struct RewardInfo {\r\n        uint256 tokenAmount;\r\n        uint256 releaseTime;\r\n        address tokenRegistry;\r\n        bytes32 metaDataHash;\r\n    }\r\n\r\n    mapping (uint256 => RewardInfo) public rewardsMap;\r\n\r\n    /// Creation fee in a 0 - 1000 basis\r\n    uint256 public creationFee = 25; // 2,5%\r\n    uint256 public constant FEES_PRECISION = 1000;\r\n\r\n    address public feesCollector;\r\n\r\n    constructor (address _feesCollector, string memory _baseUri)\r\n        public Ownable() ERC721(\"Unstoppable redeemables\", \"REDEEM\")\r\n    {\r\n        setFeesCollector(_feesCollector);\r\n        setBaseURI(_baseUri);\r\n    }\r\n\r\n    /**\r\n     * @dev Sets the base URI for the registry metadata\r\n     * @param _baseUri Address for the fees collector\r\n     */\r\n    function setBaseURI(string memory _baseUri) public onlyOwner {\r\n        _setBaseURI(_baseUri);\r\n        emit BaseURIChange(_baseUri);\r\n    }\r\n\r\n    /**\r\n     * @dev Sets the fees collecto\r\n     * @param _collector Address for the fees collector\r\n     */\r\n    function setFeesCollector(address _collector) public onlyOwner {\r\n        feesCollector = _collector;\r\n        emit FeesCollectorChange(_collector);\r\n    }\r\n\r\n    /**\r\n     * Creates a NFT backed up by some ERC20 collateral\r\n     * @param _amount collateral ERC20 amount\r\n     * @param _registry ERC20 registry address\r\n     * @param _redeemableFrom timestamp in the future\r\n     * @param _metaDataURI for the new token\r\n     * @param _metaData metadata JSONified string\r\n     */\r\n    function create(\r\n        uint256 _amount,\r\n        address _registry,\r\n        uint256 _redeemableFrom,\r\n        string calldata _metaDataURI,\r\n        string calldata _metaData\r\n    )\r\n        external payable\r\n    {\r\n        require(_amount > 0, \"RewardRegistry: invalid collateral amount\");\r\n\r\n        // solhint-disable-next-line not-rely-on-time\r\n        require(\r\n            _redeemableFrom > block.timestamp,\r\n            \"RewardRegistry: redeemable timestamp is before current time\"\r\n        );\r\n\r\n        uint256 creationFeeAmount = _amount\r\n            .mul(creationFee)\r\n            .div(FEES_PRECISION);\r\n\r\n        /// address(0) is ETH.\r\n        if (_registry == address(0)) {\r\n            _collectEth(_amount, creationFeeAmount);\r\n\r\n        } else {\r\n            _collectToken(_amount, _registry, creationFeeAmount);\r\n        }\r\n\r\n        // Mint\r\n\r\n        uint256 tokenId = totalSupply();\r\n\r\n        /// Save corresponding ERC20 amount and registry\r\n        rewardsMap[tokenId] = RewardInfo({\r\n            tokenAmount: _amount,\r\n            tokenRegistry: _registry,\r\n            releaseTime: _redeemableFrom,\r\n            metaDataHash: getMetaDataHash(_metaData)\r\n        });\r\n\r\n        /// Mint new NFT backed by the ERC20 collateral to msg.sender.\r\n        _mint(msg.sender, tokenId);\r\n        _setTokenURI(tokenId, _metaDataURI);\r\n\r\n        emit ItemCreated(\r\n            msg.sender,\r\n            tokenId,\r\n            _registry,\r\n            _amount,\r\n            _redeemableFrom\r\n        );\r\n    }\r\n\r\n    function _collectEth(uint256 _amount, uint256 _creationFeeAmount) private {\r\n        uint256 totalAmount = _amount.add(_creationFeeAmount);\r\n\r\n        require(\r\n            msg.value >= totalAmount,\r\n            \"RewardRegistry: not enought eth collateral for order + fees\"\r\n        );\r\n\r\n        // return change if value exedees order amount\r\n        uint256 change = msg.value - totalAmount;\r\n\r\n        if (change > 0) {\r\n            payable(msg.sender).transfer(change);\r\n        }\r\n\r\n        // Transfer fees to collector\r\n        payable(feesCollector).transfer(_creationFeeAmount);\r\n    }\r\n\r\n    function _collectToken(\r\n        uint256 _amount,\r\n        address _registry,\r\n        uint256 _creationFeeAmount\r\n    )\r\n        private\r\n    {\r\n        require(\r\n            IERC20(_registry).balanceOf(msg.sender) >= _amount.add(_creationFeeAmount),\r\n            \"RewardRegistry: not enought token collateral for order + fees\"\r\n        );\r\n\r\n        // Transfer Collateral to this contract\r\n        IERC20(_registry).safeTransferFrom(\r\n            msg.sender, address(this), _amount\r\n        );\r\n\r\n        // Transfer fees to collector\r\n        IERC20(_registry).safeTransferFrom(\r\n            msg.sender, feesCollector, _creationFeeAmount\r\n        );\r\n    }\r\n\r\n    function getMetaDataHash(string memory _metaData) public pure returns (bytes32) {\r\n        bytes32 msgHash = keccak256(abi.encodePacked(_metaData));\r\n\r\n        // return prefixed hash, see: eth_sign()\r\n        return keccak256(\r\n            abi.encodePacked(\"\\x19Ethereum Signed Message:\\n32\", msgHash)\r\n        );\r\n    }\r\n\r\n    /**\r\n     * Redeems a created NFT, releasing the ERC20 collateral to the msg.sender\r\n     * @param _tokenId to redeem\r\n     */\r\n    function redeem(uint256 _tokenId) public {\r\n\r\n        /// Check caller is owner or approved\r\n        require(\r\n            _isApprovedOrOwner(_msgSender(), _tokenId),\r\n            \"RewardRegistry: caller is not owner nor approved\"\r\n        );\r\n\r\n        RewardInfo memory reward = rewardsMap[_tokenId];\r\n\r\n        // solhint-disable-next-line not-rely-on-time\r\n        require(\r\n            block.timestamp >= reward.releaseTime,\r\n            \"RewardRegistry: current time is before release time\"\r\n        );\r\n\r\n        /// burn the token releasing the collateral to the msg.sender.\r\n        _burn(_tokenId);\r\n\r\n        /// Send collateral to burner\r\n        if (reward.tokenRegistry == address(0)) {\r\n            payable(msg.sender).transfer(reward.tokenAmount);\r\n\r\n        } else {\r\n            IERC20(reward.tokenRegistry).safeTransfer(\r\n                msg.sender,\r\n                reward.tokenAmount\r\n            );\r\n        }\r\n\r\n        delete rewardsMap[_tokenId];\r\n\r\n        emit ItemRedeemed(\r\n            msg.sender,\r\n            _tokenId,\r\n            reward.tokenRegistry,\r\n            reward.tokenAmount\r\n        );\r\n    }\r\n}\r\n",
  "sourcePath": "D:/My Github/nft-marketplace/contracts/RewardRegistry.sol",
  "compiler": {
    "name": "solc",
    "version": "0.6.10+commit.00c0fcaf.Emscripten.clang"
  },
  "schemaVersion": "3.4.0",
  "updatedAt": "2021-05-12T17:04:49.121Z",
  "devdoc": {
    "methods": {
      "approve(address,uint256)": {
        "details": "See {IERC721-approve}."
      },
      "balanceOf(address)": {
        "details": "See {IERC721-balanceOf}."
      },
      "baseURI()": {
        "details": "Returns the base URI set via {_setBaseURI}. This will be automatically added as a prefix in {tokenURI} to each token's URI, or to the token ID if no specific URI is set for that token ID."
      },
      "create(uint256,address,uint256,string,string)": {
        "params": {
          "_amount": "collateral ERC20 amount",
          "_metaData": "metadata JSONified string",
          "_metaDataURI": "for the new token",
          "_redeemableFrom": "timestamp in the future",
          "_registry": "ERC20 registry address"
        }
      },
      "getApproved(uint256)": {
        "details": "See {IERC721-getApproved}."
      },
      "isApprovedForAll(address,address)": {
        "details": "See {IERC721-isApprovedForAll}."
      },
      "name()": {
        "details": "See {IERC721Metadata-name}."
      },
      "owner()": {
        "details": "Returns the address of the current owner."
      },
      "ownerOf(uint256)": {
        "details": "See {IERC721-ownerOf}."
      },
      "redeem(uint256)": {
        "params": {
          "_tokenId": "to redeem"
        }
      },
      "renounceOwnership()": {
        "details": "Leaves the contract without owner. It will not be possible to call `onlyOwner` functions anymore. Can only be called by the current owner. NOTE: Renouncing ownership will leave the contract without an owner, thereby removing any functionality that is only available to the owner."
      },
      "safeTransferFrom(address,address,uint256)": {
        "details": "See {IERC721-safeTransferFrom}."
      },
      "safeTransferFrom(address,address,uint256,bytes)": {
        "details": "See {IERC721-safeTransferFrom}."
      },
      "setApprovalForAll(address,bool)": {
        "details": "See {IERC721-setApprovalForAll}."
      },
      "setBaseURI(string)": {
        "details": "Sets the base URI for the registry metadata",
        "params": {
          "_baseUri": "Address for the fees collector"
        }
      },
      "setFeesCollector(address)": {
        "details": "Sets the fees collecto",
        "params": {
          "_collector": "Address for the fees collector"
        }
      },
      "supportsInterface(bytes4)": {
        "details": "See {IERC165-supportsInterface}. Time complexity O(1), guaranteed to always use less than 30 000 gas."
      },
      "symbol()": {
        "details": "See {IERC721Metadata-symbol}."
      },
      "tokenByIndex(uint256)": {
        "details": "See {IERC721Enumerable-tokenByIndex}."
      },
      "tokenOfOwnerByIndex(address,uint256)": {
        "details": "See {IERC721Enumerable-tokenOfOwnerByIndex}."
      },
      "tokenURI(uint256)": {
        "details": "See {IERC721Metadata-tokenURI}."
      },
      "totalSupply()": {
        "details": "See {IERC721Enumerable-totalSupply}."
      },
      "transferFrom(address,address,uint256)": {
        "details": "See {IERC721-transferFrom}."
      },
      "transferOwnership(address)": {
        "details": "Transfers ownership of the contract to a new account (`newOwner`). Can only be called by the current owner."
      }
    }
  },
  "userdoc": {
    "methods": {
      "create(uint256,address,uint256,string,string)": {
        "notice": "Creates a NFT backed up by some ERC20 collateral"
      },
      "creationFee()": {
        "notice": "Creation fee in a 0 - 1000 basis"
      },
      "redeem(uint256)": {
        "notice": "Redeems a created NFT, releasing the ERC20 collateral to the msg.sender"
      }
    }
  }
}